:02000000B62820
:08000800FF00030E8301F1006B
:100010000408F200700884001A088000840AF00ABC
:100020008C1A0C286F181928C030040603196F1594
:100030001D28E03004060319EF1572088400710EC4
:100040008300FF0E7F0E090050309900B101B2010C
:10005000EF01DE308605482534081B3C031CE228EE
:10006000340882072928E428A92815299A28792DF7
:10007000502D2D299029AD297A2CB929CD298C28EC
:10008000742C212CE62B0B2C712AE828FD28112F2B
:10009000132FA62A902B20088207AB28AB28DF2934
:1000A000AB28AB28AB28142A1C2A142A242AAB28F4
:1000B00020088207AB28AB28392AAB28AB28AB280D
:1000C000422AAB28422A4B2AAB2820088207AB28B9
:1000D000AB28542AAB28AB28AB28132B132B132B9C
:1000E0002F2BAB2820088207AB28AB284D2BAB2841
:1000F000AB28AB285A2B5A2B5A2B5A2BAB2820084B
:100100008207AB28AB285F2BAB28AB28AB28652B2D
:10011000AB28652B652BAB28BF2520088207AB28B1
:10012000AB286A2BAB28AB28AB28BA2BBA2BDE2B1B
:10013000BA2BAB2822088207572D592D5C2D5F2D35
:10014000622D3D088207232C492C4E2CAB28562CBF
:100150006F2C482513293F309900422546309900DD
:100160003F30990042254E309900B528002783166C
:100170001230990024309800831290309800363065
:100180009F0083169530920083124B30950000300B
:1001900092000C309700A22542309900003099005F
:1001A0008613D2280617D4289C250613D72886172D
:1001B000D9289C250027B101482550303406031961
:1001C0002428E4285830E528513099001A08DA2804
:1001D000831606168312413099008612AA25AA2595
:1001E000AA2586169625061EED2886120612831667
:1001F0000612831259309900DA28831606168312E4
:10020000413099008612AA25AA25AA258616892595
:10021000061A022986120612831606128312593014
:100220009900DA285930990029284825A300482543
:10023000A4004825A7004825A8004825A000482577
:10024000B3004825A1004825A2004825BD00482547
:10025000C6004825C700493013294825A500482570
:10026000A600A901AA013210EF01A030F0000B276F
:1002700083168C168312C0308B00593099006F1D85
:100280003F296F14EF1159309900A0308400000805
:10029000AB00840A0008AC00840A4B20B1187A290C
:1002A00029082506031D58292A0826060319882926
:1002B000EF186A29C0300406031D4729EF1D5E2987
:1002C000EF14C03084006F10A030F0006F1159306F
:1002D00099004729E0300406031D47296F1D6E2948
:1002E000EF10A03084006F14C030F000EF115930CF
:1002F0009900472983168C1283128B01AA250B279C
:100300004E3099004225290899002A089900792D34
:1003100083168C1283128B01AA250B2750301329C8
:100320004825A5004825A600A901AA013210593088
:1003300099008C1E99291A08AB008C1E9D291A0859
:10034000AC0029082506031DA9292A082606031939
:10035000882959309900582099295530840048251A
:100360008000840A6D300406031DAF2955308400D7
:100370006528A901AA0132108C1A29287220422569
:100380002F0899003008990029082306031DBC296D
:100390002A082406031DBC292928A901AA01321014
:1003A0008C1A29287F204225300899002908270621
:1003B000031DD0292A082806031DD0292928321C0C
:1003C000D5255408033A0319E829D40AEB25080077
:1003D000ED250030CD260301ED260301ED26083082
:1003E000D007031CF629CF0A0319CE0A0726D40129
:1003F0000800321C1D25FC29C9253119122AC80103
:10040000C901A7248525C80A4708C907C324B11C08
:100410000E2A46084806031D012A0800A724852540
:10042000C90B0E2A17250800C92531191A2AA72435
:100430008B25C32417250800C9253119222AA72492
:100440008525C32417250800C9253119372AB42466
:100450008B25B11F342A8B258B258B258B258B254E
:100460008B258B258B258B2517303225C32417250B
:10047000080032183D2A4D2632142B0867262C0816
:10048000672608002B08D0248B2517252C08D0249C
:100490008B25172508002B08DC248B2517252C0815
:1004A000DC248B25172508004026FF255708AC00C3
:1004B0005808AB00EB255908AC005A08AB00EB25F7
:1004C0005B08AC005C08AB00EB255D08AC005E0887
:1004D000AB00ED250030CD260301ED260301ED260E
:1004E0001229DE250030CE26A630ED268E30ED26F0
:1004F0000030CE26A630ED268C30ED26FD255F306F
:1005000084000730D2000008AC00840A0008AB0069
:10051000840AED250030CD260301ED260301ED26EA
:100520000030CE26F630ED262A30ED26ED250030BF
:10053000CD260301ED260301ED260030CE26F63050
:10054000ED262A30ED26D20B832A12294825C30036
:100550004825C4004825C500DE2540262030CE00B1
:10056000CF012830D00007264508AC00EF30AB00A3
:10057000EB254408AC004308AB00EB25FF30AC0092
:10058000AB00EB25FF30AC00AB00ED250030CD26F5
:100590000301ED260301ED26AA259A23410845060D
:1005A000031DDE2A4208EF3A031DDE2A40084406F6
:1005B000031DDE2A3F084306031912294E30132972
:1005C0005F3084006008AB005F08AC006430C90095
:1005D000A7248525C90BE82AC324FF30B1180030B1
:1005E00013290925573084000008AC00AB014B20CB
:1005F000B118112B840A5B300406031DF42A172559
:10060000172517255F3084006008AB005F08AC0039
:100610006430C900A7248525C90B0A2BC324FF30E9
:10062000B118003013290925573084000008AC00A8
:10063000AB014B20B1182D2B840A5B300406031D3F
:10064000162B1725172517255F3084006008AB008F
:100650005F08AC004B20FF30B1180030132909258A
:10066000573084000008AC00AB014B20B1184B2B75
:10067000840A5B300406031D322B17251725172526
:100680005F3084006008AB005F08AC00B1174B20FE
:10069000B113FF30B11800301329321CF525093091
:1006A0002C26B00009302C26AF0019250800321C7A
:1006B0001D255A2B04303225EB2417250800321C47
:1006C0004D26AF26B0001925080005303225EB2451
:1006D000172508003F30CE00FF30CF00FE30D0009D
:1006E000072609302C26D50009302C26D600FF25F8
:1006F000573084000830D20009302C268000840A4C
:10070000D20B7C2BFD250730D20009302C2680002F
:10071000840A09302C268000840AD20B852BD12B29
:100720009A23420899003F08990042254008990001
:10073000410813292830D000CF012030CE000726F1
:1007400009302C26C10009302C26C20009302C2685
:10075000C00009302C26BF000800321472202F0878
:10076000E0003008DF00962472202F08EE003008E9
:10077000ED00D12B0925573084000430BA007220D7
:1007800030088000840ABA0BBF2B722072207220BE
:100790002F08D6003008D50072202F08E00030085E
:1007A000DF00433099001A30BA0055308400000849
:1007B0009900840A4225BA0BD72B29289624722047
:1007C0002F08EE003008ED004F25BA2B4825BC005D
:1007D000AF25311D032CBB01A901AA01321033182A
:1007E0009D2472202F083C06031D052C3008FF3A7B
:1007F000031D052CBB0BEF2B230829060319032C23
:1008000042309900EF2B59301329331C092C321A2E
:10081000032C4E301329B725311D1D2CA901AA0127
:100820007F203008FF3A031D1F2C27082906031DCF
:10083000102C28082A06031D102C593013294E307D
:1008400013290000A1280925112539244F2502303C
:1008500032257F30AD00FE30AE00222539244F25F1
:10086000033032257F30AD00FE30AE002225392422
:100870001229013032258925073032258925083093
:100880003225AA25013032258925073032258925D0
:100890000800092509303225AA2512290925093021
:1008A0003225AA250B303225AA251229AA253C304B
:1008B000CE00CF010430D00007260C30CE26803089
:1008C000ED260030ED260030CE260030ED2600303B
:1008D000ED260030CE26AA25AA254F251229092566
:1008E0001F303225AA251229962472202F0899003C
:1008F000300813294825AB004825AC004825CA001C
:100900004825CB0096244B20B11C882C433013295A
:10091000B31C12294F25092511254A08AB004B08A5
:10092000AC004B20B11C122946301329AA01A901A1
:1009300017259D24321E982C080032122303290605
:10094000031D0800FF302A060319321608002C0880
:10095000AE002B08AD000310AE0DAD0D02303225F8
:1009600022250830322508002C08AE002B08AD00E7
:100970000310AE0DAD0D0230322522251830B11B0B
:10098000083032250800B11404303225EB242F083A
:100990002B06031D080030082C060319B1100800AF
:1009A000AE003F30AD00033032250310AE0DAD0D6B
:1009B0002225083032250800AE003F30AD0003305C
:1009C00032250310AE0DAD0D2225183032258B25B2
:1009D00017303225080083160614831200001030E9
:1009E000B9008616000086120000031006180314D2
:1009F000AF0CB00CB90BF12C061083160610831245
:100A00000310AF0CB00C3F30311A0F30AF0531126C
:100A10000800003032257F30AD00FE30AE002225C8
:100A200008000730BE001725BE0B132D0800063046
:100A30003225AA0F0800A90A080006303225321410
:100A4000311608001030B900AD0CAE0C8616031834
:100A50002C2D000006102E2D06142E2D8612B90BFB
:100A6000242D0800B5000630B600B50C8616031814
:100A70003C2D000006103E2D06143E2D8612B60BAE
:100A8000352D080083160000981C432D83120800A2
:100A9000830100008C1E492D1A08B400080031148F
:100AA00006121211831605168312AA259A286E259E
:100AB000642D6E257125642D6E257125642D71259B
:100AC0006E25642D71256E2531186C2D8613682DC9
:100AD00006176A2D56301329311008000616AA256C
:100AE00008001215AA258316051283120512A225E5
:100AF000080006121211831605168312A22506138A
:100B0000812D8617832D763013298B250E303225C3
:100B1000080001308C2D2108B7003030B800B80B28
:100B20008F2DB70B8D2D0800000008009B259B25FD
:100B30009B259B259B2508001930BF00A225BF0BD4
:100B40009E2D0800B8011830B700B80BA52DB70BC3
:100B5000A52D0800A225A225A225A2250800311551
:100B60002308031D0800240803193111080031155A
:100B70002708031D08002808031931110800553003
:100B80008400FF308000840A6F300406031DC12DED
:100B9000080031113F30311A0F302B06031D0800B9
:100BA0002C08FF3A031931150800DE254026D00134
:100BB000CF01CE010726D401321408003C30CE000C
:100BC000CF010630D00007260C30CE260030ED26AF
:100BD0000030ED2608000D30EE2D0F30CE262C080B
:100BE000ED262B08ED2619250800D001CF01CE01F6
:100BF000A901AA010726321408003030002E203047
:100C0000CE00CF01D0010726A901AA0108000030BB
:100C1000CE265008ED260E30ED260030CE26F630DA
:100C2000ED266E30ED260030CE264F08ED260E3034
:100C3000ED260030CE26F730ED266E30ED26003062
:100C4000CE264E08ED260E30ED260030CE26F830AA
:100C5000ED266E30ED260800CE260030ED268316F8
:100C6000061483120830B90086169425861294253E
:100C7000031006180314D30CB90B342E53080800C4
:100C80000030CE26A630ED268E30ED260030CE2662
:100C9000A630ED269C30ED2608000030CE26A6308A
:100CA000ED269E30ED260030CE26A630ED269C3077
:100CB000ED260030CE260030ED260E30ED26003039
:100CC000CE26A930ED266E30ED2632140800CC0079
:100CD0000030CE264C08ED260E30ED260030CE2614
:100CE000A830ED266E30ED260030CE26A630ED265B
:100CF0008430ED260030CE265530ED260E30ED2620
:100D00000030CE26A730ED266E30ED260030CE2600
:100D1000AA30ED260E30ED260030CE26A730ED2687
:100D20006E30ED260030CE26A630ED268230ED2640
:100D30000030CE260301ED260301ED260030CE263D
:100D400032308C250301ED260301ED260030CE263E
:100D5000A630ED269430ED26C62619250800003071
:100D6000CE26A630ED268030ED260030CE26A830E7
:100D7000ED265030ED260030CE26F530ED266E30D3
:100D8000ED2602302C26C626530808000030CE2659
:100D9000A930ED262A30ED260800B116D1009425A1
:100DA0008616942583160610831294250430B90004
:100DB0000610D10C03180614942586169425B11E2E
:100DC000E52E390BE52E8B25B11286129425B90B31
:100DD000D82EDE30860594250800D1000830B900F1
:100DE000DE308605D10C031806149425861694254A
:100DF00086129425B90BF02EDE3086059425080066
:100E0000103085008430860083161730850002304C
:100E100086008312080018121A081A081A081816F1
:100E2000080000301329831608309B001F27990003
:100E30001F27990042251F2799001F271329831672
:0A0E40001C141A089B0A8312080014
:02400E002A0383
:10420000500072006F0074006F003A002000200020
:084210005000300030004400B2
:00000001FF
