:02000000B52821
:08000800FF00030E8301F1006B
:100010000408F200700884001A088000840AF00ABC
:100020008C1A0C286F181928C030040603196F1594
:100030001D28E03004060319EF1572088400710EC4
:100040008300FF0E7F0E090050309900B101B2010C
:10005000EF018501252534081B3C031CCD283408FD
:1000600082072928CF28A828F22899284C2D2D2D41
:100070000A296D298A29572C9629AA298B28512CBF
:10008000FE2BC32BE82B4E2AD328E128D32ED52EC6
:10009000832A6D2B20088207AA28AA28BC29AA280F
:1000A000D629D929F129F929F129012AAA282008D4
:1000B0008207AA28AA28162AAA28AA28AA281F2A14
:1000C000AA281F2A282AAA2820088207AA28AA289C
:1000D000312AAA28BD2ACE2AF02AF02AF02A0C2B8F
:1000E000AA2820088207AA28AA282A2BAA28342B63
:1000F000372B372B372B372B372BAA282008820793
:10010000AA28AA283C2BAA28AA28AA28422BAA282F
:10011000422B422BAA28852520088207AA28AA2834
:10012000472BAA288A2B972B972B972BBB2B972BE8
:10013000AA2822088207312D332D362D392D3C2D4A
:100140003D088207002C262C2B2CAA28332C4C2C63
:100150002525F0283F3099001F25463099003F3073
:1001600099001F254E309900B428C32607309F0000
:100170008316123099002430980083129030980032
:1001800070254230990003309900C326B10125251E
:100190005030340603192428CF285830D028513045
:1001A00099001A08C52841309900851070257025DE
:1001B000702585146025051DD528851059309900B6
:1001C000C52841309900851070257025702585144B
:1001D00055250519E328851059309900C52859304F
:1001E000990029282525A3002525A4002525A70059
:1001F0002525A8002525A0002525B3002525A1003B
:100200002525A2002525BD002525C6002525C700DA
:100210004930F0282525A5002525A600A901AA0119
:100220003210EF01A030F000CD2683168C16831219
:10023000C0308B00593099006F1D1C296F14EF11CD
:1002400059309900A03084000008AB00840A0008EF
:10025000AC00840A4A20B118572929082506031D35
:1002600035292A08260603196529EF184729C030C1
:100270000406031D2429EF1D3B29EF14C030840020
:100280006F10A030F0006F11593099002429E03030
:100290000406031D24296F1D4B29EF10A030840094
:1002A0006F14C030F000EF115930990024298316E3
:1002B0008C1283128B017025CD264E3099001F259C
:1002C000290899002A0899004C2D83168C12831254
:1002D0008B017025CD265030F0282525A500252539
:1002E000A600A901AA013210593099008C1E762966
:1002F0001A08AB008C1E7A291A08AC0029082506BA
:10030000031D86292A0826060319652959309900F4
:10031000572076295530840025258000840A6D30C9
:100320000406031D8C29553084006428A901AA0104
:1003300032108C1A292871201F252F0899003008A7
:10034000990029082306031D99292A082406031D5C
:1003500099292928A901AA0132108C1A29287E205E
:100360001F253008990029082706031DAD292A08F2
:100370002806031DAD292928321C9B255408033A61
:100380000319C529D40AB1250800B32500309326E6
:100390000301B2260301B2260830D007031CD3297B
:1003A000CF0A0319CE0ACD25D4010800321CFA2445
:1003B000D9298F253119EF29C801C9018424512574
:1003C000C80A4708C907A024B11CEB2946084806FB
:1003D000031DDE29080084245125C90BEB29F424D0
:1003E00008008F253119F72984245725A024F424E7
:1003F00008008F253119FF2984245125A024F424D5
:1004000008008F253119142A91245725B11F112A6C
:1004100057255725572557255725572557255725FC
:10042000572517300F25A024F424080032181A2A63
:10043000132632142B082D262C082D2608002B08F5
:10044000AD245725F4242C08AD245725F4240800A6
:100450002B08B9245725F4242C08B9245725F42453
:1004600008000626C5255708AC005808AB00B12582
:100470005908AC005A08AB00B1255B08AC005C0819
:10048000AB00B1255D08AC005E08AB00B3250030C1
:1004900093260301B2260301B226EF28A4250030DB
:1004A0009426A630B2268E30B22600309426A6308E
:1004B000B2268C30B226C3255F3084000730D200CC
:1004C0000008AC00840A0008AB00840AB3250030A1
:1004D00093260301B2260301B22600309426F6309B
:1004E000B2262A30B226B325003093260301B22665
:1004F0000301B22600309426F630B2262A30B22606
:10050000D20B602AEF282525C3002525C400252508
:10051000C500A42506262030CE00CF012830D0000B
:10052000CD254508AC00EF30AB00B1254408AC0048
:100530004308AB00B125FF30AC00AB00B125FF3064
:10054000AC00AB00B325003093260301B2260301B3
:10055000B2267025772341084506031DBB2A4208B1
:10056000EF3A031DBB2A40084406031DBB2A3F087F
:1005700043060319EF284E30F0285F3084006008EE
:10058000AB005F08AC006430C90084245125C90B5E
:10059000C52AA024FF30B1180030F028E6245730D7
:1005A00084000008AC00AB014A20B118EE2A840A8E
:1005B0005B300406031DD12AF424F424F4245F30B4
:1005C00084006008AB005F08AC006430C90084247C
:1005D0005125C90BE72AA024FF30B1180030F028BC
:1005E000E624573084000008AC00AB014A20B11863
:1005F0000A2B840A5B300406031DF32AF424F42436
:10060000F4245F3084006008AB005F08AC004A202F
:10061000FF30B1180030F028E6245730840000087D
:10062000AC00AB014A20B118282B840A5B300406C9
:10063000031D0F2BF424F424F4245F30840060089D
:10064000AB005F08AC00B1174A20B113FF30B118FE
:100650000030F028321CBB250930F225B0000930EB
:10066000F225AF00F6240800321CFA24372B0430A0
:100670000F25C824F4240800321C13267526B00068
:10068000F624080005300F25C824F42408003F3064
:10069000CE00FF30CF00FE30D000CD250930F2254E
:1006A000D5000930F225D600C52557308400083022
:1006B000D2000930F2258000840AD20B592BC325C1
:1006C0000730D2000930F2258000840A0930F22573
:1006D0008000840AD20B622BAE2B7723420899004C
:1006E0003F0899001F25400899004108F02828304C
:1006F000D000CF012030CE00CD250930F225C10039
:100700000930F225C2000930F225C0000930F22577
:10071000BF000800321471202F08E0003008DF000D
:10072000732471202F08EE003008ED00AE2BE62474
:10073000573084000430BA00712030088000840AE9
:10074000BA0B9C2B7120712071202F08D600300825
:10075000D50071202F08E0003008DF0043309900F9
:100760001A30BA005530840000089900840A1F2509
:10077000BA0BB42B2928732471202F08EE003008FF
:10078000ED002C25972B2525BC007525311DE02B70
:10079000BB01A901AA01321033187A2471202F0855
:1007A0003C06031DE22B3008FF3A031DE22BBB0B76
:1007B000CC2B230829060319E02B42309900CC2BBF
:1007C0005930F028331CE62BB219E02B4E30F028BC
:1007D0007D25311DFA2BA901AA017E203008FF3AA0
:1007E000031DFC2B27082906031DED2B28082A06CC
:1007F000031DED2B5930F0284E30F0280000A028C2
:10080000E624EE2416242C2502300F257F30AD007F
:10081000FE30AE00FF2416242C2503300F257F3038
:10082000AD00FE30AE00FF241624EF2801300F2566
:10083000552507300F25552508300F257025013027
:100840000F25552507300F2555250800E6240930CA
:100850000F257025EF28E62409300F2570250B3071
:100860000F257025EF2870253C30CE00CF010430D5
:10087000D000CD250C3094268030B2260030B22630
:10088000003094260030B2260030B2260030942684
:10089000702570252C25EF28E6241F300F257025A4
:1008A000EF28732471202F0899003008F02825259F
:1008B000AB002525AC002525CA002525CB007324D7
:1008C0004A20B11C652C4330F028B31CEF282C259E
:1008D000E624EE244A08AB004B08AC004A20B11CC9
:1008E000EF284630F028AA01A901F4247A24B21D89
:1008F000752C0800B21123032906031D0800FF30E0
:100900002A060319B21508002C08AE002B08AD000A
:100910000310AE0DAD0D02300F25FF2408300F255A
:1009200008002C08AE002B08AD000310AE0DAD0D75
:1009300002300F25FF241830B11B08300F250800A6
:10094000B11404300F25C8242F082B06031D0800FE
:1009500030082C060319B1100800AE003F30AD007E
:1009600003300F250310AE0DAD0DFF2408300F2509
:100970000800AE003F30AD0003300F250310AE0D70
:10098000AD0DFF2418300F25572517300F2508000F
:1009900083160514831200001030B900851400007E
:1009A00085100000031005180314AF0CB00CB90B30
:1009B000CE2C05108316051083120310AF0CB00C5B
:1009C0003F30311A0F30AF053112080000300F25CB
:1009D0007F30AD00FE30AE00FF2408000730BE00BF
:1009E000F424BE0BF02C080006300F25AA0F0800D7
:1009F000A90A080006300F253214311608001030FD
:100A0000B900AD0CAE0C85140318092D00000510BB
:100A10000B2D05140B2D8510B90B012D0800B50009
:100A20000630B600B50C85140318192D000005100A
:100A30001B2D05141B2D8510B60B122D08008316D7
:100A40000000981C202D83120800830100008C1EDA
:100A5000262D1A08B400080031141F3086057025B1
:100A6000992844253E2D442547253E2D44254925DA
:100A70003E2D472544253E2D492544253118422D3C
:100A80005630F02831100800861670250800061729
:100A90004A2D8617682508001F30860568257630A0
:100AA000F02857250E300F2508000130582D210859
:100AB000B7003030B800B80B5B2DB70B592D0800CC
:100AC0006525652565256525652508000000080064
:100AD000B8011830B700B80B6B2DB70B6B2D0800A1
:100AE0006825682568256825080031152308031D39
:100AF0000800240803193111080031152708031DC7
:100B00000800280803193111080055308400FF300F
:100B10008000840A6F300406031D872D0800311100
:100B20003F30311A0F302B06031D08002C08FF3A06
:100B3000031931150800A4250626D001CF01CE01E6
:100B4000CD25D401321408003C30CE00CF01063050
:100B5000D000CD250C3094260030B2260030B226CD
:100B600008000D30B42D0F3094262C08B2262B0827
:100B7000B226F6240800D001CF01CE01A901AA01B6
:100B8000CD25321408003030C62D2030CE00CF01E4
:100B9000D001CD25A901AA010800003094265008F3
:100BA000B2260E30B22600309426F630B2266E30D1
:100BB000B226003094264F08B2260E30B2260030FE
:100BC0009426F730B2266E30B226003094264E08B6
:100BD000B2260E30B22600309426F830B2266E309F
:100BE000B226080094260030B2268316051483121C
:100BF0000830B90085146625851066250310051890
:100C00000314D30CB90BFA2D5308080000309426B6
:100C1000A630B2268E30B22600309426A630B226F8
:100C20009C30B226080000309426A630B2269E30B2
:100C3000B22600309426A630B2269C30B226003070
:100C400094260030B2260E30B22600309426A93009
:100C5000B2266E30B22632140800CC000030942642
:100C60004C08B2260E30B22600309426A830B226A8
:100C70006E30B22600309426A630B2268430B226DA
:100C8000003094265530B2260E30B226003094261D
:100C9000A730B2266E30B22600309426AA30B22693
:100CA0000E30B22600309426A730B2266E30B2261F
:100CB00000309426A630B2268230B2260030942628
:100CC0000301B2260301B2260030942632305825A3
:100CD0000301B2260301B22600309426A630B226C4
:100CE0009430B2268C26F624080000309426A630D4
:100CF000B2268030B22600309426A830B22650307A
:100D0000B22600309426F530B2266E30B22602307C
:100D1000F2258C265308080000309426A930B2260C
:100D20002A30B2260800B116D10066258514662542
:100D300083160510831266250430B9000510D10C06
:100D400003180514662585146625B11EAB2E390BD4
:100D5000AB2E5725B11285106625B90B9E2E850145
:100D600066250800D1000830B9008501D10C0318B0
:100D7000051466258514662585106625B90BB52EE4
:100D8000850166250800850104308600831604303D
:100D90008500023086008312080018121A081A080B
:100DA0001A08181608000330F028831608309B0034
:100DB000E1269900E12699001F25E1269900E12608
:0E0DC000F02883161C141A089B0A83120800E0
:02400E002A0383
:10420000500072006F0074006F003A002000200020
:084210005000300030004400B2
:00000001FF
