:02000000C02816
:08000800FF00030E8301F1006B
:100010000408F200700884001A088000840AF00ABC
:100020008C1A0C286F181928C030040603196F1594
:100030001D28E03004060319EF1572088400710EC4
:100040008300FF0E7F0E090050309900B101B2010C
:10005000EF018227DE308605C6253408193C031CD3
:10006000B128340882072A28EE28AF281F29A8289B
:10007000F92DCE2D37299F29BC29002DBE29D22943
:100080009228FA2CA72C6C2C912C7328F228072983
:10009000932F952FDC2A0D2C20088207B128E42904
:1000A000E4293E2AB128B128192A212A192A292A05
:1000B0003E2A20088207B128502A502A622AB128F5
:1000C000B128592AB128592A622A622A20088207AF
:1000D000B1286B2A6B2A162BB128B1284B2B4B2B3E
:1000E0004B2B672B852B20088207B128882AA22A50
:1000F00020088207B128CA2BCA2BD72BB128B128D8
:10010000D72BD72BD72BD72BD72B20088207B1285B
:10011000DC2BDC2BE22BB128B128E22BB128E22B1F
:10012000E22BE22B3F2620088207B128E72BE72BA2
:100130002A2CB128B128392C392C642C392C392C93
:100140003D088207A92CCF2CD42CD02CDC2CF52CEC
:1001500022088207D52DD72DDA2DDD2DE02DC625DD
:100160001D29061212118316051683120613B828CC
:100170008617BA28C6253F3099003F309900BF281E
:100180008227831612309900243098008312903011
:10019000980036309F0083169530920083124B30C2
:1001A0009500003092000C309700222642309900D2
:1001B000003099008613DC280617DE281C2606135B
:1001C000E1288617E3281C268227B101C625503076
:1001D000340603192428EE285830EF2851309900AE
:1001E0001A08E428831606168312413099008612F5
:1001F0002A262A262A2686161626061EF72886125C
:10020000061283160612831259309900E4288316C9
:10021000061683124130990086122A262A262A269B
:1002200086160926061A0C2986120612831606124D
:10023000831259309900E428593099002A28C6259C
:10024000A300C625A400C625A700C625A800C6256C
:10025000A000C625B300C625A100C625A200C6255C
:10026000BD00C625C600C625C70049301D29C625C4
:10027000A500C625A600A901AA013210EF01A030F1
:10028000F0008D2783168C168312C0308B005930F6
:1002900099006F1D49296F14EF1159309900A03052
:1002A00084000008AB00840A0008AC00840A4C20DB
:1002B000B118842929082506031D62292A08260663
:1002C00003199729EF187429C0300406031D51291A
:1002D000EF1D6829EF14C03084006F10A030F000CB
:1002E0006F11593099005129E0300406031D51293E
:1002F0006F1D7829EF10A03084006F14C030F0001B
:10030000EF1159309900512983168C1283128B01F9
:100310002A268D274E309900C025290899002A08E1
:100320009900C0252F08990030089900F92D8316EF
:100330008C1283128B012A268D2750301D29C62549
:10034000A500C625A600A901AA01321059309900BE
:100350008C1EA8291A08AB008C1EAC291A08AC0008
:1003600029082506031DB8292A08260603199729F6
:10037000593099005920A829A7276628A901AA0160
:1003800032108C1A2A287820C0252F0899003008AE
:10039000990029082306031DC1292A082406031DE4
:1003A000C1292A28A901AA0132108C1A2A288520DD
:1003B000C0253008990029082706031DD5292A08D9
:1003C0002806031DD5292A28321C55265408033A2D
:1003D0000319ED29D40A6D2608006F2600304F2737
:1003E00003016F2703016F270830D007031CFB2987
:1003F000CF0A0319CE0A8926D4010800321C9B2596
:10040000012A49263119172AC801C9012D250526B7
:10041000C80A4708C9074225B11C132A46084806DE
:10042000031D062A172A2D250526C90B132A9525F3
:100430000800492631191F2A2D250B26422595250E
:10044000080049263119272A2D25052642259525FC
:100450000800492631193C2A31250B26B11F392ABB
:100460000B260B260B260B260B260B260B260B2604
:100470000B261730B025422595250800321C5B2637
:1004800037255408033A0319482AD40A9525080049
:100490001830B0250B261730B0259525D40108005B
:1004A0003218542ACF2632142B08E9262C08E926C4
:1004B00008002B084F250B2695252C084F250B26C9
:1004C000952508002B085B250B2695252C085B2518
:1004D0000B2695250800C22681265708AC0058082F
:1004E000AB006D265908AC005A08AB006D265B08BE
:1004F000AC005C08AB006D265D08AC005E08AB008C
:100500006F2600304F2703016F2703016F271C2937
:10051000A727AB22BB22BB22BB22BB22BB220230BD
:1005200084073030CE00CF010C30D0008926BB22AA
:10053000043084023030CE00CF010A30D00089264A
:10054000BB221C29A7275E26AB220730D200BB2284
:10055000D20BA72A1C2900305027A6306F278E30D7
:100560006F2700305027A6306F278C306F277F26EB
:100570005F30840008000008AC00840A0008AB006B
:10058000840A6F2600304F2703016F2703016F276E
:1005900000305027F6306F272A306F276F26003043
:1005A0004F2703016F2703016F2700305027F630D4
:1005B0006F272A306F270800C625C300C625C40050
:1005C000C625C5005E26C2262030CE00CF012830C9
:1005D000D00089264508AC00EF30AB006D264408FA
:1005E000AC004308AB006D26FF30AC00AB006D26BD
:1005F000FF30AC00AB006F2600304F2703016F27A0
:1006000003016F272A26172441084506031D142BD2
:100610004208EF3A031D142B40084406031D142B17
:100620003F08430603191C294E301D29B115852B9F
:100630005F3084006008AB005F08AC006430C90024
:100640002D250526C90B202B4225FF30B11800307F
:100650001D298725573084000008AC00AB014C20D1
:10066000B118492B840A5B300406031D2C2B9525F9
:10067000952595255F3084006008AB005F08AC00CD
:100680006430C9002D250526C90B422B4225FF30B9
:10069000B11800301D298725573084000008AC00B0
:1006A000AB014C20B118652B840A5B300406031D96
:1006B0004E2B9525952595255F3084006008AB006D
:1006C0005F08AC004C20FF30B11800301D29872591
:1006D000573084000008AC00AB014C20B118832BCC
:1006E000840A5B300406031D6A2B95259525952504
:1006F0005F3084006008AB005F08AC00B1174C208D
:10070000B113FF30B11800301D2932108725573042
:1007100084000008AC00AB014C20840A5B30040666
:10072000031D892B872557308400D7230008300606
:10073000031DB02B840A5B300406031D952B952501
:10074000952595255F308400B223311DB02BB11D56
:10075000AE2B9525840AB223311DB02BFF301D2905
:1007600000301D290008AC00840A0008AB00840397
:1007700037251830B0250B261730B025D723311177
:1007800000082C06031D0800840A00082B06031924
:1007900031150800321C77260930AE26B00009302A
:1007A000AE26AF0097250800321C9B25D72B0430BE
:1007B000B0256A2595250800321CCF263127B000C8
:1007C000972508000530B0256A25952508003F309B
:1007D000CE00FF30CF00FE30D00089260930AE2693
:1007E000D5000930AE26D600812657308400083067
:1007F000D2000930AE268000840AD20BF92B7F2666
:100800000730D2000930AE268000840A0930AE26B7
:100810008000840AD20B022C572C1724420899001E
:100820003F089900C0254008990041081D2928303B
:10083000D000CF012030CE0089260930AE26C1007D
:100840000930AE26C2000930AE26C0000930AE26FF
:10085000BF000800B115392C321478202F08E000B1
:100860003008DF001C2578202F08EE003008ED004E
:10087000572C8725573084000430BA007820300880
:100880008000840ABA0B3E2C7820782078202F082C
:10089000D6003008D50078202F08E0003008DF00AF
:1008A000B11D572C78202F08E2003008E1004330BA
:1008B00099001A30BA005530840000089900840A63
:1008C000C025BA0B5D2C2A281C2578202F08EE00A5
:1008D0003008ED00CD25392CC625BC002F26311D52
:1008E000892CBB01A901AA013210331823257820D5
:1008F0002F083C06031D8B2C3008FF3A031D8B2C60
:10090000BB0B752C230829060319892C423099004A
:10091000752C59301D29331C8F2C4330321E4E301C
:100920001D293726311DA32CA901AA0185203008D5
:10093000FF3A031DA52C27082906031D962C28081D
:100940002A06031D962C59301D294E301D29000002
:10095000A02887258F25BF24CD250230B0257F30E4
:10096000AD00FE30AE00A025BF24CD250330B0255C
:100970007F30AD00FE30AE00A025BF241C29013021
:10098000B02509260730B02509260830B0252A26CB
:100990000130B02509260730B02509260800872533
:1009A0000930B0252A261C2987250930B0252A269A
:1009B0000B30B0252A261C292A263C30CE00CF0138
:1009C0000430D00089260C30502780306F2700304B
:1009D0006F270030502700306F2700306F2700301E
:1009E00050272A262A26CD251C2987251F30B025E9
:1009F0002A261C291C2578202F08990030081D293B
:100A0000C625AB00C625AC00C625CA00C625CB004E
:100A10001C254C20B11C0E2D43301D29B31C1C2954
:100A2000CD2587258F254A08AB004B08AC004C200C
:100A3000B11C1C2946301D29AA01A9019525232591
:100A4000321E1E2D0800321223032906031D080042
:100A5000FF302A0603193216080037250830B02562
:100A6000080037251830B11B0830B02508002C08C5
:100A7000AE002B08AD000310AE0DAD0D0230B02559
:100A8000A0250800B1140430B0256A252F082B06D4
:100A9000031D080030082C060319B1100800AE0031
:100AA0003F30AD000330B0250310AE0DAD0DA025D5
:100AB0000830B0250800AE003F30AD000330B0254F
:100AC0000310AE0DAD0DA0251830B0250B26173044
:100AD000B025080083160614831200001030B900F8
:100AE0008616000086120000031006180314AF0CCF
:100AF000B00CB90B702D061083160610831203106C
:100B0000AF0CB00C3F30311A0F30AF050800003089
:100B1000B0257F30AD00FE30AE00A02508000730C4
:100B2000BE009525BE0B912D08000630B025AA0FFA
:100B30000800A90A08000630B02532143116080052
:100B40001030B900AD0CAE0C86160318AA2D0000AB
:100B50000610AC2D0614AC2D8612B90BA22D080080
:100B6000B5000630B600B50C86160318BA2D000085
:100B70000610BC2D0614BC2D8612B60BB32D080032
:100B800083160000981CC12D831208008301000009
:100B90008C1EC72D1A08B400080031140612121159
:100BA0008316051683122A26A828EC25E22DEC25AB
:100BB000F125E22DEC25F125E22DF125EC25E22DA4
:100BC000F125EC253118EA2D8613E62D0617E82DC0
:100BD00056301D29311008000616B31D2A26162688
:100BE000080012152A2683160512831205122226E2
:100BF0000800061212118316051683122226061308
:100C0000012E8617032E76301D290B260E30B025B7
:100C1000080001300C2E2108B7003030B800B80BA6
:100C20000F2EB70B0D2E0800000008001B261B26F8
:100C30001B261B261B2608001930BF002226BF0BCF
:100C40001E2E0800B8011830B700B80B252EB70BC0
:100C5000252E0800222622262226222608003115CB
:100C60002308031D08002408031931110800311559
:100C70002708031D08002808031931110800553002
:100C80008400FF308000840A6F300406031D412E6B
:100C9000080031113F30311A0F302B06031D0800B8
:100CA0002C08FF3A0319311508005E26C226D00130
:100CB000CF01CE018926D40132140800331D08006B
:100CC0003C30CE00CF010630D00089260C305027B2
:100CD00000306F2700306F2708000D30702E0F3066
:100CE00050272C086F272B086F2797250800D00165
:100CF000CF01CE01A901AA018926321408003030A3
:100D0000822E2030CE00CF01D0018926A901AA0170
:100D100008000030502750086F270E306F27003032
:100D20005027F6306F276E306F27003050274F085E
:100D30006F270E306F2700305027F7306F276E3047
:100D40006F27003050274E086F270E306F27003076
:100D50005027F8306F276E306F270800502700307B
:100D60006F278316061483120830B90086161426DE
:100D700086121426031006180314D30CB90BB62ED2
:100D80005308080000305027A6306F278E306F2799
:100D900000305027A6306F279C306F2708000030A6
:100DA0005027A6306F279E306F2700305027A6307F
:100DB0006F279C306F270030502700306F270E3090
:100DC0006F2700305027A9306F276E306F273214FD
:100DD0000800CC00003050274C086F270E306F27DA
:100DE00000305027A8306F276E306F270030502713
:100DF000A6306F2784306F270030502755306F277B
:100E00000E306F2700305027A7306F276E306F27C6
:100E100000305027AA306F270E306F270030502740
:100E2000A7306F276E306F2700305027A6306F270E
:100E300082306F270030502703016F2703016F278F
:100E40000030502732300C2603016F2703016F2733
:100E500000305027A6306F2794306F2748279725FA
:100E6000080000305027A6306F2780306F270030F1
:100E70005027A8306F2750306F2700305027F530AB
:100E80006F276E306F270230AE26482753080800C0
:100E900000305027A9306F272A306F270800B1167D
:100EA000D1001426861614268316061083121426E3
:100EB0000430B9000610D10C031806141426861647
:100EC0001426B11E672F390B672F0B26B11286121D
:100ED0001426B90B5A2FDE30860514260800D100DF
:100EE0000830B900DE308605D10C0318061414262C
:100EF0008616142686121426B90B722FDE3086054C
:100F000014260800103085008430860083161730C0
:100F10008500023086008312080018121A081A0889
:100F20001A081816080000301D29831608309B0087
:100F3000A1279900A1279900C025A1279900A127E1
:100F40001D2983161C141A089B0A831208005530A9
:100F50008400C6258000840A6D300406031DA92F75
:060F60005530840008007A
:02400E002A0383
:10420000500072006F0074006F003A002000200020
:084210005000300031003300C2
:00000001FF
