:02000000B7281F
:08000800FF00030E8301F1006B
:100010000408F200700884001A088000840AF00ABC
:100020008C1A0C286F181928C030040603196F1594
:100030001D28E03004060319EF1572088400710EC4
:100040008300FF0E7F0E090050309900B101B2010C
:10005000EF018501A6253408193C031CAF2834089C
:1000600082072928D128AD28FF28A628CF2DAE2D1C
:1000700017297F299C29E02C9E29B2299028DA2C67
:10008000872C4C2C712C7128D528E728582F5A2FF3
:10009000BC2AED2B20088207AF28C429C4291E2AB8
:1000A000DE29E129F929012AF929092A1E2A20082D
:1000B0008207AF28302A302A422AAF28AF28392AAF
:1000C000AF28392A422A422A20088207AF284B2A21
:1000D0004B2AF62AF82A092B2B2B2B2B2B2B472BC1
:1000E000652B20088207AF28682A822A2008820709
:1000F000AF28AA2BAA2BB72BB42BB72BB72BB72B18
:10010000B72BB72BB72B20088207AF28BC2BBC2BF3
:10011000C22BAF28AF28C22BAF28C22BC22BC22BB9
:10012000082620088207AF28C72BC72B0A2C0C2CC7
:10013000192C192C192C442C192C192C3D08820728
:10014000892CAF2CB42CB02CBC2CD52C22088207C7
:10015000B22DB42DB72DBA2DBD2DA625FD281F30EB
:100160008605A6253F3099003F309900B6284827DC
:1001700007309F00831612309900243098008312B4
:1001800090309800F32542309900023099004827BA
:10019000B101A6255030340603192428D12858303F
:1001A000D228513099001A08C7284130990085108B
:1001B000F325F325F3258514E325051DD7288510A0
:1001C000051183160511831259309900C72883162B
:1001D00005158312413099008510F325F325F32589
:1001E0008514D8250519EC288510051183160511ED
:1001F000831259309900C728593099002928A6251B
:10020000A300A625A400A625A700A625A800A6252C
:10021000A000A625B300A625A100A625A200A6251C
:10022000BD00A625C600A625C7004930FD28A62585
:10023000A500A625A600A901AA013210EF01A03051
:10024000F000522783168C168312C0308B00593071
:1002500099006F1D29296F14EF1159309900A030B2
:1002600084000008AB00840A0008AC00840A4A201D
:10027000B118642929082506031D42292A082606E3
:1002800003197729EF185429C0300406031D3129BA
:10029000EF1D4829EF14C03084006F10A030F0002B
:1002A0006F11593099003129E0300406031D3129BE
:1002B0006F1D5829EF10A03084006F14C030F0007B
:1002C000EF1159309900312983168C1283128B015A
:1002D000F32552274E309900A025290899002A08B5
:1002E0009900A0252F08990030089900CF2D83167A
:1002F0008C1283128B01F32552275030FD28A6253E
:10030000A500A625A600A901AA013210593099001E
:100310008C1E88291A08AB008C1E8C291A08AC0088
:1003200029082506031D98292A0826060319772976
:1003300059309900572088296C276428A901AA01FF
:1003400032108C1A29287620A0252F089900300811
:10035000990029082306031DA1292A082406031D44
:10036000A1292928A901AA0132108C1A2928832041
:10037000A0253008990029082706031DB5292A0859
:100380002806031DB5292928321C1E265408033AC5
:100390000319CD29D40A362608003826003018273C
:1003A00003013727030137270830D007031CDB2957
:1003B000CF0A0319CE0A5226D4010800321C7B252D
:1003C000E12912263119F729C801C9010D25D425C3
:1003D000C80A4708C9072225B11CF3294608480660
:1003E000031DE629F7290D25D425C90BF329752509
:1003F000080012263119FF290D25DA252225752539
:10040000080012263119072A0D25D4252225752525
:100410000800122631191C2A1125DA25B11F192AC4
:10042000DA25DA25DA25DA25DA25DA25DA25DA25D4
:10043000DA2517309025222575250800321C242640
:1004400017255408033A0319282AD40A75250800E9
:1004500018309025DA25173090257525D40108002D
:100460003218342A982632142B08B2262C08B226C9
:1004700008002B082F25DA2575252C082F25DA25CD
:10048000752508002B083B25DA2575252C083B250A
:10049000DA25752508008B264A265708AC0058082F
:1004A000AB0036265908AC005A08AB0036265B086C
:1004B000AC005C08AB0036265D08AC005E08AB0003
:1004C0003826003018270301372703013727FC2877
:1004D0006C278B229B229B229B229B229B220230F9
:1004E00084073030CE00CF010C30D00052269B2242
:1004F000043084023030CE00CF010A30D0005226C2
:100500009B22FC286C2727268B220730D2009B22B7
:10051000D20B872AFC2800301927A63037278E30C7
:10052000372700301927A63037278C303727482641
:100530005F30840008000008AC00840A0008AB00AB
:10054000840A38260030182703013727030137278C
:1005500000301927F63037272A3037273826003061
:100560001827030137270301372700301927F630F2
:1005700037272A3037270800A625C300A625C40040
:10058000A625C50027268B262030CE00CF01283097
:10059000D00052264508AC00EF30AB0036264408A8
:1005A000AC004308AB003626FF30AC00AB0036266B
:1005B000FF30AC00AB003826003018270301372786
:1005C00003013727F325F72341084506031DF42AC5
:1005D0004208EF3A031DF42A40084406031DF42A9A
:1005E0003F0843060319FC284E30FD28B115652B42
:1005F0005F3084006008AB005F08AC006430C90065
:100600000D25D425C90B002B2225FF30B118003051
:10061000FD286725573084000008AC00AB014A2054
:10062000B118292B840A5B300406031D0C2B752599
:10063000752575255F3084006008AB005F08AC004D
:100640006430C9000D25D425C90B222B2225FF308B
:10065000B1180030FD286725573084000008AC0031
:10066000AB014A20B118452B840A5B300406031DF8
:100670002E2B7525752575255F3084006008AB002D
:100680005F08AC004A20FF30B1180030FD28672514
:10069000573084000008AC00AB014A20B118632B2E
:1006A000840A5B300406031D4A2B752575257525C4
:1006B0005F3084006008AB005F08AC00B1174A20CF
:1006C000B113FF30B1180030FD28321067255730C4
:1006D00084000008AC00AB014A20840A5B300406A9
:1006E000031D692B672557308400B72300083006A7
:1006F000031D902B840A5B300406031D752B7525A2
:10070000752575255F3084009223311D902BB11D16
:100710008E2B7525840A9223311D902BFF30FD28E6
:100720000030FD280008AC00840A0008AB008403F8
:10073000172518309025DA2517309025B723311169
:1007400000082C06031D0800840A00082B06031964
:1007500031150800321C402609307726B0000930D8
:100760007726AF0077250800321C7B25B72B043095
:1007700090254A2575250800321C9826FA26B000D7
:1007800077250800053090254A25752508003F305B
:10079000CE00FF30CF00FE30D00052260930772641
:1007A000D50009307726D6004A2657308400083015
:1007B000D200093077268000840AD20BD92B482634
:1007C0000730D200093077268000840A0930772666
:1007D0008000840AD20BE22B372CF72342089900C1
:1007E0003F089900A025400899004108FD282830BD
:1007F000D000CF012030CE00522609307726C1002C
:1008000009307726C20009307726C00009307726E4
:10081000BF000800B115192C321476202F08E00013
:100820003008DF00FC2476202F08EE003008ED00B1
:10083000372C6725573084000430BA007620300802
:100840008000840ABA0B1E2C7620762076202F0892
:10085000D6003008D50076202F08E0003008DF00F1
:10086000B11D372C76202F08E2003008E10043301C
:1008700099001A30BA005530840000089900840AA3
:10088000A025BA0B3D2C2928FC2476202F08EE0049
:100890003008ED00AD25192CA625BC00F825311D2A
:1008A000692CBB01A901AA01321033180325762057
:1008B0002F083C06031D6B2C3008FF3A031D6B2CE0
:1008C000BB0B552C230829060319692C42309900CB
:1008D000552C5930FD28331C6F2C4330B21D4E303F
:1008E000FD280026311D832CA901AA018320300890
:1008F000FF3A031D852C27082906031D762C28089E
:100900002A06031D762C5930FD284E30FD280000A4
:100910009E2867256F259F24AD25023090257F30C6
:10092000AD00FE30AE0080259F24AD25033090251C
:100930007F30AD00FE30AE0080259F24FC280130C2
:100940009025D82507309025D82508309025F32507
:1009500001309025D82507309025D8250800672537
:1009600009309025F325FC28672509309025F325CB
:100970000B309025F325FC28F3253C30CE00CF0129
:100980000430D00052260C30192780303727003031
:10099000372700301927003037270030372700303D
:1009A0001927F325F325AD25FC2867251F30902551
:1009B000F325FC28FC2476202F0899003008FD2818
:1009C000A625AB00A625AC00A625CA00A625CB000F
:1009D000FC244A20B11CEE2C4330FD28B31CFC281B
:1009E000AD2567256F254A08AB004B08AC004A20AF
:1009F000B11CFC284630FD28AA01A9017525032554
:100A0000B21DFE2C0800B21123032906031D0800A5
:100A1000FF302A060319B215080017250830902563
:100A2000080017251830B11B0830902508002C0845
:100A3000AE002B08AD000310AE0DAD0D02309025B9
:100A400080250800B114043090254A252F082B0674
:100A5000031D080030082C060319B1100800AE0071
:100A60003F30AD00033090250310AE0DAD0D802555
:100A7000083090250800AE003F30AD0003309025CF
:100A80000310AE0DAD0D802518309025DA251730F6
:100A90009025080083160514831200001030B90059
:100AA0008514000085100000031005180314AF0C16
:100AB000B00CB90B502D05108316051083120310CE
:100AC000AF0CB00C3F30311A0F30AF0508000030CA
:100AD00090257F30AD00FE30AE0080250800073045
:100AE000BE007525BE0B712D080006309025AA0F9B
:100AF0000800A90A080006309025321431160800B3
:100B00001030B900AD0CAE0C851403188A2D00000E
:100B100005108C2D05148C2D8510B90B822D080025
:100B2000B5000630B600B50C851403189A2D0000E8
:100B300005109C2D05149C2D8510B60B932D0800D7
:100B400083160000981CA12D831208008301000069
:100B50008C1EA72D1A08B400080031141F3086051A
:100B6000F325A628C525BF2DC525CA25BF2DC5251A
:100B7000CC25BF2DCA25C525BF2DCC25C5253118AF
:100B8000C32D5630FD28311008008616B31DF325FD
:100B9000E32508000617CD2D8617EB2508001F302A
:100BA0008605EB257630FD28DA250E3090250800E5
:100BB0000130DB2D2108B7003030B800B80BDE2D36
:100BC000B70BDC2D0800E825E825E825E825E82511
:100BD000080000000800B8011830B700B80BEE2D6F
:100BE000B70BEE2D0800EB25EB25EB25EB250800D8
:100BF00031152308031D08002408031931110800CA
:100C000031152708031D08002808031931110800B1
:100C100055308400FF308000840A6F300406031DC5
:100C20000A2E080031113F30311A0F302B06031DF8
:100C300008002C08FF3A03193115080027268B26D7
:100C4000D001CF01CE015226D40132140800331D49
:100C500008003C30CE00CF010630D00052260C30C8
:100C60001927003037270030372708000D30392E7C
:100C70000F3019272C0837272B083727772508002E
:100C8000D001CF01CE01A901AA01522632140800D9
:100C900030304B2E2030CE00CF01D0015226A9019A
:100CA000AA01080000301927500837270E303727CF
:100CB00000301927F63037276E30372700301927D4
:100CC0004F0837270E30372700301927F7303727DE
:100CD0006E303727003019274E0837270E30372758
:100CE00000301927F83037276E30372708001927CA
:100CF000003037278316051483120830B900851495
:100D0000E9258510E925031005180314D30CB90B48
:100D10007F2E5308080000301927A63037278E3061
:100D2000372700301927A63037279C30372708008F
:100D300000301927A63037279E3037270030192773
:100D4000A63037279C303727003019270030372747
:100D50000E30372700301927A93037276E30372754
:100D600032140800CC00003019274C0837270E3009
:100D7000372700301927A83037276E303727003043
:100D80001927A630372784303727003019275530E8
:100D900037270E30372700301927A73037276E3016
:100DA000372700301927AA3037270E303727003071
:100DB0001927A73037276E30372700301927A6307C
:100DC00037278230372700301927030137270301DF
:100DD0003727003019273230DB250301372703017D
:100DE000372700301927A6303727943037271127A7
:100DF0007725080000301927A6303727803037279D
:100E000000301927A83037275030372700301927EE
:100E1000F53037276E3037270230772611275308F1
:100E2000080000301927A93037272A303727080053
:100E3000B116D100E9258514E92583160510831222
:100E4000E9250430B9000510D10C03180514E92573
:100E50008514E925B11E302F390B302FDA25B11258
:100E60008510E925B90B232F8501E9250800D1005C
:100E70000830B9008501D10C03180514E925851443
:100E8000E9258510E925B90B3A2F8501E9250800E8
:100E90008501043086008316043085000230860008
:100EA0008312080018121A081A081A0818160800DF
:100EB0000230FD28831608309B00662799006627BC
:100EC0009900A025662799006627FD2883161C1423
:100ED0001A089B0A8312080055308400A62580005A
:100EE000840A6D300406031D6E2F553084000800FF
:02400E002A0383
:10420000500072006F0074006F003A002000200020
:084210005000300031003300C2
:00000001FF
