:040000004E26C92897
:08000800FF00030E8301F1006B
:100010000408F200700884001A088000840AF00ABC
:100020008C1A0C286F181928C030040603196F1594
:100030001D28E03004060319EF1572088400710EC4
:100040008300FF0E7F0E090050309900B501B60104
:10005000EF01850106263708193C031CC228370822
:1000600082072928E328C0280A29B428332E0E2E17
:1000700015297C2999291A2D9B29AF299A28BC2C4E
:10008000812CA62C7728E728F728A32FA52F002B53
:10009000F02B362D24088207C129C129C129162A2F
:1000A000DA29DD29F529FD29F529052A162A282A24
:1000B000FD29240882072B2A2B2A2B2A3D2AC22815
:1000C000C228342AC228342A3D2A3D2AC228C228FE
:1000D00024088207462A462A462A392B3B2B482BDE
:1000E000562B562B562B5F2B6A2B832B8D2B2408DC
:1000F0008207622A722A8C2A24088207AA2BAA2B3A
:10010000AA2BB72BB42BB72BB72BB72BB72BB72BEF
:10011000B72BBC2BB72B24088207BF2BBF2BBF2BC1
:10012000C52BC228C228C52BC228C52BC52BC52B61
:10013000C228C2286B2624088207CA2BCA2BCA2BC6
:100140000D2C0F2C1D2C1D2C1D2C4B2C1D2C1D2C57
:10015000532C662C28088207BE2CE42CEA2CE52CB4
:10016000F22C092D0E2D142D8316043085008312D8
:100170004E2627088207112E132E172E1B2E1F2EF8
:1001800006260829932706263F3099003F3099001C
:10019000C828932707309F00831612309900243017
:1001A0009800831290309800562642309900033010
:1001B00099009327B50106265030370603192428E5
:1001C000E3285830E428513099001A08D9284130E2
:1001D00099008316851083128510562656265626BA
:1001E00085144626051DEC2859309900D928413040
:1001F000990083168510831285105626562656269A
:1002000085143B260519FC2859309900D928593006
:10021000990029280B30C100203084000626800078
:10022000840AC10B0E29493008290626AB00062690
:10023000AC00AD01AE013610EF01A030F0009D27FB
:1002400083168C168312C0308B00593099006F1DB5
:1002500027296F14EF1159309900A030840000084D
:10026000AF00840A0008B000840A4A20B518622949
:100270002D082B06031D40292E082C06031974296E
:10028000EF185229C0300406031D2F29EF1D4629FF
:10029000EF14C03084006F10A030F0006F1159309F
:1002A00099002F29E0300406031D2F296F1D5629C0
:1002B000EF10A03084006F14C030F000EF115930FF
:1002C00099002F2983168C1283128B0156269D27A5
:1002D0004E30990000262D0899002E08990000261E
:1002E000330899003408082983168C1283128B0175
:1002F00056269D27503008290626AB000626AC005E
:10030000AD01AE013610593099008C1E85291A08AE
:10031000AF008C1E89291A08B0002D082B06031D7A
:1003200095292E082C060319742959309900592053
:100330008529B7276828AD01AE0136108C1A292807
:100340007C20002633089900340899002D082006E7
:10035000031D9E292E082106031D9E292928AD0173
:10036000AE0136108C1A29288B20002634089900FB
:100370002D082206031DB2292E082306031DB229CB
:100380002928361C81265408033A0319CA29D40A9D
:10039000992608009B2662270301822703018227F2
:1003A0000830D007031CD729CF0A0319CE0AB52677
:1003B000D4010800361CD225DD2975263519F3290C
:1003C000C801C90164253726C80A2A08C907792542
:1003D000B51CEF2929084806031DE229F3296425E5
:1003E0003726C90BEF29CC25080075263519FB29BE
:1003F00064253D267925CC25080075263519032A64
:10040000642537267925CC25080075263519142A48
:1004100068253D26B51F112A0830C1003D26C10BB5
:100420000E2A1730F0257925CC250800361C8726A2
:100430006E255408033A0319202AD40ACC25080053
:100440001830F0253D261730F025CC25D4010800C2
:10045000361CD225FD2936182F2AF32636142F08EC
:1004600009273008092708002F0886253D26CC25B6
:10047000300886253D26CC2508002F0892253D26EC
:10048000CC25300892253D26CC250800E826AD264F
:100490005708B0005808AF0099265908B0005A080C
:1004A000AF0099265B08B0005C08AF0099265D0894
:1004B000B0005E08AF009B2662270301822703017C
:1004C00082270729B7279522DF220230DA2204305B
:1004D000DA220630DA220830DA220C30DA220A3048
:1004E000DA220729B7279522BD22BD22BD22BD22CF
:1004F000BD22023084073030CE00CF010C30D00056
:10050000B526BD22043084023030CE00CF010A303F
:10051000D000B526BD220729B7278A2695220730A5
:10052000D200BD22D20B912A07296027A63082274C
:100530008E3082276027A63082278C308227AB2618
:100540005F3084000800B7279522BD22BD22BD225E
:10055000BD22BD22023084073030CE00CF010C30E6
:10056000D000B526BD22043084023030CE00CF0149
:100570000A30D000B526BD2207290008B000840A41
:100580000008AF00840A9B2662270301822703012B
:1005900082276027F63082272A3082279B2662270F
:1005A00003018227030182276027F63082272A3041
:1005B00082270800D0003030CE00CF01B5260008D9
:1005C000B000840A0008AF00840A9B26622703015A
:1005D0008227030182276027F63082272A3082276C
:1005E0009B26622703018227030182270430C10072
:1005F00060270301822703018227C10BF82A080024
:100600000626C5000626C6000626C7008A26E82656
:100610002030CE00CF012830D000B5264708B000EA
:10062000EF30AF0099264608B0004508AF00992684
:10063000FF30B000AF009926FF30B000AF009B261E
:10064000622703018227030182275626FA234308E3
:100650004706031D372B4408EF3A031D372B42088A
:100660004606031D372B41084506031907294E305E
:100670000829B5156A2B5F3084006008AF005F0859
:10068000B0006430C90064253726C90B432B072905
:100690009A235F3084006008AF005F08B0006430C8
:1006A000C90064253726C90B512B07299A235F30CF
:1006B00084006008AF005F08B0004A2007299A2331
:1006C0005F3084006008AF005F08B000B5174A20B3
:1006D000B513072936109A235F3084007623B51DA1
:1006E0000729CC2561308400762307290008B00053
:1006F000840A0008AF0084036E251830F0253D26DB
:100700001730F0250800361435166008AF005F0872
:10071000B0004A20D8259B2307296008AF005F0856
:10072000B0004A205325CC25CC25CC25CC25CC2582
:100730009B230729BE25573084000008B000AF0175
:100740004A20840A5B300406031D9D2BCC25CC2552
:10075000CC250800361CA3260930D426B400093065
:10076000D426B300CE250800361CD225B72B043082
:10077000F025A125CC250800361CD225B72B361C28
:10078000F3264627B400CE2508000530F025A12524
:10079000CC2508003F30CE00FF30CF00FE30D00027
:1007A000B5260930D426D5000930D426D600AD268A
:1007B000573084000830D2000930D4268000840AE3
:1007C000D20BDC2BAB260730D2000930D4268000B8
:1007D000840A0930D4268000840AD20BE52B3E2CF3
:1007E000FA2344089900410899000026420899001C
:1007F000430808292830D000CF012030CE00B5268C
:100800000930D426C3000930D426C4000930D426C8
:10081000C2000930D426C1000800B5151D2C3614BD
:1008200035167C203308E0003408DF0053257C2097
:100830003308EE003408ED003E2CBE25573084000E
:100840000430BD007C2034088000840ABD0B222CBB
:100850007C207C207C203308D6003408D5007C2006
:100860003308E0003408DF007C203308E20034085D
:10087000E1007C203308E4003408E30043309900B1
:100880001A30BD005530840000089900840A002603
:10089000BD0B442C292853257C203308EE00340856
:1008A000ED000D261D2C361435167C203308E00093
:1008B0003408DF00D825573084000430BD007C2088
:1008C00034088000840ABD0B5F2C3E2C7C2033084A
:1008D000E0003408DF0053257C203308EE003408A4
:1008E000ED00573084000430BD007C2034088000C7
:1008F000840ABD0B752C7C203308E2003408E1002B
:100900003E2C0626BF005B26351D9E2CBE01AD0188
:10091000AE01361025185A257C2033083F06031DEA
:10092000A02C3408FF3A031DA02CBE0B8A2C2008F3
:100930002D0603199E2C423099008A2C5930082923
:10094000251CA42C4330B61D4E3008296326351DC6
:10095000B82CAD01AE018B203408FF3A031DBA2C30
:1009600022082D06031DAB2C23082E06031DAB2CDD
:10097000593008294E3008290000AA28BE25C6256E
:10098000D4240D260230F0257F30B100FE30B200B5
:10099000E025D4240D260330F0257F30B100FE3051
:1009A000B200E025D42407290130F0253B2607308A
:1009B000F0253B260830F02556260130F0253B2651
:1009C0000730F0253B260800BE250930F0255626C5
:1009D00056260729BE250930F02556260B30F0256E
:1009E0005626072956263C30CE00CF010430D000D1
:1009F000B5260C306427803082270030822760279C
:100A000000308227003082276027562656260D2682
:100A10000729BE251F30F02556260729CC25093089
:100A2000F025562656260729D7250930F0255626C3
:100A3000562607290626AF000626B0000626CA005D
:100A40000626CB0053254A20B51C282D4330082903
:100A5000A51C07290D26BE25C6254A08AF004B0850
:100A6000B0004A20B51C0729463008290626AF00E9
:100A70000626B0000626CA000626CB00CC25532544
:100A80004A20B51C452D43300829CC25CC25CC2542
:100A9000CC25CC254A08AF004B08B0004A20B51C35
:100AA000072942300829AE01AD01CC255A25B61DD3
:100AB000552D0800B61120032D06031D0800FF3038
:100AC0002E060319B61508006E250830F02508001B
:100AD0006E251830B51B0830F02508003008B2002C
:100AE0002F08B1000310B20DB10D0230F025E02542
:100AF0000800B5140430F025A12533082F06031D86
:100B00000800340830060319B5100800B2003F3061
:100B1000B1000330F0250310B20DB10DE02508300F
:100B2000F0250800B2003F30B1000330F02503107B
:100B3000B20DB10DE0251830F0253D261730F02517
:100B4000080083160514831200001030BC008514C1
:100B5000000085100000031005180314B30CB40C3A
:100B6000BC0BA72D05108316051083120310B30CC0
:100B7000B40C3F30351A0F30B30508000030F025B3
:100B80007F30B100FE30B200E02508000730C00021
:100B9000CC25C00BC82D08000630F025AE0F08008C
:100BA000AD0A080035160630F02536140800CC25AD
:100BB000AD01AE01CC252D082006031DDA2D08005D
:100BC0001030BC00B10CB20C85140318EA2D0000E3
:100BD0000510EC2D0514EC2D8510BC0BE22D080042
:100BE000B8000630B900B80C85140318FA2D0000BF
:100BF0000510FC2D0514FC2D8510B90BF32D0800F4
:100C000083160000981C012E831208008301000047
:100C10008C1E072E1A08B700080035149327562695
:100C2000B4282D26222E2D2629262F26222E2D26AB
:100C300029263126222E2F2629262D26222E312620
:100C400029262D263518262E5630082935104E26F1
:100C50000800A51D4E264626080086160800061721
:100C600008008617080093274E26763008293D266F
:100C70000E30F025080001303E2E2608BA00303034
:100C8000BB00BB0B412EBA0B3F2E08004B264B2658
:100C90004B264B264B26080000000800BB011030F5
:100CA000BA00BB0B512EBA0B512E08004E264E2611
:100CB0004E264E26080035152008031D0800210881
:100CC00003193511080035152208031D08002308F3
:100CD00003193511080055308400FF308000840A64
:100CE0006F300406031D6D2E080035113F30351A94
:100CF0000F302F06031D08003008FF3A0319351581
:100D000008008A26E826D001CF01CE01B526D401FD
:100D100036140800251D08003C30CE00CF010630F7
:100D2000D000B5260C30642700308227003082279F
:100D300008000D309C2E0F306427300882272F08C2
:100D40008227CE250800D001CF01CE01AD01AE0132
:100D5000B526361408003030AE2E2030CE00CF013C
:100D6000D001B526AD01AE010800602750088227EA
:100D70000E3082276027F63082276E308227602768
:100D80004F0882270E3082276027F73082276E3087
:100D9000822760274E0882270E3082276027F8308E
:100DA00082276E308227080064270030822783164E
:100DB000051483120830BC0085144C2685104C267F
:100DC000031005180314D30CBC0BDC2E53080800C9
:100DD0006027A63082278E3082276027A6308227A0
:100DE0009C30822708006027A63082279E30822709
:100DF0006027A63082279C30822760270030822718
:100E00000E3082276027A93082276E308227361461
:100E10000800CC0060274C0882270E30822760270C
:100E2000A83082276E3082276027A6308227843040
:100E300082276027553082270E3082276027A7300F
:100E400082276E3082276027AA3082270E308227C1
:100E50006027A73082276E3082276027A63082273E
:100E600082308227602703018227030182276027BF
:100E700032303E2603018227030182276027A630F5
:100E80008227943082275A27CE2508006027A63073
:100E90008227803082276027A8308227503082271F
:100EA0006027F53082276E3082270230D4265A27F9
:100EB000530808006027A93082272A3082270800BB
:100EC0000301642F0301B516D1004C2685144C266E
:100ED0008316051083124C260430BC000510D10C7B
:100EE000031805144C2685144C26B51E7B2F3C0B8D
:100EF0007B2F3D26B51285104C26BC0B6E2F85012D
:100F00004C260800D1000830BC008501D10C031824
:100F100005144C2685144C2685104C26BC0B852FB9
:100F200085014C26080085010430860083160730B1
:100F30008500023086008312080018121A081A0869
:100F40001A081816080003300829831608309B0079
:100F5000B1279900B12799000026B1279900B12740
:100F6000082983161C141A089B0A8312080055309E
:100F7000840006268000840A6D300406031DB92F04
:060F80005530840008005A
:02400E002A3F47
:10420000500072006F0074006F003A002000200020
:084210005000300031003800BD
:00000001FF
