:040000008426D42856
:08000800FF00030E8301F1006B
:100010000408F200700884001A088000840AF00ABC
:100020008C1A0C286F181928C030040603196F1594
:100030001D28E03004060319EF1572088400710EC4
:100040008300FF0E7F0E090050309900B501B60104
:10005000EF01CC27DE30860525263708193C031C26
:10006000C428370882072A280229C2282B29B62843
:100070005A2E2D2E36299D29BA29392DBC29D02951
:100080009C28DC2CA12CC62C792806291729DD2FC9
:10009000DF2F212B112C552D24088207E229E2297C
:1000A000E229372AC428C428162A1E2A162A262AF4
:1000B000372A492A1E2A240882074C2A4C2A4C2A0D
:1000C0005E2AC428C428552AC428552A5E2A5E2AD6
:1000D000C428C42824088207672A672A672A5A2B5B
:1000E000C428C428772B772B772B802B8B2BA42B22
:1000F000AE2B24088207832A932AAD2A240882077C
:10010000CB2BCB2BCB2BD82BC428C428D82BD82B2C
:10011000D82BD82BD82BDD2BD82B24088207E02B0B
:10012000E02BE02BE62BC428C428E62BC428E62BC2
:10013000E62BE62BC428C428A12624088207EB2B33
:10014000EB2BEB2B2E2CC428C4283D2C3D2C6B2CE8
:100150003D2C3D2C732C862C28088207DE2C042D88
:10016000092D052D112D282D2D2D332D831602300F
:1001700086008312842627088207352E372E372ED5
:100180003C2E3C2E2526292906121211831605160F
:100190008312CC270613CC288617CE2825263F307D
:1001A00099003F309900D328CC278316123099004C
:1001B0002430980083129030980036309F008316C8
:1001C0009530920083124B309500003092000C3035
:1001D0009700842642309900053099008613F02854
:1001E0000617F2287E260613F5288617F7287E269E
:1001F000CC27B501252650303706031924280229BB
:1002000058300329513099001A08F82841309900D4
:10021000831612308600831286128C268C268C263A
:1002200086167826061E0C2959309900F828413088
:100230009900831612308600831286128C268C2633
:100240008C2686167826061A1D2959309900F8281A
:10025000593099002A280B30C1002030840025260F
:100260008000840AC10B2F29493029292526AB009B
:100270002526AC00AD01AE013610EF01A030F00034
:10028000D72783168C168312C0308B005930990003
:100290006F1D48296F14EF1159309900A030840068
:1002A0000008AF00840A0008B000840A4C20B5188A
:1002B00083292D082B06031D61292E082C060319FE
:1002C0009529EF187329C0300406031D5029EF1D2E
:1002D0006729EF14C03084006F10A030F0006F1158
:1002E000593099005029E0300406031D50296F1D34
:1002F0007729EF10A03084006F14C030F000EF11A8
:1003000059309900502983168C1283128B018C2648
:10031000D7274E3099001F262D0899002E089900E6
:100320001F26330899003408292983168C1283125A
:100330008B018C26D727503029292526AB0025266E
:10034000AC00AD01AE013610593099008C1EA629C3
:100350001A08AF008C1EAA291A08B0002D082B0617
:10036000031DB6292E082C0603199529593099002A
:100370005B20A629F1276A28AD01AE0136108C1A40
:100380002A287E201F2633089900340899002D085A
:100390002006031DBF292E082106031DBF292A2878
:1003A000AD01AE0136108C1A2A288D201F26340884
:1003B00099002D082206031DD3292E082306031DAC
:1003C000D3292A28361CB7265408033A0319EB29E7
:1003D000D40ACF260800D12698270301B9270301A4
:1003E000B9270830D007031CF829CF0A0319CE0A11
:1003F000EB26D4010800361CF125FE29AB26351961
:10040000142AC801C90183256726C80A2A08C90712
:100410009825B51C102A29084806031D032A142A0A
:1004200083256726C90B102AEB250800AB26351952
:100430001C2A83256D269825EB250800AB26351947
:10044000242A832567269825EB250800AB26351935
:10045000352A87256D26B51F322A0830C1006D2642
:10046000C10B2F2A17300F269825EB250800361CC4
:10047000BD268D255408033A0319412AD40AEB25D9
:10048000080018300F266D2617300F26EB25D401F3
:100490000800361CF1251E2A3618502A2927361442
:1004A0002F083F2730083F2708002F08A5256D2675
:1004B000EB253008A5256D26EB2508002F08B12572
:1004C0006D26EB253008B1256D26EB2508001E278B
:1004D000E3265708B0005808AF00CF265908B000EF
:1004E0005A08AF00CF265B08B0005C08AF00CF26EB
:1004F0005D08B0005E08AF00D12698270301B92738
:100500000301B9272829F127B62200230230FB2254
:100510000430FB220630FB220830FB220C30FB2289
:100520000A30FB222829F127B622DE22DE22DE2233
:10053000DE22DE22023084073030CE00CF010C30C4
:10054000D000EB26DE22043084023030CE00CF0112
:100550000A30D000EB26DE222829F127C026B62259
:100560000730D200DE22D20BB22A28299627A630E5
:10057000B9278E30B9279627A630B9278C30B927EE
:10058000E1265F3084000800F127B622DE22DE2259
:10059000DE22DE22DE22023084073030CE00CF01A0
:1005A0000C30D000EB26DE22043084023030CE0046
:1005B000CF010A30D000EB26DE2228290008B00047
:1005C000840A0008AF00840AD12696270301B927C0
:1005D0000301B9279627F630B9272A30B927D12643
:1005E00098270301B9270301B9279627F630B927C1
:1005F0002A30B9270800D0003030CE00CF01EB26DA
:100600000008B000840A0008AF00840AD1269827A9
:100610000301B9270301B9279627F630B9272A30F5
:10062000B927D12698270301B9270301B927043038
:10063000C10096270301B9270301B927C10B192B64
:1006400008002526C5002526C6002526C700C02689
:100650001E272030CE00CF012830D000EB264708DF
:10066000B000EF30AF00CF264608B0004508AF001D
:10067000CF26FF30B000AF00CF26FF30B000AF0074
:10068000D12698270301B9270301B9278C261B24FB
:1006900043084706031D582B4408EF3A031D582B07
:1006A00042084606031D582B410845060319282910
:1006B0004E302929B5158B2B5F3084006008AF00C0
:1006C0005F08B0006430C90083256726C90B642B1E
:1006D0002829BB235F3084006008AF005F08B000AA
:1006E0006430C90083256726C90B722B2829BB23D8
:1006F0005F3084006008AF005F08B0004C202829FC
:10070000BB235F3084006008AF005F08B000B517FE
:100710004C20B51328293610BB235F308400972363
:10072000B51D2829EB25613084009723282900086E
:10073000B000840A0008AF0084038D2518300F260E
:100740006D2617300F260800361435166008AF00E6
:100750005F08B0004C20F725BC2328296008AF00B3
:100760005F08B0004C207225EB25EB25EB25EB252F
:10077000EB25BC232829DD25573084000008B00074
:10078000AF014C20840A5B300406031DBE2BEB2511
:10079000EB25EB250800361CD92609300A27B400C2
:1007A00009300A27B300ED250800361CF125D82BA7
:1007B00004300F26C025EB250800361CF125D82B68
:1007C000361C29277C27B400ED25080005300F26AC
:1007D000C025EB2508003F30CE00FF30CF00FE30B3
:1007E000D000EB2609300A27D50009300A27D600A9
:1007F000E326573084000830D20009300A278000F1
:10080000840AD20BFD2BE1260730D20009300A27DB
:100810008000840A09300A278000840AD20B062C43
:100820005E2C1B2444089900410899001F264208A9
:100830009900430829292830D000CF012030CE006C
:10084000EB2609300A27C30009300A27C400093003
:100850000A27C20009300A27C1000800B5153D2C3F
:1008600036147E203308E0003408DF0072257E2035
:100870003308EE003408ED005E2CDD25573084008F
:100880000430BD007E2034088000840ABD0B422C59
:100890007E207E207E203308D6003408D5007E20BE
:1008A0003308E0003408DF007E203308E20034081B
:1008B000E1007E203308E4003408E300433099006F
:1008C0001A30BD005530840000089900840A1F26A4
:1008D000BD0B642C2A2872257E203308EE003408D4
:1008E000ED002C263D2C361435167E203308E00012
:1008F0003408DF00F725573084000430BD007E2027
:1009000034088000840ABD0B7F2C5E2C7E203308C7
:10091000E0003408DF0072257E203308EE00340842
:10092000ED00573084000430BD007E203408800084
:10093000840ABD0B952C7E203308E2003408E100C8
:100940005E2C2526BF009126351DBE2CBE01AD01B3
:10095000AE013610251879257E2033083F06031D89
:10096000C02C3408FF3A031DC02CBE0BAA2C200853
:100970002D060319BE2C42309900AA2C5930292982
:10098000251CC42C4330361E4E3029299926351D8E
:10099000D82CAD01AE018D203408FF3A031DDA2CAE
:1009A00022082D06031DCB2C23082E06031DCB2C5D
:1009B000593029294E3029290000AC28DD25E525AC
:1009C000F4242C2602300F267F30B100FE30B20016
:1009D000FF25F4242C2603300F267F30B100FE3093
:1009E000B200FF25F424282901300F266B2607309A
:1009F0000F266B2608300F268C2601300F266B261B
:100A000007300F266B260800DD2509300F268C26BF
:100A10002829DD2509300F268C260B300F268C2641
:100A200028298C263C30CE00CF010430D000EB26A4
:100A30000C309A278030B9270030B927962700302C
:100A4000B9270030B92796278C268C262C262829F2
:100A5000DD251F300F268C262829EB2509300F268F
:100A60008C268C262829F62509300F268C268C26E4
:100A700028292526AF002526B0002526CA002526D0
:100A8000CB0072254C20B51C472D43302929A51CCD
:100A900028292C26DD25E5254A08AF004B08B000A3
:100AA0004C20B51C2829463029292526AF002526AB
:100AB000B0002526CA002526CB00EB2572254C2048
:100AC000B51C642D43302929EB25EB25EB25EB25BF
:100AD000EB254A08AF004B08B0004C20B51C282974
:100AE00042302929AE01AD01EB257925361E742D42
:100AF0000800361220032D06031D0800FF302E06C5
:100B00000319361608008D2508300F2608008D259C
:100B10001830B51B08300F2608003008B2002F0827
:100B2000B1000310B20DB10D02300F26FF250800F1
:100B3000B51404300F26C02533082F06031D080006
:100B4000340830060319B5100800B2003F30B10078
:100B500003300F260310B20DB10DFF2508300F260C
:100B60000800B2003F30B10003300F260310B20D71
:100B7000B10DFF2518300F266D2617300F260800FF
:100B800083160614831200001030BC008616000085
:100B900086120000031006180314B30CB40CBC0B2F
:100BA000C62D06108316061083120310B30CB40C66
:100BB0003F30351A0F30B305080000300F267F3064
:100BC000B100FE30B200FF2508000730C000EB2561
:100BD000C00BE72D080006300F26AE0F0800AD0A47
:100BE0000800351606300F2636140800EB25AD0137
:100BF000AE01EB252D082006031DF92D080010304D
:100C0000BC00B10CB20C86160318092E00000610A9
:100C10000B2E06140B2E8612BC0B012E0800B800FA
:100C20000630B900B80C86160318192E00000610FD
:100C30001B2E06141B2E8612B90B122E08008316CB
:100C40000000981C202E83120800830100008C1ED7
:100C5000262E1A08B7000800351406121211831642
:100C600005168312CC278C26B6285326402E4C26F8
:100C700053264F265526402E4C2655264F265326C2
:100C80008C263518492E8613452E0617472E5630CA
:100C9000292935108426080012158C260800A51D68
:100CA0008C26782608000616080083160512831283
:100CB0000512080006121211831605168312CC279E
:100CC00084260613632E8617652E763029296D2615
:100CD0000E300F26080001306E2E2608BA00303084
:100CE000BB00BB0B712EBA0B6F2E08000000080072
:100CF0007D267D267D267D267D2608001930C100B3
:100D00008426C10B802E0800BB011030BA00BB0B3B
:100D1000872EBA0B872E08008426842684268426F4
:100D2000080035152008031D080021080319351196
:100D3000080035152208031D080023080319351182
:100D4000080055308400FF308000840A6F300406AC
:100D5000031DA32E080035113F30351A0F302F0622
:100D6000031D08003008FF3A031935150800C02696
:100D70001E27D001CF01CE01EB26D4013614080086
:100D8000251D08003C30CE00CF010630D000EB26F8
:100D90000C309A270030B9270030B92708000D30F1
:100DA000D22E0F309A273008B9272F08B927ED2502
:100DB0000800D001CF01CE01AD01AE01EB26361403
:100DC00008003030E42E2030CE00CF01D001EB26D9
:100DD000AD01AE01080096275008B9270E30B9279B
:100DE0009627F630B9276E30B92796274F08B927CE
:100DF0000E30B9279627F730B9276E30B9279627D6
:100E00004E08B9270E30B9279627F830B9276E302B
:100E1000B92708009A270030B927831606148312D1
:100E20000830BC0086167626861276260310061831
:100E30000314D30CBC0B122F530808009627A630BE
:100E4000B9278E30B9279627A630B9279C30B92705
:100E500008009627A630B9279E30B9279627A630D6
:100E6000B9279C30B92796270030B9270E30B9270B
:100E70009627A930B9276E30B92736140800CC0060
:100E800096274C08B9270E30B9279627A830B927DE
:100E90006E30B9279627A630B9278430B927962710
:100EA0005530B9270E30B9279627A730B9276E30AD
:100EB000B9279627AA30B9270E30B9279627A73029
:100EC000B9276E30B9279627A630B9278230B927BF
:100ED00096270301B9270301B927962732306E26DA
:100EE0000301B9270301B9279627A630B927943003
:100EF000B9279027ED2508009627A630B92780301E
:100F0000B9279627A830B9275030B9279627F5304A
:100F1000B9276E30B92702300A27902753080800F6
:100F20009627A930B9272A30B927080003019A2F3C
:100F30000301B516D100762686167626831606108E
:100F4000831276260430BC000610D10C0318061458
:100F5000762686167626B51EB12F3C0BB12F6D2650
:100F6000B51286127626BC0BA42FDE3086057626B7
:100F70000800D1000830BC00DE308605D10C031813
:100F8000061476268616762686127626BC0BBC2F8D
:100F9000DE30860576260800103085008430860015
:100FA000831617308500233086008312080018123C
:100FB0001A081A081A081816080005302929831675
:100FC00008309B00EB279900EB2799001F26EB27A1
:100FD0009900EB27292983161C141A089B0A8312EF
:100FE00008005530840025268000840A6D300406F0
:0A0FF000031DF32F553084000800A4
:02400E002A3F47
:10420000500072006F0074006F003A002000200020
:084210005000300031003800BD
:00000001FF
