:02000000B62820
:08000800FF00030E8301F1006B
:100010000408F200700884001A088000840AF00ABC
:100020008C1A0C286F181928C030040603196F1594
:100030001D28E03004060319EF1572088400710EC4
:100040008300FF0E7F0E090050309900B101B2010C
:10005000EF01DE308605472534081B3C031CE228EF
:10006000340882072928E428A92815299A28782DF8
:100070004F2D2D299029AD297A2CB929CD298C28ED
:10008000742C212CE62B0B2C712AE828FD28102F2C
:10009000122FA62A902B20088207AB28AB28DF2935
:1000A000AB28AB28AB28142A1C2A142A242AAB28F4
:1000B00020088207AB28AB28392AAB28AB28AB280D
:1000C000422AAB28422A4B2AAB2820088207AB28B9
:1000D000AB28542AAB28AB28AB28132B132B132B9C
:1000E0002F2BAB2820088207AB28AB284D2BAB2841
:1000F000AB28AB285A2B5A2B5A2B5A2BAB2820084B
:100100008207AB28AB285F2BAB28AB28AB28652B2D
:10011000AB28652B652BAB28BE2520088207AB28B2
:10012000AB286A2BAB28AB28AB28BA2BBA2BDE2B1B
:10013000BA2BAB2822088207562D582D5B2D5E2D39
:10014000612D3D088207232C492C4E2CAB28562CC0
:100150006F2C472513293F309900412546309900DF
:100160003F30990041254E309900B528FF2683166F
:100170001230990024309800831290309800363065
:100180009F0083169530920083124B30950000300B
:1001900092000C309700A125423099000030990060
:1001A0008613D2280617D4289B250613D72886172E
:1001B000D9289B25FF26B101472550303406031965
:1001C0002428E4285830E528513099001A08DA2804
:1001D000831606168312413099008612A925A92597
:1001E000A92586169525061EED2886120612831669
:1001F0000612831259309900DA28831606168312E4
:10020000413099008612A925A925A9258616882599
:10021000061A022986120612831606128312593014
:100220009900DA285930990029284725A300472545
:10023000A4004725A7004725A8004725A00047257B
:10024000B3004725A1004725A2004725BD0047254B
:10025000C6004725C700493013294725A500472573
:10026000A600A901AA013210EF01A030F0000A2770
:1002700083168C168312C0308B00593099006F1D85
:100280003F296F14EF1159309900A0308400000805
:10029000AB00840A0008AC00840A4B20B1187A290C
:1002A00029082506031D58292A0826060319882926
:1002B000EF186A29C0300406031D4729EF1D5E2987
:1002C000EF14C03084006F10A030F0006F1159306F
:1002D00099004729E0300406031D47296F1D6E2948
:1002E000EF10A03084006F14C030F000EF115930CF
:1002F0009900472983168C1283128B01A9250A279E
:100300004E3099004125290899002A089900782D36
:1003100083168C1283128B01A9250A2750301329CA
:100320004725A5004725A600A901AA01321059308A
:1003300099008C1E99291A08AB008C1E9D291A0859
:10034000AC0029082506031DA9292A082606031939
:10035000882959309900582099295530840047251B
:100360008000840A6D300406031DAF2955308400D7
:100370006528A901AA0132108C1A2928722041256A
:100380002F0899003008990029082306031DBC296D
:100390002A082406031DBC292928A901AA01321014
:1003A0008C1A29287F204125300899002908270622
:1003B000031DD0292A082806031DD0292928321C0C
:1003C000D4255408033A0319E829D40AEA25080079
:1003D000EC250030CC260301EC260301EC26083086
:1003E000D007031CF629CF0A0319CE0A0626D4012A
:1003F0000800321C1C25FC29C8253119122AC80105
:10040000C901A7248425C80A4708C907C324B11C09
:100410000E2A46084806031D012A0800A724842541
:10042000C90B0E2A16250800C82531191A2AA72437
:100430008A25C32416250800C8253119222AA72495
:100440008425C32416250800C8253119372AB42469
:100450008A25B11F342A8A258A258A258A258A2554
:100460008A258A258A258A2517303125C324162511
:10047000080032183D2A4C2632142B0866262C0818
:10048000662608002B08D0248A2516252C08D0249F
:100490008A25162508002B08DC248A2516252C0819
:1004A000DC248A25162508003F26FE255708AC00C7
:1004B0005808AB00EA255908AC005A08AB00EA25F9
:1004C0005B08AC005C08AB00EA255D08AC005E0888
:1004D000AB00EC250030CC260301EC260301EC2612
:1004E0001229DD250030CD26A630EC268E30EC26F4
:1004F0000030CD26A630EC268C30EC26FC255F3073
:1005000084000730D2000008AC00840A0008AB0069
:10051000840AEC250030CC260301EC260301EC26EE
:100520000030CD26F630EC262A30EC26EC250030C3
:10053000CC260301EC260301EC260030CD26F63054
:10054000EC262A30EC26D20B832A12294725C30039
:100550004725C4004725C500DD253F262030CE00B5
:10056000CF012830D00006264508AC00EF30AB00A4
:10057000EA254408AC004308AB00EA25FF30AC0094
:10058000AB00EA25FF30AC00AB00EC250030CC26F8
:100590000301EC260301EC26A9259A234108450610
:1005A000031DDE2A4208EF3A031DDE2A40084406F6
:1005B000031DDE2A3F084306031912294E30132972
:1005C0005F3084006008AB005F08AC006430C90095
:1005D000A7248425C90BE82AC324FF30B1180030B2
:1005E00013290825573084000008AC00AB014B20CC
:1005F000B118112B840A5B300406031DF42A16255A
:10060000162516255F3084006008AB005F08AC003B
:100610006430C900A7248425C90B0A2BC324FF30EA
:10062000B118003013290825573084000008AC00A9
:10063000AB014B20B1182D2B840A5B300406031D3F
:10064000162B1625162516255F3084006008AB0092
:100650005F08AC004B20FF30B1180030132908258B
:10066000573084000008AC00AB014B20B1184B2B75
:10067000840A5B300406031D322B16251625162529
:100680005F3084006008AB005F08AC00B1174B20FE
:10069000B113FF30B11800301329321CF425093092
:1006A0002B26B00009302B26AF0018250800321C7D
:1006B0001C255A2B04303125EB2416250800321C4A
:1006C0004C26AE26B0001825080005303125EB2455
:1006D000162508003F30CE00FF30CF00FE30D0009E
:1006E000062609302B26D50009302B26D600FE25FC
:1006F000573084000830D20009302B268000840A4D
:10070000D20B7C2BFC250730D20009302B26800031
:10071000840A09302B268000840AD20B852BD12B2A
:100720009A23420899003F08990041254008990002
:10073000410813292830D000CF012030CE000626F2
:1007400009302B26C10009302B26C20009302B2688
:10075000C00009302B26BF000800321472202F0879
:10076000E0003008DF00962472202F08EE003008E9
:10077000ED00D12B0825573084000430BA007220D8
:1007800030088000840ABA0BBF2B722072207220BE
:100790002F08D6003008D50072202F08E00030085E
:1007A000DF00433099001A30BA0055308400000849
:1007B0009900840A4125BA0BD72B29289624722048
:1007C0002F08EE003008ED004E25BA2B4725BC005F
:1007D000AE25311D032CBB01A901AA01321033182B
:1007E0009D2472202F083C06031D052C3008FF3A7B
:1007F000031D052CBB0BEF2B230829060319032C23
:1008000042309900EF2B59301329331C092C321A2E
:10081000032C4E301329B625311D1D2CA901AA0128
:100820007F203008FF3A031D1F2C27082906031DCF
:10083000102C28082A06031D102C593013294E307D
:1008400013290000A1280825102539244E2502303F
:1008500031257F30AD00FE30AE00212539244E25F4
:10086000033031257F30AD00FE30AE002125392424
:100870001229013031258825073031258825083097
:100880003125A925013031258825073031258825D6
:100890000800082509303125A92512290825093025
:1008A0003125A9250B303125A9251229A9253C3050
:1008B000CE00CF010430D00006260C30CD2680308B
:1008C000EC260030EC260030CD260030EC2600303F
:1008D000EC260030CD26A925A9254E25122908256C
:1008E0001F303125A9251229962472202F0899003E
:1008F000300813294725AB004725AC004725CA001F
:100900004725CB0096244B20B11C882C433013295B
:10091000B31C12294E25082510254A08AB004B08A8
:10092000AC004B20B11C122946301329AA01A901A1
:1009300016259D24321E982C080032122303290606
:10094000031D0800FF302A060319321608002C0880
:10095000AE002B08AD000310AE0DAD0D02303125F9
:1009600021250830312508002C08AE002B08AD00E9
:100970000310AE0DAD0D0230312521251830B11B0D
:10098000083031250800B11404303125EB242F083C
:100990002B06031D080030082C060319B1100800AF
:1009A000AE003F30AD00033031250310AE0DAD0D6C
:1009B0002125083031250800AE003F30AD0003305E
:1009C00031250310AE0DAD0D2125183031258A25B6
:1009D00017303125080083160614831200001030EA
:1009E000B9008616000086120000031006180314D2
:1009F000AF0CB00CB90BF12C061083160610831245
:100A00000310AF0CB00C3F30311A0F30AF050800A7
:100A1000003031257F30AD00FE30AE0021250800CA
:100A20000730BE001625BE0B122D080006303125FA
:100A3000AA0F0800A90A0800063031253214311621
:100A400008001030B900AD0CAE0C861603182B2D23
:100A5000000006102D2D06142D2D8612B90B232D06
:100A60000800B5000630B600B50C861603183B2DFD
:100A7000000006103D2D06143D2D8612B60B342DB8
:100A8000080083160000981C422D83120800830181
:100A900000008C1E482D1A08B400080031140612FC
:100AA0001211831605168312A9259A286D25632D28
:100AB0006D257025632D6D257025632D70256D25A1
:100AC000632D70256D2531186B2D8613672D061744
:100AD000692D56301329311008000616A925080083
:100AE0001215A9258316051283120512A1250800E7
:100AF00006121211831605168312A1250613802DE6
:100B00008617822D763013298A250E30312508006C
:100B100001308B2D2108B7003030B800B80B8E2D76
:100B2000B70B8C2D0800000008009A259A259A25FD
:100B30009A259A2508001930BF00A125BF0B9D2DCD
:100B40000800B8011830B700B80BA42DB70BA42DBE
:100B50000800A125A125A125A125080031152308FC
:100B6000031D080024080319311108003115270856
:100B7000031D0800280803193111080055308400AE
:100B8000FF308000840A6F300406031DC02D08006A
:100B900031113F30311A0F302B06031D08002C088D
:100BA000FF3A031931150800DD253F26D001CF019A
:100BB000CE010626D401321408003C30CE00CF010D
:100BC0000630D00006260C30CD260030EC26003052
:100BD000EC2608000D30ED2D0F30CD262C08EC262C
:100BE0002B08EC2618250800D001CF01CE01A90161
:100BF000AA010626321408003030FF2D2030CE0026
:100C0000CF01D0010626A901AA0108000030CD2697
:100C10005008EC260E30EC260030CD26F630EC26BF
:100C20006E30EC260030CD264F08EC260E30EC2638
:100C30000030CD26F730EC266E30EC260030CD2685
:100C40004E08EC260E30EC260030CD26F830EC268F
:100C50006E30EC260800CD260030EC2683160614F4
:100C600083120830B9008616932586129325031047
:100C700006180314D30CB90B332E530808000030A8
:100C8000CD26A630EC268E30EC260030CD26A630C0
:100C9000EC269C30EC2608000030CD26A630EC2651
:100CA0009E30EC260030CD26A630EC269C30EC267B
:100CB0000030CD260030EC260E30EC260030CD265C
:100CC000A930EC266E30EC2632140800CC0000303F
:100CD000CD264C08EC260E30EC260030CD26A83070
:100CE000EC266E30EC260030CD26A630EC26843083
:100CF000EC260030CD265530EC260E30EC260030A8
:100D0000CD26A730EC266E30EC260030CD26AA305A
:100D1000EC260E30EC260030CD26A730EC266E30C7
:100D2000EC260030CD26A630EC268230EC260030B2
:100D3000CD260301EC260301EC260030CD2632300F
:100D40008B250301EC260301EC260030CD26A630CE
:100D5000EC269430EC26C526182508000030CD2658
:100D6000A630EC268030EC260030CD26A830EC26CC
:100D70005030EC260030CD26F530EC266E30EC26D7
:100D800002302B26C526530808000030CD26A93096
:100D9000EC262A30EC260800B116D10093258616E1
:100DA000932583160610831293250430B90006108C
:100DB000D10C03180614932586169325B11EE42E34
:100DC000390BE42E8A25B11286129325B90BD72E42
:100DD000DE30860593250800D1000830B900DE30EA
:100DE0008605D10C031806149325861693258612C2
:100DF0009325B90BEF2EDE308605932508001030C1
:100E00008500843086008316173085000230860006
:100E10008312080018121A081A081A08181608006F
:100E200000301329831608309B001E2799001E27C7
:100E3000990041251E2799001E27132983161C148B
:080E40001A089B0A8312080046
:02400E002A0383
:10420000500072006F0074006F003A002000200020
:084210005000300030004400B2
:00000001FF
