:02000000B52821
:08000800FF00030E8301F1006B
:100010000408F200700884001A088000840AF00ABC
:100020008C1A0C286F181928C030040603196F1594
:100030001D28E03004060319EF1572088400710EC4
:100040008300FF0E7F0E090050309900B101B2010C
:10005000EF018501242534081B3C031CCD283408FE
:1000600082072928CF28A828F22899284B2D2C2D43
:100070000A296D298A29572C9629AA298B28512CBF
:10008000FE2BC32BE82B4E2AD328E128D22ED42EC8
:10009000832A6D2B20088207AA28AA28BC29AA280F
:1000A000D629D929F129F929F129012AAA282008D4
:1000B0008207AA28AA28162AAA28AA28AA281F2A14
:1000C000AA281F2A282AAA2820088207AA28AA289C
:1000D000312AAA28BD2ACE2AF02AF02AF02A0C2B8F
:1000E000AA2820088207AA28AA282A2BAA28342B63
:1000F000372B372B372B372B372BAA282008820793
:10010000AA28AA283C2BAA28AA28AA28422BAA282F
:10011000422B422BAA28842520088207AA28AA2835
:10012000472BAA288A2B972B972B972BBB2B972BE8
:10013000AA2822088207302D322D352D382D3B2D4F
:100140003D088207002C262C2B2CAA28332C4C2C63
:100150002425F0283F3099001E25463099003F3075
:1001600099001E254E309900B428C22607309F0002
:100170008316123099002430980083129030980032
:100180006F254230990002309900C226B101242522
:100190005030340603192428CF285830D028513045
:1001A00099001A08C5284130990085106F256F25E0
:1001B0006F2585145F25051DD528851059309900B8
:1001C000C5284130990085106F256F256F2585144E
:1001D00054250519E328851059309900C528593050
:1001E000990029282425A3002425A4002425A7005C
:1001F0002425A8002425A0002425B3002425A1003F
:100200002425A2002425BD002425C6002425C700DE
:100210004930F0282425A5002425A600A901AA011B
:100220003210EF01A030F000CC2683168C1683121A
:10023000C0308B00593099006F1D1C296F14EF11CD
:1002400059309900A03084000008AB00840A0008EF
:10025000AC00840A4A20B118572929082506031D35
:1002600035292A08260603196529EF184729C030C1
:100270000406031D2429EF1D3B29EF14C030840020
:100280006F10A030F0006F11593099002429E03030
:100290000406031D24296F1D4B29EF10A030840094
:1002A0006F14C030F000EF115930990024298316E3
:1002B0008C1283128B016F25CC264E3099001E259F
:1002C000290899002A0899004B2D83168C12831255
:1002D0008B016F25CC265030F0282425A50024253D
:1002E000A600A901AA013210593099008C1E762966
:1002F0001A08AB008C1E7A291A08AC0029082506BA
:10030000031D86292A0826060319652959309900F4
:10031000572076295530840024258000840A6D30CA
:100320000406031D8C29553084006428A901AA0104
:1003300032108C1A292871201E252F0899003008A8
:10034000990029082306031D99292A082406031D5C
:1003500099292928A901AA0132108C1A29287E205E
:100360001E253008990029082706031DAD292A08F3
:100370002806031DAD292928321C9A255408033A62
:100380000319C529D40AB0250800B22500309226E9
:100390000301B1260301B1260830D007031CD3297D
:1003A000CF0A0319CE0ACC25D4010800321CF92447
:1003B000D9298E253119EF29C801C9018424502576
:1003C000C80A4708C907A024B11CEB2946084806FB
:1003D000031DDE29080084245025C90BEB29F324D2
:1003E00008008E253119F72984245625A024F324EA
:1003F00008008E253119FF2984245025A024F324D8
:1004000008008E253119142A91245625B11F112A6E
:100410005625562556255625562556255625562504
:10042000562517300E25A024F324080032181A2A66
:10043000122632142B082C262C082C2608002B08F8
:10044000AD245625F3242C08AD245625F3240800AA
:100450002B08B9245625F3242C08B9245625F32457
:1004600008000526C4255708AC005808AB00B02585
:100470005908AC005A08AB00B0255B08AC005C081A
:10048000AB00B0255D08AC005E08AB00B2250030C3
:1004900092260301B1260301B126EF28A3250030DF
:1004A0009326A630B1268E30B12600309326A63092
:1004B000B1268C30B126C2255F3084000730D200CF
:1004C0000008AC00840A0008AB00840AB2250030A2
:1004D00092260301B1260301B12600309326F6309F
:1004E000B1262A30B126B225003092260301B1266A
:1004F0000301B12600309326F630B1262A30B1260A
:10050000D20B602AEF282425C3002425C40024250B
:10051000C500A32505262030CE00CF012830D0000D
:10052000CC254508AC00EF30AB00B0254408AC004A
:100530004308AB00B025FF30AC00AB00B025FF3066
:10054000AC00AB00B225003092260301B1260301B6
:10055000B1266F25772341084506031DBB2A4208B3
:10056000EF3A031DBB2A40084406031DBB2A3F087F
:1005700043060319EF284E30F0285F3084006008EE
:10058000AB005F08AC006430C90084245025C90B5F
:10059000C52AA024FF30B1180030F028E5245730D8
:1005A00084000008AC00AB014A20B118EE2A840A8E
:1005B0005B300406031DD12AF324F324F3245F30B7
:1005C00084006008AB005F08AC006430C90084247C
:1005D0005025C90BE72AA024FF30B1180030F028BD
:1005E000E524573084000008AC00AB014A20B11864
:1005F0000A2B840A5B300406031DF32AF324F32438
:10060000F3245F3084006008AB005F08AC004A2030
:10061000FF30B1180030F028E5245730840000087E
:10062000AC00AB014A20B118282B840A5B300406C9
:10063000031D0F2BF324F324F3245F3084006008A0
:10064000AB005F08AC00B1174A20B113FF30B118FE
:100650000030F028321CBA250930F125B0000930ED
:10066000F125AF00F5240800321CF924372B0430A3
:100670000E25C824F3240800321C12267426B0006C
:10068000F524080005300E25C824F32408003F3067
:10069000CE00FF30CF00FE30D000CC250930F12550
:1006A000D5000930F125D600C42557308400083024
:1006B000D2000930F1258000840AD20B592BC225C3
:1006C0000730D2000930F1258000840A0930F12575
:1006D0008000840AD20B622BAE2B7723420899004C
:1006E0003F0899001E25400899004108F02828304D
:1006F000D000CF012030CE00CC250930F125C1003B
:100700000930F125C2000930F125C0000930F1257A
:10071000BF000800321471202F08E0003008DF000D
:10072000732471202F08EE003008ED00AE2BE52475
:10073000573084000430BA00712030088000840AE9
:10074000BA0B9C2B7120712071202F08D600300825
:10075000D50071202F08E0003008DF0043309900F9
:100760001A30BA005530840000089900840A1E250A
:10077000BA0BB42B2928732471202F08EE003008FF
:10078000ED002B25972B2425BC007425311DE02B73
:10079000BB01A901AA01321033187A2471202F0855
:1007A0003C06031DE22B3008FF3A031DE22BBB0B76
:1007B000CC2B230829060319E02B42309900CC2BBF
:1007C0005930F028331CE62BB219E02B4E30F028BC
:1007D0007C25311DFA2BA901AA017E203008FF3AA1
:1007E000031DFC2B27082906031DED2B28082A06CC
:1007F000031DED2B5930F0284E30F0280000A028C2
:10080000E524ED2416242B2502300E257F30AD0083
:10081000FE30AE00FE2416242B2503300E257F303B
:10082000AD00FE30AE00FE241624EF2801300E2568
:10083000542507300E25542508300E256F2501302C
:100840000E25542507300E2554250800E5240930CF
:100850000E256F25EF28E52409300E256F250B3076
:100860000E256F25EF286F253C30CE00CF010430D8
:10087000D000CC250C3093268030B1260030B12634
:10088000003093260030B1260030B1260030932688
:100890006F256F252B25EF28E5241F300E256F25AA
:1008A000EF28732471202F0899003008F0282425A0
:1008B000AB002425AC002425CA002425CB007324DA
:1008C0004A20B11C652C4330F028B31CEF282B259F
:1008D000E524ED244A08AB004B08AC004A20B11CCB
:1008E000EF284630F028AA01A901F3247A24B21D8A
:1008F000752C0800B21123032906031D0800FF30E0
:100900002A060319B21508002C08AE002B08AD000A
:100910000310AE0DAD0D02300E25FE2408300E255D
:1009200008002C08AE002B08AD000310AE0DAD0D75
:1009300002300E25FE241830B11B08300E250800A9
:10094000B11404300E25C8242F082B06031D0800FF
:1009500030082C060319B1100800AE003F30AD007E
:1009600003300E250310AE0DAD0DFE2408300E250C
:100970000800AE003F30AD0003300E250310AE0D71
:10098000AD0DFE2418300E25562517300E25080013
:1009900083160514831200001030B900851400007E
:1009A00085100000031005180314AF0CB00CB90B30
:1009B000CE2C05108316051083120310AF0CB00C5B
:1009C0003F30311A0F30AF05080000300E257F3060
:1009D000AD00FE30AE00FE2408000730BE00F32458
:1009E000BE0BEF2C080006300E25AA0F0800A90A3E
:1009F000080006300E253214311608001030B900F8
:100A0000AD0CAE0C85140318082D000005100A2D3E
:100A100005140A2D8510B90B002D0800B50006300D
:100A2000B600B50C85140318182D000005101A2DFA
:100A300005141A2D8510B60B112D08008316000021
:100A4000981C1F2D83120800830100008C1E252D89
:100A50001A08B400080031141F3086056F25992844
:100A600043253D2D432546253D2D432548253D2D38
:100A7000462543253D2D482543253118412D563027
:100A8000F0283110080086166F2508000617492D3A
:100A90008617672508001F30860567257630F02801
:100AA00056250E300E2508000130572D2108B700BD
:100AB0003030B800B80B5A2DB70B582D08006425FC
:100AC0006425642564256425080000000800B80139
:100AD0001830B700B80B6A2DB70B6A2D08006725D0
:100AE000672567256725080031152308031D0800C1
:100AF000240803193111080031152708031D0800C7
:100B0000280803193111080055308400FF30800097
:100B1000840A6F300406031D862D080031113F3012
:100B2000311A0F302B06031D08002C08FF3A031959
:100B300031150800A3250526D001CF01CE01CC2513
:100B4000D401321408003C30CE00CF010630D00072
:100B5000CC250C3093260030B1260030B126080099
:100B60000D30B32D0F3093262C08B1262B08B1265B
:100B7000F5240800D001CF01CE01A901AA01CC259E
:100B8000321408003030C52D2030CE00CF01D00106
:100B9000CC25A901AA010800003093265008B126EF
:100BA0000E30B12600309326F630B1266E30B126D5
:100BB000003093264F08B1260E30B1260030932620
:100BC000F730B1266E30B126003093264E08B1269C
:100BD0000E30B12600309326F830B1266E30B126A3
:100BE000080093260030B1268316051483120830BE
:100BF000B9008514652585106525031005180314B3
:100C0000D30CB90BF92D5308080000309326A630F9
:100C1000B1268E30B12600309326A630B1269C3006
:100C2000B126080000309326A630B1269E30B126AA
:100C300000309326A630B1269C30B1260030932692
:100C40000030B1260E30B12600309326A930B126EF
:100C50006E30B12632140800CC00003093264C08C8
:100C6000B1260E30B12600309326A830B1266E3062
:100C7000B12600309326A630B1268430B12600304C
:100C800093265530B1260E30B12600309326A7307A
:100C9000B1266E30B12600309326AA30B1260E3030
:100CA000B12600309326A730B1266E30B126003031
:100CB0009326A630B1268230B12600309326030158
:100CC000B1260301B12600309326323057250301A7
:100CD000B1260301B12600309326A630B126943008
:100CE000B1268B26F524080000309326A630B126C5
:100CF0008030B12600309326A830B1265030B1267E
:100D000000309326F530B1266E30B1260230F12541
:100D10008B265308080000309326A930B1262A30CC
:100D2000B1260800B116D100652585146525831606
:100D30000510831265250430B9000510D10C031885
:100D40000514652585146525B11EAA2E390BAA2E1A
:100D50005625B11285106525B90B9D2E8501652597
:100D60000800D1000830B9008501D10C0318051422
:100D700065258514652585106525B90BB42E85017B
:100D8000652508008501043086008316043085003F
:100D9000023086008312080018121A081A081A086E
:100DA000181608000230F028831608309B00E02651
:100DB0009900E02699001E25E0269900E026F028FB
:0C0DC00083161C141A089B0A83120800FA
:02400E002A0383
:10420000500072006F0074006F003A002000200020
:084210005000300030004400B2
:00000001FF
