:02000000C62810
:08000800FF00030E8301F1006B
:100010000408F200700884001A088000840AF00ABC
:100020008C1A0C286F181928C030040603196F1594
:100030001D28E03004060319EF1572088400710EC4
:100040008300FF0E7F0E090050309900B101B2010C
:10005000EF012D27DE3086056D253408193C031C81
:10006000B628340882072A28F428B4281D29A8288D
:10007000A32D752D35299D29BA29A72CBC29D02956
:100080009228A12C4E2C132C382C7328F8280929DF
:100090003E2F402FDA2AB12B20088207B628E2290A
:1000A000E2293C2AB628B628172A1F2A172A272A07
:1000B0003C2A20088207B6284E2A4E2A602AB628F3
:1000C000B628572AB628572A602A602A20088207AD
:1000D000B628692A692A142BB628B628312B312B69
:1000E000312B3A2B452B20088207B628862AA02AD6
:1000F00020088207B6286E2B6E2B7B2BB628B628DD
:100100007B2B7B2B7B2B7B2B7B2B20088207B62822
:10011000802B802B862BB628B628862BB628862BDC
:10012000862B862BEA2520088207B6288B2B8B2B63
:10013000CE2BB628B628DD2BDD2B0B2CDD2BDD2BB3
:100140003D088207502C762C7B2C772C832C9C2C02
:100150008316023086008312CD25220882077D2D6A
:100160007F2D7F2D842D842D6D251B2906121211C4
:100170008316051683122D270613BE288617C0285E
:100180006D253F3099003F309900C5282D278316F3
:100190001230990024309800831290309800363045
:1001A0009F0083169530920083124B3095000030EB
:1001B00092000C309700CD25423099000030990014
:1001C0008613E2280617E428C7250613E7288617B2
:1001D000E928C7252D27B1016D25503034060319B4
:1001E0002428F4285830F528513099001A08EA28B4
:1001F0004130990083161230860083128612D5256D
:10020000D525D5258616C125061EFE28593099000C
:10021000EA28413099008316123086008312861234
:10022000D525D525D5258616C125061A0F2959307D
:100230009900EA28593099002A286D25A3006D25D8
:10024000A4006D25A7006D25A8006D25A0006D25D3
:10025000B3006D25A1006D25A2006D25BD006D25A3
:10026000C6006D25C70049301B296D25A5006D25E9
:10027000A600A901AA013210EF01A030F000382732
:1002800083168C168312C0308B00593099006F1D75
:1002900047296F14EF1159309900A03084000008ED
:1002A000AB00840A0008AC00840A4C20B1188229F3
:1002B00029082506031D60292A0826060319952901
:1002C000EF187229C0300406031D4F29EF1D66295F
:1002D000EF14C03084006F10A030F0006F1159305F
:1002E00099004F29E0300406031D4F296F1D762920
:1002F000EF10A03084006F14C030F000EF115930BF
:1003000099004F2983168C1283128B01D52538272B
:100310004E3099006725290899002A089900672519
:100320002F08990030089900A32D83168C12831290
:100330008B01D525382750301B296D25A5006D254B
:10034000A600A901AA013210593099008C1EA629D5
:100350001A08AB008C1EAA291A08AC002908250629
:10036000031DB6292A082606031995295930990034
:100370005920A62952276628A901AA0132108C1AF1
:100380002A28782067252F08990030089900290825
:100390002306031DBF292A082406031DBF292A2876
:1003A000A901AA0132108C1A2A2885206725300855
:1003B000990029082706031DD3292A082806031DAA
:1003C000D3292A28321C00265408033A0319EB29A2
:1003D000D40A182608001A260030FA2603011A2724
:1003E00003011A270830D007031CF929CF0A031983
:1003F000CE0A3426D4010800321C4225FF29F425F8
:100400003119152AC801C901D424B025C80A4708E2
:10041000C907E924B11C112A46084806031D042A0D
:10042000152AD424B025C90B112A3C250800F4252F
:1004300031191D2AD424B625E9243C250800F425C9
:100440003119252AD424B025E9243C250800F425B7
:1004500031193A2AD824B625B11F372AB625B62530
:10046000B625B625B625B625B625B625B625173048
:100470005725E9243C250800321C0626DE245408B2
:10048000033A0319462AD40A3C2508001830572598
:10049000B625173057253C25D40108003218522ABA
:1004A0007A2632142B0894262C08942608002B0850
:1004B000F624B6253C252C08F624B6253C25080054
:1004C0002B080225B6253C252C080225B6253C25FF
:1004D00008006D262C265708AC005808AB001826DB
:1004E0005908AC005A08AB0018265B08AC005C0841
:1004F000AB0018265D08AC005E08AB001A26003081
:10050000FA2603011A2703011A271A295227A922BA
:10051000B922B922B922B922B92202308407303077
:10052000CE00CF010C30D0003426B9220430840232
:100530003030CE00CF010A30D0003426B9221A293B
:1005400052270926A9220730D200B922D20BA52AA8
:100550001A290030FB26A6301A278E301A270030C1
:10056000FB26A6301A278C301A272A265F308400F3
:1005700008000008AC00840A0008AB00840A1A26B0
:100580000030FA2603011A2703011A270030FB2640
:10059000F6301A272A301A271A260030FA260301C5
:1005A0001A2703011A270030FB26F6301A272A30B3
:1005B0001A2708006D25C3006D25C4006D25C500F0
:1005C00009266D262030CE00CF012830D0003426F9
:1005D0004508AC00EF30AB0018264408AC004308D7
:1005E000AB001826FF30AC00AB001826FF30AC0083
:1005F000AB001A260030FA2603011A2703011A2736
:10060000D525BB2341084506031D122B4208EF3AAE
:10061000031D122B40084406031D122B3F084306FE
:1006200003191A294E301B29B115452B5F30840060
:100630006008AB005F08AC006430C900D424B0256A
:10064000C90B1E2B1A295E235F3084006008AB00A3
:100650005F08AC006430C900D424B025C90B2C2B32
:100660001A295E235F3084006008AB005F08AC008D
:100670004C201A295E235F3084006008AB005F08BD
:10068000AC00B1174C20B1131A2932105E235F3031
:1006900084005123B11D1A293C2561308400512367
:1006A0001A290008AC00840A0008AB008403DE2489
:1006B00018305725B6251730572508002E255730F6
:1006C00084000008AC00AB014C20840A5B300406B7
:1006D000031D612B3C253C253C250800321C2226AD
:1006E00009305926B00009305926AF003E250800D0
:1006F000321C42257B2B0430572511253C25080050
:10070000321C7A26DC26B0003E250800053057252D
:1007100011253C2508003F30CE00FF30CF00FE30D1
:10072000D000342609305926D50009305926D60084
:100730002C26573084000830D2000930592680001A
:10074000840AD20B9D2B2A260730D2000930592665
:100750008000840A093059268000840AD20BA62B17
:10076000FE2BBB23420899003F08990067254008EB
:10077000990041081B292830D000CF012030CE003D
:10078000342609305926C10009305926C2000930E3
:100790005926C00009305926BF000800B115DD2BCD
:1007A000321478202F08E0003008DF00C3247820BE
:1007B0002F08EE003008ED00FE2B2E255730840068
:1007C0000430BA00782030088000840ABA0BE22B8B
:1007D0007820782078202F08D6003008D50078209F
:1007E0002F08E0003008DF0078202F08E2003008F2
:1007F000E10078202F08E4003008E300433099003E
:100800001A30BA005530840000089900840A672520
:10081000BA0B042C2A28C32478202F08EE003008B5
:10082000ED007425DD2B6D25BC00DA25311D302C43
:10083000BB01A901AA0132103318CA2478202F085D
:100840003C06031D322C3008FF3A031D322CBB0B33
:100850001C2C230829060319302C423099001C2C2B
:1008600059301B29331C362C4330321E4E301B2985
:10087000E225311D4A2CA901AA0185203008FF3A42
:10088000031D4C2C27082906031D3D2C28082A0689
:10089000031D3D2C59301B294E301B290000A02878
:1008A0002E25362566247425023057257F30AD006D
:1008B000FE30AE00472566247425033057257F306F
:1008C000AD00FE30AE00472566241A2901305725B9
:1008D000B42507305725B42508305725D5250130D4
:1008E0005725B42507305725B42508002E25093093
:1008F0005725D5251A292E2509305725D5250B3002
:100900005725D5251A29D5253C30CE00CF010430F6
:10091000D00034260C30FB2680301A2700301A27EE
:100920000030FB2600301A2700301A270030FB2643
:10093000D525D52574251A292E251F305725D525CF
:100940001A29C32478202F08990030081B296D2507
:10095000AB006D25AC006D25CA006D25CB00C3240E
:100960004C20B11CB52C43301B29B31C1A2974250B
:100970002E2536254A08AB004B08AC004C20B11C94
:100980001A2946301B29AA01A9013C25CA24321E76
:10099000C52C0800321223032906031D0800FF306E
:1009A0002A06031932160800DE24083057250800ED
:1009B000DE241830B11B0830572508002C08AE0083
:1009C0002B08AD000310AE0DAD0D023057254725A5
:1009D0000800B1140430572511252F082B06031DDC
:1009E000080030082C060319B1100800AE003F3093
:1009F000AD00033057250310AE0DAD0D472508306F
:100A000057250800AE003F30AD00033057250310D6
:100A1000AE0DAD0D472518305725B6251730572593
:100A2000080083160614831200001030B9008616E1
:100A3000000086120000031006180314AF0CB00C5F
:100A4000B90B172D06108316061083120310AF0C76
:100A5000B00C3F30311A0F30AF0508000030572579
:100A60007F30AD00FE30AE00472508000730BE00E5
:100A70003C25BE0B382D080006305725AA0F08006C
:100A8000A90A080006305725321431160800103024
:100A9000B900AD0CAE0C86160318512D00000610DF
:100AA000532D0614532D8612B90B492D0800B5009D
:100AB0000630B600B50C86160318612D000006102E
:100AC000632D0614632D8612B60B5A2D080083166B
:100AD0000000981C682D83120800830100008C1E02
:100AE0006E2D1A08B4000800311406121211831674
:100AF000051683122D27D525A8289C25892D9525F7
:100B00009C2598259E25892D95259E2598259C25F3
:100B1000892DD5253118922D86138E2D0617902DEF
:100B200056301B293110CD2508001215D525080097
:100B3000B31DD525C1250800061608008316051229
:100B4000831205120800061212118316051683126D
:100B50002D27CD250613AC2D8617AE2D76301B29FB
:100B6000B6250E30572508000130B72D2108B700F3
:100B70003030B800B80BBA2DB70BB82D0800000004
:100B80000800C625C625C625C625C6250800193075
:100B9000BF00CD25BF0BC92D0800B8011030B7002C
:100BA000B80BD02DB70BD02D0800CD25CD25CD25E8
:100BB000CD25080031152308031D0800240803195A
:100BC0003111080031152708031D080028080319F2
:100BD0003111080055308400FF308000840A6F30E6
:100BE0000406031DEC2D080031113F30311A0F307F
:100BF0002B06031D08002C08FF3A031931150800C5
:100C000009266D26D001CF01CE013426D40132143D
:100C10000800331D08003C30CE00CF010630D00064
:100C200034260C30FB2600301A2700301A27080023
:100C30000D301B2E0F30FB262C081A272B081A27E5
:100C40003E250800D001CF01CE01A901AA0134261A
:100C50003214080030302D2E2030CE00CF01D001CC
:100C60003426A901AA0108000030FB2650081A27E3
:100C70000E301A270030FB26F6301A276E301A275E
:100C80000030FB264F081A270E301A270030FB26AB
:100C9000F7301A276E301A270030FB264E081A2725
:100CA0000E301A270030FB26F8301A276E301A272C
:100CB0000800FB2600301A2783160614831208301A
:100CC000B9008616BF258612BF2503100618031427
:100CD000D30CB90B612E530808000030FB26A63058
:100CE0001A278E301A270030FB26A6301A279C3090
:100CF0001A2708000030FB26A6301A279E301A2734
:100D00000030FB26A6301A279C301A270030FB261D
:100D100000301A270E301A270030FB26A9301A2778
:100D20006E301A2732140800CC000030FB264C0825
:100D30001A270E301A270030FB26A8301A276E30EB
:100D40001A270030FB26A6301A2784301A270030D5
:100D5000FB2655301A270E301A270030FB26A73005
:100D60001A276E301A270030FB26AA301A270E30B9
:100D70001A270030FB26A7301A276E301A270030BA
:100D8000FB26A6301A2782301A270030FB260301E3
:100D90001A2703011A270030FB263230B72503013A
:100DA0001A2703011A270030FB26A6301A27943091
:100DB0001A27F3263E2508000030FB26A6301A2706
:100DC00080301A270030FB26A8301A2750301A2707
:100DD0000030FB26F5301A276E301A2702305926CC
:100DE000F326530808000030FB26A9301A272A30C2
:100DF0001A270800B116D100BF258616BF25831615
:100E000006108312BF250430B9000610D10C031858
:100E10000614BF258616BF25B11E122F390B122FBF
:100E2000B625B1128612BF25B90B052FDE30860517
:100E3000BF250800D1000830B900DE308605D10C8E
:100E400003180614BF258616BF258612BF25B90BC9
:100E50001D2FDE308605BF25080010308500843048
:100E60008600831617308500233086008312080021
:100E700018121A081A081A081816080000301B2938
:100E8000831608309B004C2799004C279900672552
:100E90004C2799004C271B2983161C141A089B0AFF
:100EA00083120800553084006D258000840A6D305F
:0C0EB0000406031D542F55308400080078
:02400E002A3F47
:10420000500072006F0074006F003A002000200020
:084210005000300031003600BF
:00000001FF
