:040000009425BB2860
:08000800FF00030E8301F1006B
:100010000408F200700884001A088000840AF00ABC
:100020008C1A0C286F181928C030040603196F1594
:100030001D28E03004060319EF1572088400710EC4
:100040008300FF0E7F0E090050309900B101B2010C
:10005000EF0185014C253408193C031CB4283408F1
:1000600082072928D528B228FC28A628792D542DC6
:1000700014297C299929862C9B29AF299028802C2A
:100080002D2CF22B172C7128D928E928012F032FAA
:10009000B92A902B20088207B428C129C1291B2A1C
:1000A000DB29DE29F629FE29F629062A1B2A200843
:1000B0008207B4282D2A2D2A3F2AB428B428362AAC
:1000C000B428362A3F2A3F2A20088207B428482A23
:1000D000482AF32AF52A022B102B102B102B192B50
:1000E000242B20088207B428652A7F2A200882074B
:1000F000B4284D2B4D2B5A2B572B5A2B5A2B5A2B9E
:100100005A2B5A2B5A2B20088207B4285F2B5F2BBF
:10011000652BB428B428652BB428652B652B652B7B
:10012000B12520088207B4286A2B6A2BAD2BAF2B90
:10013000BC2BBC2BBC2BEA2BBC2BBC2B3D08820759
:100140002F2C552C5A2C562C622C7B2C83160430C9
:1001500085008312942522088207572D592D5D2D85
:10016000612D652D4C25FA28F1264C253F3099004C
:100170003F309900BA28F12607309F0083161230CD
:100180009900243098008312903098009C254230CA
:10019000990002309900F126B1014C255030340607
:1001A00003192428D5285830D628513099001A0828
:1001B000CB284130990083168510831285109C2529
:1001C0009C259C2585148C25051DDE285930990019
:1001D000CB284130990083168510831285109C2509
:1001E0009C259C25851481250519EE2859309900F8
:1001F000CB285930990029284C25A3004C25A40070
:100200004C25A7004C25A8004C25A0004C25B30088
:100210004C25A1004C25A2004C25BD004C25C60054
:100220004C25C7004930FA284C25A5004C25A600CE
:10023000A901AA013210EF01A030F000FB268316BD
:100240008C168312C0308B00593099006F1D2629FF
:100250006F14EF1159309900A03084000008AB00F2
:10026000840A0008AC00840A4A20B11861292908D0
:100270002506031D3F292A08260603197429EF18AD
:100280005129C0300406031D2E29EF1D4529EF1406
:10029000C03084006F10A030F0006F115930990009
:1002A0002E29E0300406031D2E296F1D5529EF105D
:1002B000A03084006F14C030F000EF115930990065
:1002C0002E2983168C1283128B019C25FB264E301F
:1002D00099004625290899002A08990046252F08E3
:1002E000990030089900792D83168C1283128B01A6
:1002F0009C25FB265030FA284C25A5004C25A6004D
:10030000A901AA013210593099008C1E85291A08BA
:10031000AB008C1E89291A08AC0029082506031D8C
:1003200095292A082606031974295930990057205F
:10033000852915276428A901AA0132108C1A2928B9
:10034000762046252F0899003008990029082306B1
:10035000031D9E292A082406031D9E292928A90178
:10036000AA0132108C1A29288320462530089900CA
:1003700029082706031DB2292A082806031DB229C9
:100380002928321CC7255408033A0319CA29D40A5C
:10039000DF250800E1250030C1260301E026030126
:1003A000E0260830D007031CD829CF0A0319CE0A4B
:1003B000FB25D4010800321C2125DE29BB2531197B
:1003C000F429C801C901B3247D25C80A4708C90713
:1003D000C824B11CF02946084806031DE329F42966
:1003E000B3247D25C90BF0291B250800BB25311935
:1003F000FC29B3248325C8241B250800BB253119FB
:10040000042AB3247D25C8241B250800BB253119E7
:10041000192AB7248325B11F162A8325832583250E
:10042000832583258325832583258325173036253A
:10043000C8241B250800321CCD25BD245408033ACE
:100440000319252AD40A1B250800183036258325D0
:10045000173036251B25D40108003218312A4126D1
:1004600032142B085B262C085B2608002B08D524A9
:1004700083251B252C08D52483251B2508002B0844
:10048000E12483251B252C08E12483251B25080056
:100490003426F3255708AC005808AB00DF2559086F
:1004A000AC005A08AB00DF255B08AC005C08AB0071
:1004B000DF255D08AC005E08AB00E1250030C126F9
:1004C0000301E0260301E026F92815278822982257
:1004D0009822982298229822023084073030CE0049
:1004E000CF010C30D000FB2598220430840230303C
:1004F000CE00CF010A30D000FB259822F92815271D
:10050000D02588220730D2009822D20B842AF928DD
:100510000030C226A630E0268E30E0260030C2260B
:10052000A630E0268C30E026F1255F3084000800FC
:100530000008AC00840A0008AB00840AE125003002
:10054000C1260301E0260301E0260030C226F63072
:10055000E0262A30E026E1250030C1260301E0260E
:100560000301E0260030C226F630E0262A30E026DD
:1005700008004C25C3004C25C4004C25C500D025DF
:1005800034262030CE00CF012830D000FB2545088E
:10059000AC00EF30AB00DF254408AC004308AB00F3
:1005A000DF25FF30AC00AB00DF25FF30AC00AB0037
:1005B000E1250030C1260301E0260301E0269C2549
:1005C0009A2341084506031DF12A4208EF3A031D0C
:1005D000F12A40084406031DF12A3F084306031987
:1005E000F9284E30FA28B115242B5F3084006008BA
:1005F000AB005F08AC006430C900B3247D25C90B93
:10060000FD2AF9283D235F3084006008AB005F08B5
:10061000AC006430C900B3247D25C90B0B2BF9282D
:100620003D235F3084006008AB005F08AC004A20C7
:10063000F9283D235F3084006008AB005F08AC0000
:10064000B1174A20B113F92832103D235F308400DE
:100650003023B11DF9281B25613084003023F9288F
:100660000008AC00840A0008AB008403BD241830E5
:10067000362583251730362508000D255730840090
:100680000008AC00AB014A20840A5B300406031D5D
:10069000402B1B251B251B250800321CE925093092
:1006A0002026B00009302026AF001D250800321C8E
:1006B00021255A2B04303625F0241B250800321C36
:1006C0004126A326B0001D25080005303625F0245C
:1006D0001B2508003F30CE00FF30CF00FE30D00099
:1006E000FB2509302026D50009302026D600F32529
:1006F000573084000830D200093020268000840A58
:10070000D20B7C2BF1250730D20009302026800047
:10071000840A093020268000840AD20B852BDD2B29
:100720009A23420899003F089900462540089900FD
:100730004108FA282830D000CF012030CE00FB2518
:1007400009302026C10009302026C20009302026A9
:10075000C00009302026BF000800B115BC2B3214A0
:1007600076202F08E0003008DF00A22476202F0832
:10077000EE003008ED00DD2B0D25573084000430ED
:10078000BA00762030088000840ABA0BC12B76208C
:10079000762076202F08D6003008D50076202F0846
:1007A000E0003008DF0076202F08E2003008E1008A
:1007B00076202F08E4003008E300433099001A3017
:1007C000BA005530840000089900840A4625BA0B07
:1007D000E32B2928A22476202F08EE003008ED0014
:1007E0005325BC2B4C25BC00A125311D0F2CBB0172
:1007F000A901AA0132103318A92476202F083C063B
:10080000031D112C3008FF3A031D112CBB0BFB2BD1
:100810002308290603190F2C42309900FB2B59306D
:10082000FA28331C152C4330B21D4E30FA28A92566
:10083000311D292CA901AA0183203008FF3A031D8C
:100840002B2C27082906031D1C2C28082A06031D0B
:100850001C2C5930FA284E30FA2800009E280D250D
:10086000152545245325023036257F30AD00FE3056
:10087000AE00262545245325033036257F30AD00B4
:10088000FE30AE0026254524F92801303625812585
:10089000073036258125083036259C250130362540
:1008A000812507303625812508000D25093036259C
:1008B0009C25F9280D25093036259C250B30362539
:1008C0009C25F9289C253C30CE00CF010430D00077
:1008D000FB250C30C2268030E0260030E0260030B8
:1008E000C2260030E0260030E0260030C2269C25DB
:1008F0009C255325F9280D251F3036259C25F928E0
:10090000A22476202F0899003008FA284C25AB0045
:100910004C25AC004C25CA004C25CB00A2244A2013
:10092000B11C942C4330FA28B31CF92853250D250B
:1009300015254A08AB004B08AC004A20B11CF92829
:100940004630FA28AA01A9011B25A924B21DA42C0E
:100950000800B21123032906031D0800FF302A06F0
:100960000319B2150800BD24083036250800BD243F
:100970001830B11B0830362508002C08AE002B08B3
:10098000AD000310AE0DAD0D023036252625080052
:10099000B11404303625F0242F082B06031D08005F
:1009A00030082C060319B1100800AE003F30AD002E
:1009B000033036250310AE0DAD0D26250830362543
:1009C0000800AE003F30AD00033036250310AE0DF9
:1009D000AD0D26251830362583251730362508001D
:1009E00083160514831200001030B900851400002E
:1009F00085100000031005180314AF0CB00CB90BE0
:100A0000F62C05108316051083120310AF0CB00CE2
:100A10003F30311A0F30AF050800003036257F30E7
:100A2000AD00FE30AE00262508000730BE001B25B5
:100A3000BE0B172D080006303625AA0F0800A90A9C
:100A40000800063036253214311608001030B9007F
:100A5000AD0CAE0C85140318302D00000510322D9E
:100A60000514322D8510B90B282D0800B50006306D
:100A7000B600B50C85140318402D00000510422D5A
:100A80000514422D8510B60B392D08008316000081
:100A9000981C472D83120800830100008C1E4D2DE9
:100AA0001A08B40008003114F1269C25A6287325E5
:100AB000682D73256F257525682D73256F2577257E
:100AC000682D75256F257325682D77256F2573256E
:100AD00031186C2D5630FA28311094250800B31DBA
:100AE00094258C250800861608000617080086172E
:100AF0000800F12694257630FA2883250E30362515
:100B000008000130842D2108B7003030B800B80B40
:100B1000872DB70B852D08009125912591259125CD
:100B20009125080000000800B8011030B700B80B8C
:100B3000972DB70B972D080094259425942594257F
:100B4000080031152308031D08002408031931117A
:100B5000080031152708031D080028080319311162
:100B6000080055308400FF308000840A6F3004068E
:100B7000031DB32D080031113F30311A0F302B0601
:100B8000031D08002C08FF3A031931150800D02571
:100B90003426D001CF01CE01FB25D4013214080048
:100BA000331D08003C30CE00CF010630D000FB25BD
:100BB0000C30C2260030E0260030E02608000D3060
:100BC000E22D0F30C2262C08E0262B08E0261D253A
:100BD0000800D001CF01CE01A901AA01FB253214E2
:100BE00008003030F42D2030CE00CF01D001FB259D
:100BF000A901AA0108000030C2265008E0260E30E4
:100C0000E0260030C226F630E0266E30E0260030C6
:100C1000C2264F08E0260E30E0260030C226F7300C
:100C2000E0266E30E0260030C2264E08E0260E3068
:100C3000E0260030C226F830E0266E30E0260800BC
:100C4000C2260030E0268316051483120830B9004E
:100C50008514922585109225031005180314D30CD2
:100C6000B90B282E530808000030C226A630E02613
:100C70008E30E0260030C226A630E0269C30E026EA
:100C800008000030C226A630E0269E30E026003064
:100C9000C226A630E0269C30E0260030C226003076
:100CA000E0260E30E0260030C226A930E0266E3065
:100CB000E02632140800CC000030C2264C08E026A2
:100CC0000E30E0260030C226A830E0266E30E02646
:100CD0000030C226A630E0268430E0260030C2264E
:100CE0005530E0260E30E0260030C226A730E02640
:100CF0006E30E0260030C226AA30E0260E30E02614
:100D00000030C226A730E0266E30E0260030C22632
:100D1000A630E0268230E0260030C2260301E0261D
:100D20000301E0260030C226323084250301E0268C
:100D30000301E0260030C226A630E0269430E026EB
:100D4000BA261D2508000030C226A630E0268030D5
:100D5000E0260030C226A830E0265030E0260030E1
:100D6000C226F530E0266E30E02602302026BA2674
:100D7000530808000030C226A930E0262A30E026B9
:100D80000800B116D100922585149225831605100E
:100D9000831292250430B9000510D10C03180514F4
:100DA000922585149225B11ED92E390BD92E832573
:100DB000B11285109225B90BCC2E85019225080021
:100DC000D1000830B9008501D10C03180514922513
:100DD0008514922585109225B90BE32E8501922565
:100DE0000800850104308600831607308500023034
:100DF00086008312080018121A081A081A08181612
:100E000008000230FA28831608309B000F2799004B
:100E10000F27990046250F2799000F27FA288316D8
:100E20001C141A089B0A83120800553084004C25B4
:100E30008000840A6D300406031D172F553084008E
:020E40000800A8
:02400E002A3F47
:10420000500072006F0074006F003A002000200020
:084210005000300031003600BF
:00000001FF
