:020000040000FA
:02000000C9280D
:08000800FF00030E8301F1006B
:100010000408F200700884001A088000840AF00ABC
:100020008C1A0C286F181928C030040603196F1594
:100030001D28E03004060319EF1572088400710EC4
:100040008300FF0E7F0E090050309900B501B60104
:10005000EF01850108263708193C031CC228370820
:1000600082072928E328C0280A29B428352E102E13
:1000700015297C2999291C2D9B29AF299A28BB2C4D
:10008000802CA52C7728E728F728A52FA72FFB2A57
:10009000EF2B382D24088207C129C129C129112A33
:1000A000DA29DC29F329FA29F329012A112A232A3A
:1000B000FA2924088207262A262A262A382AC2282C
:1000C000C2282F2AC2282F2A382A382AC228C22812
:1000D00024088207412A412A412A342B362B432BFC
:1000E000512B5A2B512B5E2B692B822B8C2B2408E6
:1000F00082075D2A6D2A872A24088207A92BA92B4B
:10010000A92BB62BB32BB62BB62BB62BB62BB62BF7
:10011000B62BBB2BB62B24088207BE2BBE2BBE2BC7
:10012000C42BC228C228C42BC228C42BC42BC42B66
:10013000C228C2286D2624088207C92BC92BC92BC7
:100140000C2C0E2C1C2C1C2C1C2C4A2C1C2C1C2C5F
:10015000522C652C28088207BD2CE32CE92CE42CBA
:10016000F42C0B2D102D162D8316043085008312D0
:10017000502627088207132E152E192E1D2E212EEC
:1001800008260829952708263F3099003F30990016
:10019000C828952707309F00831612309900243015
:1001A0009800831290309800582642309900013010
:1001B00099009527B50108265030370603192428E1
:1001C000E3285830E428513099001A08D9284130E2
:1001D00099008316851083128510582658265826B4
:1001E00085144826051DEC2859309900D92841303E
:1001F0009900831685108312851058265826582694
:1002000085143D260519FC2859309900D928593004
:10021000990029280B30C100203084000826800076
:10022000840AC10B0E29493008290826AB0008268C
:10023000AC00AD01AE013610EF01A030F0009F27F9
:1002400083168C168312C0308B00593099006F1DB5
:1002500027296F14EF1159309900A030840000084D
:10026000AF00840A0008B000840A4A20B518622949
:100270002D082B06031D40292E082C06031974296E
:10028000EF185229C0300406031D2F29EF1D4629FF
:10029000EF14C03084006F10A030F0006F1159309F
:1002A00099002F29E0300406031D2F296F1D5629C0
:1002B000EF10A03084006F14C030F000EF115930FF
:1002C00099002F2983168C1283128B0158269F27A1
:1002D0004E30990002262D0899002E08990002261A
:1002E000330899003408082983168C1283128B0175
:1002F00058269F27503008290826AB000826AC0056
:10030000AD01AE013610593099008C1E85291A08AE
:10031000AF008C1E89291A08B0002D082B06031D7A
:1003200095292E082C060319742959309900592053
:100330008529B9276828AD01AE0136108C1A292805
:100340007C20022633089900340899002D082006E5
:10035000031D9E292E082106031D9E292928AD0173
:10036000AE0136108C1A29288B20022634089900F9
:100370002D082206031DB2292E082306031DB229CB
:100380002928361C83265408033A0319CA29D40A9B
:100390009B2608009D2664270301842703018427E8
:1003A0000830D007031CD729CF0A0319CE0AB72675
:1003B000D4010800361CD42577263519192AC8011E
:1003C000C90166253926C80A2A08C9077B25B51C34
:1003D000EE2929084806031DE129192A6625392630
:1003E000C90BEE29192A77263519192A66253F26C1
:1003F0007B25192A77263519192A662539267B2562
:10040000192A77263519192A6A253F26B51F0D2A7C
:100410000830C1003F26C10B0A2A1730F2257B2580
:10042000192A361C892670255408033A03191B2AF9
:10043000D40ACE2508001830F2253F261730F225C1
:10044000CE25D4010800361CD425FA2936182A2ACC
:10045000F52636142F080B2730080B2708002F0825
:1004600088253F26CE25300888253F26CE25080042
:100470002F0894253F26CE25300894253F26CE25EB
:100480000800EA26AF265708B0005808AF009B26A0
:100490005908B0005A08AF009B265B08B0005C0802
:1004A000AF009B265D08B0005E08AF009D26642764
:1004B00003018427030184270729B9279022DA2220
:1004C0000230D5220430D5220630D5220830D5227C
:1004D0000C30D5220A30D5220729B9279022B8221C
:1004E000B822B822B822B822023084073030CE00B9
:1004F000CF010C30D000B726B8220430840230304F
:10050000CE00CF010A30D000B726B8220729B9277C
:100510008C2690220730D200B822D20B8C2A0729D1
:100520006227A63084278E3084276227A63084274E
:100530008C308427AD265F3084000800B9279022D4
:10054000B822B822B822B822B8220230840730304C
:10055000CE00CF010C30D000B726B8220430840280
:100560003030CE00CF010A30D000B726B82207299C
:100570000008B000840A0008AF00840A9D266427A2
:1005800003018427030184276227F63084272A3059
:1005900084279D266427030184270301842762277B
:1005A000F63084272A3084270800D0003030CE006F
:1005B000CF01B7260008B000840A0008AF00840A03
:1005C0009D26642703018427030184276227F630D0
:1005D00084272A3084279D2664270301842703016A
:1005E00084270430C1006227030184270301842784
:1005F000C10BF32A08000826C5000826C6000826F5
:10060000C7008C26EA262030CE00CF012830D0004B
:10061000B7264708B000EF30AF009B264608B00071
:100620004508AF009B26FF30B000AF009B26FF308F
:10063000B000AF009D2664270301842703018427AF
:100640005826F92343084706031D322B4408EF3A86
:10065000031D322B42084606031D322B4108450676
:10066000031907294E300829B515692B5F3084001E
:100670006008AF005F08B0006430C9006625392605
:10068000C90B3E2B072999235F3084006008AF0017
:100690005F08B0006430C90066253926C90B4C2BB1
:1006A000072999235F3084006008AF005F08B0001D
:1006B0004A200729B511251AB515692B99235F30F2
:1006C00084006008AF005F08B000B5174A20B5137A
:1006D0000729361099235F3084007523B51D07293B
:1006E000CE2561308400752307290008B000840AF4
:1006F0000008AF00840370251830F2253F2617301C
:10070000F2250800361435166008AF005F08B00007
:100710004A20DA259A2307296008AF005F08B00055
:100720004A205525CE25CE25CE25CE25CE259A2369
:100730000729C025573084000008B000AF014A20C7
:10074000840A5B300406031D9C2BCE25CE25CE25C6
:100750000800361CA5260930D626B4000930D62656
:10076000B300D0250800361CD425B62B0430F22562
:10077000A325CE250800361CD425B62B361CF5261D
:100780004827B400D02508000530F225A325CE2542
:1007900008003F30CE00FF30CF00FE30D000B7263B
:1007A0000930D626D5000930D626D600AF265730D8
:1007B00084000830D2000930D6268000840AD20B8B
:1007C000DB2BAD260730D2000930D6268000840A04
:1007D0000930D6268000840AD20BE42B3D2CF92365
:1007E00044089900410899000226420899004308EC
:1007F00008292830D000CF012030CE00B72609309C
:10080000D626C3000930D626C4000930D626C20039
:100810000930D626C1000800B5151C2C3614351633
:100820007C203308E0003408DF0055257C203308A5
:10083000EE003408ED003D2CC02557308400043014
:10084000BD007C2034088000840ABD0B212C7C2054
:100850007C207C203308D6003408D5007C20330867
:10086000E0003408DF007C203308E2003408E100B7
:100870007C203308E4003408E300433099001A3048
:10088000BD005530840000089900840A0226BD0B83
:10089000432C292855257C203308EE003408ED0030
:1008A0000F261C2C361435167C203308E000340843
:1008B000DF00DA25573084000430BD007C20340886
:1008C0008000840ABD0B5E2C3D2C7C203308E000A8
:1008D0003408DF0055257C203308EE003408ED0095
:1008E000573084000430BD007C2034088000840A26
:1008F000BD0B742C7C203308E2003408E1003D2C51
:100900000826BF005D26351D9D2CBE01AD01AE0140
:10091000361025185C257C2033083F06031D9F2CCC
:100920003408FF3A031D9F2CBE0B892C20082D068E
:1009300003199D2C42309900892C59300829251C17
:10094000A32C4330B61D4E3008296526351DB72C23
:10095000AD01AE018B203408FF3A031DB92C2208EB
:100960002D06031DAA2C23082E06031DAA2C593080
:1009700008294E3008290000AA28C025C825D324FC
:100980000F260230F2257F30B100FE30B200E225A2
:10099000D3240F260330F2257F30B100FE30B200A1
:1009A000E225D32407290130F2253D260730F22520
:1009B0003D260830F22558260130F2253D26073025
:1009C000F2253D260800C0250930F2255826582674
:1009D00007290930F2255826C0250930F225582666
:1009E0000B30F2255826072958263C30CE00CF017F
:1009F0000430D000B7260C306627803084270030C2
:100A000084276227003084270030842762275826F5
:100A100058260F260729C0251F30F22558260729FA
:100A2000CE250930F225582658260729D925093020
:100A3000F2255826582607290826AF000826B000B8
:100A40000826CA000826CB0055254A20B51C2A2DA9
:100A500043300829A51C07290F26C025C8254A08A8
:100A6000AF004B08B0004A20B51C072946300829C2
:100A70000826AF000826B0000826CA000826CB00CA
:100A8000CE2555254A20B51C472D43300829CE25B3
:100A9000CE25CE25CE25CE254A08AF004B08B00086
:100AA0004A20B51C072942300829AE01AD01CE25E8
:100AB0005C25B61D572D0800B61120032D06031D19
:100AC0000800FF302E060319B615080070250830FF
:100AD000F225080070251830B51B0830F2250800F3
:100AE0003008B2002F08B1000310B20DB10D023072
:100AF000F225E2250800B5140430F225A3253308B9
:100B00002F06031D0800340830060319B51008002D
:100B1000B2003F30B1000330F2250310B20DB10D29
:100B2000E2250830F2250800B2003F30B100033062
:100B3000F2250310B20DB10DE2251830F2253F2643
:100B40001730F225080083160514831200001030B8
:100B5000BC00851400008510000003100518031464
:100B6000B30CB40CBC0BA92D051083160510831211
:100B70000310B30CB40C3F30351A0F30B305080026
:100B80000030F2257F30B100FE30B200E2250800CF
:100B90000730C000CE25C00BCA2D08000630F22554
:100BA000AE0F0800AD0A080035160630F2253614DF
:100BB0000800CE25AD01AE01CE252D082006031D6F
:100BC000DC2D08001030BC00B10CB20C85140318E9
:100BD000EC2D00000510EE2D0514EE2D8510BC0B3C
:100BE000E42D0800B8000630B900B80C85140318CD
:100BF000FC2D00000510FE2D0514FE2D8510B90BEF
:100C0000F52D080083160000981C032E831208009F
:100C1000830100008C1E092E1A08B7000800351445
:100C200095275826B4282F26242E2F262B2631260A
:100C3000242E2F262B263326242E31262B262F2614
:100C4000242E33262B262F263518282E56300829F9
:100C5000351050260800A51D502648260800861687
:100C600008000617080086170800952750267630DA
:100C700008293F260E30F22508000130402E2608B4
:100C8000BA003030BB00BB0B432EBA0B412E08001C
:100C90004D264D264D264D264D2608000000080005
:100CA000BB011030BA00BB0B532EBA0B532E0800F9
:100CB0005026502650265026080035152008031DC2
:100CC0000800210803193511080035152208031DF5
:100CD0000800230803193511080055308400FF303F
:100CE0008000840A6F300406031D6F2E0800351142
:100CF0003F30351A0F302F06031D08003008FF3A29
:100D00000319351508008C26EA26D001CF01CE0143
:100D1000B726D40136140800251D08003C30CE004B
:100D2000CF010630D000B7260C306627003084276C
:100D30000030842708000D309E2E0F3066273008C3
:100D400084272F088427D0250800D001CF01CE01A9
:100D5000AD01AE01B726361408003030B02E203079
:100D6000CE00CF01D001B726AD01AE010800622749
:100D7000500884270E3084276227F63084276E308F
:100D8000842762274F0884270E3084276227F73094
:100D900084276E30842762274E0884270E308427EC
:100DA0006227F83084276E308427080066270030D9
:100DB00084278316051483120830BC0085144E2640
:100DC00085104E26031005180314D30CBC0BDE2E21
:100DD000530808006227A63084278E3084276227B4
:100DE000A63084279C30842708006227A6308427F9
:100DF0009E3084276227A63084279C308427622770
:100E0000003084270E3084276227A93084276E3073
:100E1000842736140800CC0062274C0884270E3043
:100E200084276227A83084276E3084276227A63063
:100E30008427843084276227553084270E30842706
:100E40006227A73084276E3084276227AA30842740
:100E50000E3084276227A73084276E3084276227CC
:100E6000A630842782308427622703018427030168
:100E70008427622732304026030184270301842718
:100E80006227A6308427943084275C27D025080069
:100E90006227A6308427803084276227A8308427E1
:100EA000503084276227F53084276E308427023043
:100EB000D6265C27530808006227A93084272A30E9
:100EC000842708000301662F0301B516D1004E26C2
:100ED00085144E268316051083124E260430BC005E
:100EE0000510D10C031805144E2685144E26B51E88
:100EF0007D2F3C0B7D2F3F26B51285104E26BC0B57
:100F0000702F85014E260800D1000830BC008501F5
:100F1000D10C031805144E2685144E2685104E2636
:100F2000BC0B872F85014E26080085010430860002
:100F300083160730850002308600831208001812DD
:100F40001A081A081A08181608000130082983160A
:100F500008309B00B3279900B32799000226B327D6
:100F60009900B327082983161C141A089B0A8312B8
:100F700008005530840008268000840A6D3004067D
:0A0F8000031DBB2F5530840008004C
:02400E002A3F47
:10420000500072006F0074006F003A002000200020
:084210005000300031003800BD
:00000001FF
