:040000008626D42854
:08000800FF00030E8301F1006B
:100010000408F200700884001A088000840AF00ABC
:100020008C1A0C286F181928C030040603196F1594
:100030001D28E03004060319EF1572088400710EC4
:100040008300FF0E7F0E090050309900B501B60104
:10005000EF01CE27DE30860527263708193C031C22
:10006000C428370882072A280229C2282B29B62843
:100070005C2E2F2E36299D29BA293B2DBC29D0294B
:100080009C28DB2CA02CC52C792806291729DF2FCA
:10009000E12F1C2B102C572D24088207E229E2297E
:1000A000E229322AC428C428142A1B2A142A222A04
:1000B000322A442A1B2A24088207472A472A472A29
:1000C000592AC428C428502AC428502A592A592AEF
:1000D000C428C42824088207622A622A622A552B6F
:1000E000C428C428722B7B2B722B7F2B8A2BA32B2B
:1000F000AD2B240882077E2A8E2AA82A240882078C
:10010000CA2BCA2BCA2BD72BC428C428D72BD72B32
:10011000D72BD72BD72BDC2BD72B24088207DF2B11
:10012000DF2BDF2BE52BC428C428E52BC428E52BC7
:10013000E52BE52BC428C428A32624088207EA2B34
:10014000EA2BEA2B2D2CC428C4283C2C3C2C6A2CEE
:100150003C2C3C2C722C852C28088207DD2C032D8E
:10016000082D042D132D2A2D2F2D352D8316023009
:1001700086008312862627088207372E392E392ECD
:100180003E2E3E2E27262929061212118316051609
:100190008312CE270613CC288617CE2827263F3079
:1001A00099003F309900D328CE278316123099004A
:1001B0002430980083129030980036309F008316C8
:1001C0009530920083124B309500003092000C3035
:1001D0009700862642309900053099008613F02852
:1001E0000617F22880260613F5288617F72880269A
:1001F000CE27B501272650303706031924280229B7
:1002000058300329513099001A08F82841309900D4
:10021000831612308600831286128E268E268E2634
:1002200086167A26061E0C2959309900F828413086
:100230009900831612308600831286128E268E262F
:100240008E2686167A26061A1D2959309900F82816
:10025000593099002A280B30C1002030840027260D
:100260008000840AC10B2F29493029292726AB0099
:100270002726AC00AD01AE013610EF01A030F00032
:10028000D92783168C168312C0308B005930990001
:100290006F1D48296F14EF1159309900A030840068
:1002A0000008AF00840A0008B000840A4C20B5188A
:1002B00083292D082B06031D61292E082C060319FE
:1002C0009529EF187329C0300406031D5029EF1D2E
:1002D0006729EF14C03084006F10A030F0006F1158
:1002E000593099005029E0300406031D50296F1D34
:1002F0007729EF10A03084006F14C030F000EF11A8
:1003000059309900502983168C1283128B018E2646
:10031000D9274E30990021262D0899002E089900E2
:100320002126330899003408292983168C12831258
:100330008B018E26D927503029292726AB00272666
:10034000AC00AD01AE013610593099008C1EA629C3
:100350001A08AF008C1EAA291A08B0002D082B0617
:10036000031DB6292E082C0603199529593099002A
:100370005B20A629F3276A28AD01AE0136108C1A3E
:100380002A287E20212633089900340899002D0858
:100390002006031DBF292E082106031DBF292A2878
:1003A000AD01AE0136108C1A2A288D202126340882
:1003B00099002D082206031DD3292E082306031DAC
:1003C000D3292A28361CB9265408033A0319EB29E5
:1003D000D40AD1260800D3269A270301BB2703019C
:1003E000BB270830D007031CF829CF0A0319CE0A0F
:1003F000ED26D4010800361CF325AD2635193A2A1E
:10040000C801C90185256926C80A2A08C9079A258D
:10041000B51C0F2A29084806031D022A3A2A8525F9
:100420006926C90B0F2A3A2AAD2635193A2A85259D
:100430006F269A253A2AAD2635193A2A8525692646
:100440009A253A2AAD2635193A2A89256F26B51FED
:100450002E2A0830C1006F26C10B2B2A1730112617
:100460009A253A2A361CBF268F255408033A0319C9
:100470003C2AD40AED250800183011266F261730C3
:100480001126ED25D4010800361CF3251B2A361849
:100490004B2A2B2736142F08412730084127080004
:1004A0002F08A7256F26ED253008A7256F26ED25F7
:1004B00008002F08B3256F26ED253008B3256F26D9
:1004C000ED2508002027E5265708B0005808AF00A2
:1004D000D1265908B0005A08AF00D1265B08B000F9
:1004E0005C08AF00D1265D08B0005E08AF00D326DF
:1004F0009A270301BB270301BB272829F327B12231
:10050000FB220230F6220430F6220630F6220830B2
:10051000F6220C30F6220A30F6222829F327B122DF
:10052000D922D922D922D922D922023084073030C7
:10053000CE00CF010C30D000ED26D9220430840249
:100540003030CE00CF010A30D000ED26D922282944
:10055000F327C226B1220730D200D922D20BAD2A0E
:1005600028299827A630BB278E30BB279827A6308E
:10057000BB278C30BB27E3265F3084000800F327BD
:10058000B122D922D922D922D922D92202308407F4
:100590003030CE00CF010C30D000ED26D92204300F
:1005A00084023030CE00CF010A30D000ED26D922AF
:1005B00028290008B000840A0008AF00840AD32666
:1005C00098270301BB270301BB279827F630BB27D9
:1005D0002A30BB27D3269A270301BB270301BB2759
:1005E0009827F630BB272A30BB270800D0003030D0
:1005F000CE00CF01ED260008B000840A0008AF004D
:10060000840AD3269A270301BB270301BB27982717
:10061000F630BB272A30BB27D3269A270301BB27F6
:100620000301BB270430C10098270301BB27030146
:10063000BB27C10B142B08002726C5002726C600A0
:100640002726C700C22620272030CE00CF01283021
:10065000D000ED264708B000EF30AF00D1264608A5
:10066000B0004508AF00D126FF30B000AF00D12662
:10067000FF30B000AF00D3269A270301BB27030148
:10068000BB278E261A2443084706031D532B440814
:10069000EF3A031D532B42084606031D532B410816
:1006A0004506031928294E302929B5158A2B5F30B4
:1006B00084006008AF005F08B0006430C900852581
:1006C0006926C90B5F2B2829BA235F308400600894
:1006D000AF005F08B0006430C90085256926C90BEA
:1006E0006D2B2829BA235F3084006008AF005F08B3
:1006F000B0004C202829B511251AB5158A2BBA232C
:100700005F3084006008AF005F08B000B5174C2070
:10071000B51328293610BA235F3084009623B51DFF
:100720002829ED2561308400962328290008B0008F
:10073000840A0008AF0084038F25183011266F2625
:10074000173011260800361435166008AF005F0810
:10075000B0004C20F925BB2328296008AF005F08B2
:10076000B0004C207425ED25ED25ED25ED25ED257A
:10077000BB232829DF25573084000008B000AF01D3
:100780004C20840A5B300406031DBD2BED25ED25AE
:10079000ED250800361CDB2609300C27B400093093
:1007A0000C27B300EF250800361CF325D72B0430A7
:1007B0001126C225ED250800361CF325D72B361C43
:1007C0002B277E27B400EF25080005301126C2250F
:1007D000ED2508003F30CE00FF30CF00FE30D000C6
:1007E000ED2609300C27D50009300C27D600E52668
:1007F000573084000830D20009300C278000840A6A
:10080000D20BFC2BE3260730D20009300C278000E6
:10081000840A09300C278000840AD20B052C5D2C39
:100820001A24440899004108990021264208990099
:10083000430829292830D000CF012030CE00ED26F2
:1008400009300C27C30009300C27C40009300C27DD
:10085000C20009300C27C1000800B5153C2C361425
:100860007E203308E0003408DF0074257E20330842
:10087000EE003408ED005D2CDF2557308400043095
:10088000BD007E2034088000840ABD0B412C7E20F0
:100890007E207E203308D6003408D5007E20330821
:1008A000E0003408DF007E203308E2003408E10075
:1008B0007E203308E4003408E300433099001A3006
:1008C000BD005530840000089900840A2126BD0B24
:1008D000632C2A2874257E203308EE003408ED00AE
:1008E0002E263C2C361435167E203308E0003408C2
:1008F000DF00F925573084000430BD007E20340825
:100900008000840ABD0B7E2C5D2C7E203308E00025
:100910003408DF0074257E203308EE003408ED0033
:10092000573084000430BD007E2034088000840AE3
:10093000BD0B942C7E203308E2003408E1005D2CCE
:100940002726BF009326351DBD2CBE01AD01AE018B
:10095000361025187B257E2033083F06031DBF2C4B
:100960003408FF3A031DBF2CBE0BA92C20082D060E
:100970000319BD2C42309900A92C59302929251C76
:10098000C32C4330361E4E3029299B26351DD72CCB
:10099000AD01AE018D203408FF3A031DD92C220889
:1009A0002D06031DCA2C23082E06031DCA2C593000
:1009B00029294E3029290000AC28DF25E725F3241A
:1009C0002E26023011267F30B100FE30B200012603
:1009D000F3242E26033011267F30B100FE30B20002
:1009E0000126F3242829013011266D26073011260F
:1009F0006D26083011268E26013011266D2607300F
:100A000011266D260800DF25093011268E2628299B
:100A1000093011268E26DF25093011268E260B304F
:100A200011268E2628298E263C30CE00CF01043098
:100A3000D000ED260C309C278030BB270030BB2730
:100A400098270030BB270030BB2798278E268E269C
:100A50002E262829DF251F3011268E262829ED2550
:100A6000093011268E268E262829F82509301126D0
:100A70008E268E2628292726AF002726B000272677
:100A8000CA002726CB0074254C20B51C492D4330C5
:100A90002929A51C28292E26DF25E7254A08AF008D
:100AA0004B08B0004C20B51C2829463029292726A0
:100AB000AF002726B0002726CA002726CB00ED2549
:100AC00074254C20B51C662D43302929ED25ED25D4
:100AD000ED25ED25ED254A08AF004B08B0004C2070
:100AE000B51C282942302929AE01AD01ED257B2511
:100AF000361E762D0800361220032D06031D080031
:100B0000FF302E060319361608008F2508301126EF
:100B100008008F251830B51B083011260800300852
:100B2000B2002F08B1000310B20DB10D0230112632
:100B300001260800B51404301126C22533082F06FB
:100B4000031D0800340830060319B5100800B20070
:100B50003F30B100033011260310B20DB10D012654
:100B6000083011260800B2003F30B10003301126D2
:100B70000310B20DB10D0126183011266F26173063
:100B80001126080083160614831200001030BC00E2
:100B90008616000086120000031006180314B30C1A
:100BA000B40CBC0BC82D061083160610831203105C
:100BB000B30CB40C3F30351A0F30B30508000030C9
:100BC00011267F30B100FE30B20001260800073048
:100BD000C000ED25C00BE92D080006301126AE0F30
:100BE0000800AD0A08003516063011263614080034
:100BF000ED25AD01AE01ED252D082006031DFB2DD1
:100C000008001030BC00B10CB20C861603180B2E75
:100C1000000006100D2E06140D2E8612BC0B032E9E
:100C20000800B8000630B900B80C861603181B2E51
:100C3000000006101D2E06141D2E8612B90B142E50
:100C4000080083160000981C222E831208008301DE
:100C500000008C1E282E1A08B70008003514061252
:100C60001211831605168312CE278E26B628552616
:100C7000422E4E26552651265726422E4E265726C0
:100C8000512655268E2635184B2E8613472E0617CD
:100C9000492E5630292935108626080012158E2631
:100CA0000800A51D8E267A26080006160800831661
:100CB000051283120512080006121211831605167A
:100CC0008312CE2786260613652E8617672E76306A
:100CD00029296F260E30112608000130702E2608B3
:100CE000BA003030BB00BB0B732EBA0B712E08005C
:100CF000000008007F267F267F267F267F260800AB
:100D00001930C1008626C10B822E0800BB011030AD
:100D1000BA00BB0B892EBA0B892E080086268626C0
:100D200086268626080035152008031D08002108A0
:100D300003193511080035152208031D0800230882
:100D400003193511080055308400FF308000840AF3
:100D50006F300406031DA52E080035113F30351AEB
:100D60000F302F06031D08003008FF3A0319351510
:100D70000800C2262027D001CF01CE01ED26D401E4
:100D800036140800251D08003C30CE00CF01063087
:100D9000D000ED260C309C270030BB270030BB274D
:100DA00008000D30D42E0F309C273008BB272F08A9
:100DB000BB27EF250800D001CF01CE01AD01AE0168
:100DC000ED26361408003030E62E2030CE00CF015C
:100DD000D001ED26AD01AE01080098275008BB27D1
:100DE0000E30BB279827F630BB276E30BB279827DD
:100DF0004F08BB270E30BB279827F730BB276E3034
:100E0000BB2798274E08BB270E30BB279827F83002
:100E1000BB276E30BB2708009C270030BB278316FA
:100E2000061483120830BC008616782686127826AF
:100E3000031006180314D30CBC0B142F530808001E
:100E40009827A630BB278E30BB279827A630BB2714
:100E50009C30BB2708009827A630BB279E30BB27B5
:100E60009827A630BB279C30BB2798270030BB278C
:100E70000E30BB279827A930BB276E30BB2736140E
:100E80000800CC0098274C08BB270E30BB279827BA
:100E9000A830BB276E30BB279827A630BB278430ED
:100EA000BB2798275530BB270E30BB279827A73084
:100EB000BB276E30BB279827AA30BB270E30BB2735
:100EC0009827A730BB276E30BB279827A630BB27B3
:100ED0008230BB2798270301BB270301BB27982734
:100EE000323070260301BB270301BB279827A630A9
:100EF000BB279430BB279227EF2508009827A63000
:100F0000BB278030BB279827A830BB275030BB2792
:100F10009827F530BB276E30BB2702300C2792276D
:100F2000530808009827A930BB272A30BB270800A0
:100F300003019C2F0301B516D1007826861678266A
:100F400083160610831278260430BC000610D10CDC
:100F500003180614782686167826B51EB32F3C0B88
:100F6000B32F6F26B51286127826BC0BA62FDE3063
:100F7000860578260800D1000830BC00DE308605E2
:100F8000D10C031806147826861678268612782641
:100F9000BC0BBE2FDE308605782608001030850099
:100FA0008430860083161730850023308600831234
:100FB000080018121A081A081A081816080005302E
:100FC0002929831608309B00ED279900ED27990009
:100FD0002126ED279900ED27292983161C141A08CC
:100FE0009B0A831208005530840027268000840A5B
:0E0FF0006D300406031DF52F553084000800F7
:02400E002A3F47
:10420000500072006F0074006F003A002000200020
:084210005000300031003800BD
:00000001FF
