:020000040000FA
:02000000BF2817
:08000800FF00030E8301F1006B
:100010000408F200700884001A088000840AF00ABC
:100020008C1A0C286F181928C030040603196F1594
:100030001D28E03004060319EF1572088400710EC4
:100040008300FF0E7F0E090050309900B101B2010C
:10005000EF01DE308605C5253408193C031CB028A5
:10006000340882072928ED28AE281E29A728F62D56
:10007000CD2D36299E29BB29FF2CBD29D1299128B8
:10008000F92CA62C6B2C902C7228F1280629902F85
:10009000922FDB2A0C2C20088207B028E329E329C1
:1000A0003D2AB028B028182A202A182A282A3D2AB2
:1000B00020088207B0284F2A4F2A612AB028B0288A
:1000C000582AB028582A612A612A20088207B028B5
:1000D0006A2A6A2A152BB028B0284A2B4A2B4A2BA9
:1000E000662B842B20088207B028872AA12A2008A3
:1000F0008207B028C92BC92BD62BB028B028D62B05
:10010000D62BD62BD62BD62B20088207B028DB2B5C
:10011000DB2BE12BB028B028E12BB028E12BE12B21
:10012000E12B3C2620088207B028E62BE62B292C61
:10013000B028B028382C382C632C382C382C3D08AB
:100140008207A82CCE2CD32CB028DB2CF42C220830
:100150008207D42DD62DD92DDC2DDF2DC5251C29C8
:10016000061212118316051683120613B728861776
:10017000B928C5253F3099003F309900BE287F2718
:100180008316123099002430980083129030980022
:1001900036309F0083169530920083124B309500C5
:1001A000003092000C3097001F264230990000303A
:1001B00099008613DB280617DD2819260613E02888
:1001C0008617E22819267F27B101C525503034064D
:1001D00003192428ED285830EE28513099001A08C8
:1001E000E3288316061683124130990086122726CB
:1001F0002726272686161326061EF628861206129E
:1002000083160612831259309900E32883160616C6
:100210008312413099008612272627262726861624
:100220000626061A0B298612061283160612831258
:1002300059309900E328593099002928C525A30091
:10024000C525A400C525A700C525A800C525A00073
:10025000C525B300C525A100C525A200C525BD0043
:10026000C525C600C525C70049301C29C525A500E0
:10027000C525A600A901AA013210EF01A030F000A7
:100280008A2783168C168312C0308B005930990050
:100290006F1D48296F14EF1159309900A030840068
:1002A0000008AB00840A0008AC00840A4B20B11897
:1002B000832929082506031D61292A082606031912
:1002C0009629EF187329C0300406031D5029EF1D2D
:1002D0006729EF14C03084006F10A030F0006F1158
:1002E000593099005029E0300406031D50296F1D34
:1002F0007729EF10A03084006F14C030F000EF11A8
:1003000059309900502983168C1283128B012726AD
:100310008A274E309900BF25290899002A0899009C
:10032000BF252F08990030089900F62D83168C12EE
:1003300083128B0127268A2750301C29C525A5004A
:10034000C525A600A901AA013210593099008C1EBA
:10035000A7291A08AB008C1EAB291A08AC00290883
:100360002506031DB7292A082606031996295930A0
:1003700099005820A729A4276528A901AA013210AD
:100380008C1A29287720BF252F089900300899005A
:1003900029082306031DC0292A082406031DC02995
:1003A0002928A901AA0132108C1A29288420BF25E6
:1003B0003008990029082706031DD4292A08280691
:1003C000031DD4292928321C52265408033A031944
:1003D000EC29D40A6A2608006C2600304C27030159
:1003E0006C2703016C270830D007031CFA29CF0AB9
:1003F0000319CE0A8626D4010800321C9A25002A49
:1004000046263119162AC801C9012C250226C80A18
:100410004708C9074125B11C122A46084806031D92
:10042000052A08002C250226C90B122A942508004B
:10043000462631191E2A2C25082641259425080018
:1004400046263119262A2C25022641259425080006
:10045000462631193B2A30250826B11F382A08269E
:10046000082608260826082608260826082608261C
:100470001730AF25412594250800321C5826362513
:100480005408033A0319472AD40A9425080018305F
:10049000AF2508261730AF259425D401080032185F
:1004A000532ACC2632142B08E6262C08E626080010
:1004B0002B084E25082694252C084E250826942521
:1004C00008002B085A25082694252C085A250826AA
:1004D00094250800BF267E265708AC005808AB00BC
:1004E0006A265908AC005A08AB006A265B08AC00C3
:1004F0005C08AB006A265D08AC005E08AB006C26A9
:1005000000304C2703016C2703016C271B29A4270B
:10051000AA22BA22BA22BA22BA22BA220230840706
:100520003030CE00CF010C30D0008626BA22043005
:1005300084023030CE00CF010A30D0008626BA22A5
:100540001B29A4275B26AA220730D200BA22D20B8D
:10055000A62A1B2900304D27A6306C278E306C2729
:1005600000304D27A6306C278C306C277C265F30FE
:10057000840008000008AC00840A0008AB00840A6C
:100580006C2600304C2703016C2703016C270030D8
:100590004D27F6306C272A306C276C2600304C270C
:1005A00003016C2703016C2700304D27F6306C27C0
:1005B0002A306C270800C525C300C525C400C52501
:1005C000C5005B26BF262030CE00CF012830D000EA
:1005D00086264508AC00EF30AB006A264408AC0024
:1005E0004308AB006A26FF30AC00AB006A26FF3040
:1005F000AC00AB006C2600304C2703016C270301D4
:100600006C272726162441084506031D132B420894
:10061000EF3A031D132B40084406031D132B3F081C
:10062000430603191B294E301C29B115842B5F305A
:1006300084006008AB005F08AC006430C9002C2562
:100640000226C90B1F2B4125FF30B11800301C2991
:100650008625573084000008AC00AB014B20B11850
:10066000482B840A5B300406031D2B2B942594250C
:1006700094255F3084006008AB005F08AC006430F4
:10068000C9002C250226C90B412B4125FF30B1188A
:1006900000301C298625573084000008AC00AB01CF
:1006A0004B20B118642B840A5B300406031D4D2BCC
:1006B0009425942594255F3084006008AB005F0882
:1006C000AC004B20FF30B11800301C298625573074
:1006D00084000008AC00AB014B20B118822B840AC7
:1006E0005B300406031D692B9425942594255F3007
:1006F00084006008AB005F08AC00B1174B20B11359
:10070000FF30B11800301C29321086255730840084
:100710000008AC00AB014B20840A5B300406031DCB
:10072000882B862557308400D62300083006031D09
:10073000AF2B840A5B300406031D942B942594256B
:1007400094255F308400B123311DAF2BB11DAD2B3B
:100750009425840AB123311DAF2BFF301C290030B2
:100760001C290008AC00840A0008AB00840336256D
:100770001830AF2508261730AF25D62331110008D1
:100780002C06031D0800840A00082B0603193115E6
:100790000800321C74260930AB26B0000930AB26A5
:1007A000AF0096250800321C9A25D62B0430AF25C1
:1007B000692594250800321CCC262E27B0009625EA
:1007C00008000530AF256925942508003F30CE008C
:1007D000FF30CF00FE30D00086260930AB26D50092
:1007E0000930AB26D6007E26573084000830D20070
:1007F0000930AB268000840AD20BF82B7C26073008
:10080000D2000930AB268000840A0930AB26800074
:10081000840AD20B012C562C1624420899003F085A
:100820009900BF254008990041081C292830D000B4
:10083000CF012030CE0086260930AB26C10009301A
:10084000AB26C2000930AB26C0000930AB26BF0082
:100850000800B115382C321477202F08E00030083A
:10086000DF001B2577202F08EE003008ED00562C06
:100870008625573084000430BA0077203008800085
:10088000840ABA0B3D2C7720772077202F08D600DA
:100890003008D50077202F08E0003008DF00B11DB8
:1008A000562C77202F08E2003008E10043309900F1
:1008B0001A30BA005530840000089900840ABF2518
:1008C000BA0B5C2C29281B2577202F08EE00300856
:1008D000ED00CC25382CC525BC002C26311D882CDC
:1008E000BB01A901AA0132103318222577202F0855
:1008F0003C06031D8A2C3008FF3A031D8A2CBB0BD3
:10090000742C230829060319882C42309900742C72
:1009100059301C29331C8E2C321A882C4E301C293D
:100920003426311DA22CA901AA0184203008FF3AE7
:10093000031DA42C27082906031D952C28082A0628
:10094000031D952C59301C294E301C2900009F286E
:1009500086258E25BE24CC250230AF257F30AD0004
:10096000FE30AE009F25BE24CC250330AF257F305E
:10097000AD00FE30AE009F25BE241B290130AF25FF
:1009800006260730AF2506260830AF25272601307A
:10099000AF2506260730AF25062608008625093034
:1009A000AF2527261B2986250930AF2527260B30A2
:1009B000AF2527261B2927263C30CE00CF01043047
:1009C000D00086260C304D2780306C2700306C27F5
:1009D00000304D2700306C2700306C2700304D2749
:1009E00027262726CC251B2986251F30AF2527261D
:1009F0001B291B2577202F08990030081C29C525A5
:100A0000AB00C525AC00C525CA00C525CB001B25FC
:100A10004B20B11C0D2D43301C29B31C1B29CC25A8
:100A200086258E254A08AB004B08AC004B20B11C34
:100A30001B2946301C29AA01A90194252225321E12
:100A40001D2D0800321223032906031D0800FF3064
:100A50002A0603193216080036250830AF2508008B
:100A600036251830B11B0830AF2508002C08AE0021
:100A70002B08AD000310AE0DAD0D0230AF259F2544
:100A80000800B1140430AF2569252F082B06031D7B
:100A9000080030082C060319B1100800AE003F30E2
:100AA000AD000330AF250310AE0DAD0D9F2508300E
:100AB000AF250800AE003F30AD000330AF25031076
:100AC000AE0DAD0D9F251830AF2508261730AF2588
:100AD000080083160614831200001030B900861631
:100AE000000086120000031006180314AF0CB00CAF
:100AF000B90B6F2D06108316061083120310AF0C6E
:100B0000B00C3F30311A0F30AF0508000030AF2570
:100B10007F30AD00FE30AE009F2508000730BE00DC
:100B20009425BE0B902D08000630AF25AA0F0800B3
:100B3000A90A08000630AF2532143116080010301B
:100B4000B900AD0CAE0C86160318A92D00000610D6
:100B5000AB2D0614AB2D8612B90BA12D0800B500E4
:100B60000630B600B50C86160318B92D0000061025
:100B7000BB2D0614BB2D8612B60BB22D08008316B2
:100B80000000981CC02D83120800830100008C1EF9
:100B9000C62D1A08B400080031140612121183166B
:100BA000051683122726A728EB25E12DEB25EE2538
:100BB000E12DEB25EE25E12DEE25EB25E12DEE25B2
:100BC000EB253118E92D8613E52D0617E72D563054
:100BD0001C293110080006162726080012152726A2
:100BE00083160512831205121F2608000612121121
:100BF0008316051683121F260613FE2D8617002E58
:100C000076301C2908260E30AF2508000130092E49
:100C10002108B7003030B800B80B0C2EB70B0A2EE5
:100C2000080000000800182618261826182618267E
:100C300008001930BF001F26BF0B1B2E0800B8018B
:100C40001830B700B80B222EB70B222E08001F2633
:100C50001F261F261F26080031152308031D080024
:100C6000240803193111080031152708031D080055
:100C7000280803193111080055308400FF30800026
:100C8000840A6F300406031D3E2E080031113F30E8
:100C9000311A0F302B06031D08002C08FF3A0319E8
:100CA000311508005B26BF26D001CF01CE01862674
:100CB000D40132140800331D08003C30CE00CF01AF
:100CC0000630D00086260C304D2700306C270030CF
:100CD0006C2708000D306D2E0F304D272C086C2727
:100CE0002B086C2796250800D001CF01CE01A90161
:100CF000AA0186263214080030307F2E2030CE0024
:100D0000CF01D0018626A901AA01080000304D2795
:100D100050086C270E306C2700304D27F6306C27BA
:100D20006E306C2700304D274F086C270E306C2733
:100D300000304D27F7306C276E306C2700304D2780
:100D40004E086C270E306C2700304D27F8306C278A
:100D50006E306C2708004D2700306C278316061470
:100D600083120830B9008616112686121126031048
:100D700006180314D30CB90BB32E53080800003027
:100D80004D27A6306C278E306C2700304D27A630BB
:100D90006C279C306C27080000304D27A6306C274C
:100DA0009E306C2700304D27A6306C279C306C2776
:100DB00000304D2700306C270E306C2700304D2757
:100DC000A9306C276E306C2732140800CC0000303C
:100DD0004D274C086C270E306C2700304D27A8306B
:100DE0006C276E306C2700304D27A6306C2784307E
:100DF0006C2700304D2755306C270E306C270030A3
:100E00004D27A7306C276E306C2700304D27AA3055
:100E10006C270E306C2700304D27A7306C276E30C2
:100E20006C2700304D27A6306C2782306C270030AD
:100E30004D2703016C2703016C2700304D2732300A
:100E4000092603016C2703016C2700304D27A630CB
:100E50006C2794306C2745279625080000304D27D5
:100E6000A6306C2780306C2700304D27A8306C27C7
:100E700050306C2700304D27F5306C276E306C27D2
:100E80000230AB2645275308080000304D27A93013
:100E90006C272A306C270800B116D100112686165F
:100EA000112683160610831211260430B90006108D
:100EB000D10C03180614112686161126B11E642FB4
:100EC000390B642F0826B11286121126B90B572F41
:100ED000DE30860511260800D1000830B900DE306A
:100EE0008605D10C031806141126861611268612C3
:100EF0001126B90B6F2FDE30860511260800103041
:100F00008500843086008316173085000230860005
:100F10008312080018121A081A081A08181608006E
:100F200000301C29831608309B009E2799009E27BD
:100F30009900BF259E2799009E271C2983161C1403
:100F40001A089B0A8312080055308400C5258000CA
:100F5000840A6D300406031DA62F55308400080056
:02400E002A0383
:10420000500072006F0074006F003A002000200020
:084210005000300031003300C2
:00000001FF
