:020000040000FA
:02000000B7281F
:08000800FF00030E8301F1006B
:100010000408F200700884001A088000840AF00ABC
:100020008C1A0C286F181928C030040603196F1594
:100030001D28E03004060319EF1572088400710EC4
:100040008300FF0E7F0E090050309900B101B2010C
:10005000EF018501A6253408193C031CAF2834089C
:1000600082072928D128AD28FF28A628CD2DAE2D1E
:1000700017297F299C29E02C9E29B2299028DA2C67
:10008000872C4C2C712C7128D528E728562F582FF7
:10009000BC2AED2B20088207AF28C429C4291E2AB8
:1000A000DE29E129F929012AF929092A1E2A20082D
:1000B0008207AF28302A302A422AAF28AF28392AAF
:1000C000AF28392A422A422A20088207AF284B2A21
:1000D0004B2AF62AF82A092B2B2B2B2B2B2B472BC1
:1000E000652B20088207AF28682A822A2008820709
:1000F000AF28AA2BAA2BB72BB42BB72BB72BB72B18
:10010000B72BB72BB72B20088207AF28BC2BBC2BF3
:10011000C22BAF28AF28C22BAF28C22BC22BC22BB9
:10012000062620088207AF28C72BC72B0A2C0C2CC9
:10013000192C192C192C442C192C192C3D08820728
:10014000892CAF2CB42CAF28BC2CD52C22088207CC
:10015000B22DB42DB72DBA2DBD2DA625FD281F30EB
:100160008605A6253F3099003F309900B6284627DE
:1001700007309F00831612309900243098008312B4
:1001800090309800F12542309900013099004627BF
:10019000B101A6255030340603192428D12858303F
:1001A000D228513099001A08C7284130990085108B
:1001B000F125F125F1258514E125051DD7288510A8
:1001C000051183160511831259309900C72883162B
:1001D00005158312413099008510F125F125F1258F
:1001E0008514D6250519EC288510051183160511EF
:1001F000831259309900C728593099002928A6251B
:10020000A300A625A400A625A700A625A800A6252C
:10021000A000A625B300A625A100A625A200A6251C
:10022000BD00A625C600A625C7004930FD28A62585
:10023000A500A625A600A901AA013210EF01A03051
:10024000F000502783168C168312C0308B00593073
:1002500099006F1D29296F14EF1159309900A030B2
:1002600084000008AB00840A0008AC00840A4A201D
:10027000B118642929082506031D42292A082606E3
:1002800003197729EF185429C0300406031D3129BA
:10029000EF1D4829EF14C03084006F10A030F0002B
:1002A0006F11593099003129E0300406031D3129BE
:1002B0006F1D5829EF10A03084006F14C030F0007B
:1002C000EF1159309900312983168C1283128B015A
:1002D000F12550274E309900A025290899002A08B9
:1002E0009900A0252F08990030089900CD2D83167C
:1002F0008C1283128B01F12550275030FD28A62542
:10030000A500A625A600A901AA013210593099001E
:100310008C1E88291A08AB008C1E8C291A08AC0088
:1003200029082506031D98292A0826060319772976
:1003300059309900572088296A276428A901AA0101
:1003400032108C1A29287620A0252F089900300811
:10035000990029082306031DA1292A082406031D44
:10036000A1292928A901AA0132108C1A2928832041
:10037000A0253008990029082706031DB5292A0859
:100380002806031DB5292928321C1C265408033AC7
:100390000319CD29D40A3426080036260030162742
:1003A00003013527030135270830D007031CDB295B
:1003B000CF0A0319CE0A5026D4010800321C7B252F
:1003C000E12910263119F729C801C9010D25D225C7
:1003D000C80A4708C9072225B11CF3294608480660
:1003E000031DE62908000D25D225C90BF329752523
:1003F000080010263119FF290D25D825222575253D
:10040000080010263119072A0D25D2252225752529
:100410000800102631191C2A1125D825B11F192AC8
:10042000D825D825D825D825D825D825D825D825E4
:10043000D82517309025222575250800321C222644
:1004400017255408033A0319282AD40A75250800E9
:1004500018309025D825173090257525D40108002F
:100460003218342A962632142B08B0262C08B026CF
:1004700008002B082F25D82575252C082F25D825D1
:10048000752508002B083B25D82575252C083B250C
:10049000D82575250800892648265708AC00580835
:1004A000AB0034265908AC005A08AB0034265B0870
:1004B000AC005C08AB0034265D08AC005E08AB0005
:1004C0003626003016270301352703013527FC287F
:1004D0006A278B229B229B229B229B229B220230FB
:1004E00084073030CE00CF010C30D00050269B2244
:1004F000043084023030CE00CF010A30D0005026C4
:100500009B22FC286A2725268B220730D2009B22BB
:10051000D20B872AFC2800301727A63035278E30CB
:10052000352700301727A63035278C30352746264B
:100530005F30840008000008AC00840A0008AB00AB
:10054000840A362600301627030135270301352794
:1005500000301727F63035272A3035273626003069
:100560001627030135270301352700301727F630FA
:1005700035272A3035270800A625C300A625C40044
:10058000A625C500252689262030CE00CF0128309B
:10059000D00050264508AC00EF30AB0034264408AC
:1005A000AC004308AB003426FF30AC00AB0034266F
:1005B000FF30AC00AB00362600301627030135278C
:1005C00003013527F125F72341084506031DF42AC9
:1005D0004208EF3A031DF42A40084406031DF42A9A
:1005E0003F0843060319FC284E30FD28B115652B42
:1005F0005F3084006008AB005F08AC006430C90065
:100600000D25D225C90B002B2225FF30B118003053
:10061000FD286725573084000008AC00AB014A2054
:10062000B118292B840A5B300406031D0C2B752599
:10063000752575255F3084006008AB005F08AC004D
:100640006430C9000D25D225C90B222B2225FF308D
:10065000B1180030FD286725573084000008AC0031
:10066000AB014A20B118452B840A5B300406031DF8
:100670002E2B7525752575255F3084006008AB002D
:100680005F08AC004A20FF30B1180030FD28672514
:10069000573084000008AC00AB014A20B118632B2E
:1006A000840A5B300406031D4A2B752575257525C4
:1006B0005F3084006008AB005F08AC00B1174A20CF
:1006C000B113FF30B1180030FD28321067255730C4
:1006D00084000008AC00AB014A20840A5B300406A9
:1006E000031D692B672557308400B72300083006A7
:1006F000031D902B840A5B300406031D752B7525A2
:10070000752575255F3084009223311D902BB11D16
:100710008E2B7525840A9223311D902BFF30FD28E6
:100720000030FD280008AC00840A0008AB008403F8
:10073000172518309025D82517309025B72331116B
:1007400000082C06031D0800840A00082B06031964
:1007500031150800321C3E2609307526B0000930DC
:100760007526AF0077250800321C7B25B72B043097
:1007700090254A2575250800321C9626F826B000DB
:1007800077250800053090254A25752508003F305B
:10079000CE00FF30CF00FE30D00050260930752645
:1007A000D50009307526D600482657308400083019
:1007B000D200093075268000840AD20BD92B462638
:1007C0000730D200093075268000840A093075266A
:1007D0008000840AD20BE22B372CF72342089900C1
:1007E0003F089900A025400899004108FD282830BD
:1007F000D000CF012030CE00502609307526C10030
:1008000009307526C20009307526C00009307526EA
:10081000BF000800B115192C321476202F08E00013
:100820003008DF00FC2476202F08EE003008ED00B1
:10083000372C6725573084000430BA007620300802
:100840008000840ABA0B1E2C7620762076202F0892
:10085000D6003008D50076202F08E0003008DF00F1
:10086000B11D372C76202F08E2003008E10043301C
:1008700099001A30BA005530840000089900840AA3
:10088000A025BA0B3D2C2928FC2476202F08EE0049
:100890003008ED00AD25192CA625BC00F625311D2C
:1008A000692CBB01A901AA01321033180325762057
:1008B0002F083C06031D6B2C3008FF3A031D6B2CE0
:1008C000BB0B552C230829060319692C42309900CB
:1008D000552C5930FD28331C6F2CB219692C4E3021
:1008E000FD28FE25311D832CA901AA018320300893
:1008F000FF3A031D852C27082906031D762C28089E
:100900002A06031D762C5930FD284E30FD280000A4
:100910009E2867256F259F24AD25023090257F30C6
:10092000AD00FE30AE0080259F24AD25033090251C
:100930007F30AD00FE30AE0080259F24FC280130C2
:100940009025D62507309025D62508309025F1250D
:1009500001309025D62507309025D625080067253B
:1009600009309025F125FC28672509309025F125CF
:100970000B309025F125FC28F1253C30CE00CF012D
:100980000430D00050260C30172780303527003037
:100990003527003017270030352700303527003045
:1009A0001727F125F125AD25FC2867251F30902557
:1009B000F125FC28FC2476202F0899003008FD281A
:1009C000A625AB00A625AC00A625CA00A625CB000F
:1009D000FC244A20B11CEE2C4330FD28B31CFC281B
:1009E000AD2567256F254A08AB004B08AC004A20AF
:1009F000B11CFC284630FD28AA01A9017525032554
:100A0000B21DFE2C0800B21123032906031D0800A5
:100A1000FF302A060319B215080017250830902563
:100A2000080017251830B11B0830902508002C0845
:100A3000AE002B08AD000310AE0DAD0D02309025B9
:100A400080250800B114043090254A252F082B0674
:100A5000031D080030082C060319B1100800AE0071
:100A60003F30AD00033090250310AE0DAD0D802555
:100A7000083090250800AE003F30AD0003309025CF
:100A80000310AE0DAD0D802518309025D8251730F8
:100A90009025080083160514831200001030B90059
:100AA0008514000085100000031005180314AF0C16
:100AB000B00CB90B502D05108316051083120310CE
:100AC000AF0CB00C3F30311A0F30AF0508000030CA
:100AD00090257F30AD00FE30AE0080250800073045
:100AE000BE007525BE0B712D080006309025AA0F9B
:100AF0000800A90A080006309025321431160800B3
:100B00001030B900AD0CAE0C851403188A2D00000E
:100B100005108C2D05148C2D8510B90B822D080025
:100B2000B5000630B600B50C851403189A2D0000E8
:100B300005109C2D05149C2D8510B60B932D0800D7
:100B400083160000981CA12D831208008301000069
:100B50008C1EA72D1A08B400080031141F3086051A
:100B6000F125A628C525BF2DC525C825BF2DC5251E
:100B7000CA25BF2DC825C525BF2DCA25C5253118B5
:100B8000C32D5630FD28311008008616F1250800C7
:100B90000617CB2D8617E92508001F308605E925A5
:100BA0007630FD28D8250E30902508000130D92D4B
:100BB0002108B7003030B800B80BDC2DB70BDA2DA8
:100BC0000800E625E625E625E625E62508000000DE
:100BD0000800B8011830B700B80BEC2DB70BEC2D9E
:100BE0000800E925E925E925E9250800311523084C
:100BF000031D0800240803193111080031152708C6
:100C0000031D08002808031931110800553084001D
:100C1000FF308000840A6F300406031D082E080090
:100C200031113F30311A0F302B06031D08002C08FC
:100C3000FF3A03193115080025268926D001CF0176
:100C4000CE015026D40132140800331D08003C3078
:100C5000CE00CF010630D00050260C3017270030D0
:100C600035270030352708000D30372E0F30172775
:100C70002C0835272B08352777250800D001CF0110
:100C8000CE01A901AA015026321408003030492EA5
:100C90002030CE00CF01D0015026A901AA010800C2
:100CA00000301727500835270E303527003017271A
:100CB000F63035276E303527003017274F08352797
:100CC0000E30352700301727F73035276E3035279F
:100CD000003017274E0835270E30352700301727EC
:100CE000F83035276E3035270800172700303527B4
:100CF0008316051483120830B9008514E725851082
:100D0000E725031005180314D30CB90B7D2E5308E7
:100D1000080000301727A63035278E3035270030E1
:100D20001727A63035279C303527080000301727B5
:100D3000A63035279E30352700301727A6303527B7
:100D40009C30352700301727003035270E303527E7
:100D500000301727A93035276E30352732140800A8
:100D6000CC00003017274C0835270E3035270030CF
:100D70001727A83035276E30352700301727A630C3
:100D800035278430352700301727553035270E306A
:100D9000352700301727A73035276E30352700302C
:100DA0001727AA3035270E30352700301727A730F0
:100DB00035276E30352700301727A630352782308B
:100DC0003527003017270301352703013527003069
:100DD00017273230D9250301352703013527003085
:100DE0001727A6303527943035270F277725080099
:100DF00000301727A63035278030352700301727D9
:100E0000A83035275030352700301727F5303527E3
:100E10006E303527023075260F2753080800003042
:100E20001727A93035272A3035270800B116D100F9
:100E3000E7258514E725831605108312E72504307E
:100E4000B9000510D10C03180514E7258514E72512
:100E5000B11E2E2F390B2E2FD825B1128510E72564
:100E6000B90B212F8501E7250800D1000830B90012
:100E70008501D10C03180514E7258514E725851095
:100E8000E725B90B382F8501E725080085010430D7
:100E90008600831604308500023086008312080025
:100EA00018121A081A081A08181608000130FD2826
:100EB000831608309B006427990064279900A025B9
:100EC000642799006427FD2883161C141A089B0ABE
:100ED0008312080055308400A6258000840A6D30F6
:0C0EE0000406031D6C2F55308400080030
:02400E002A0383
:10420000500072006F0074006F003A002000200020
:084210005000300031003300C2
:00000001FF
