:02000000C52811
:08000800FF00030E8301F1006B
:100010000408F200700884001A088000840AF00ABC
:100020008C1A0C286F181928C030040603196F1594
:100030001D28E03004060319EF1572088400710EC4
:100040008300FF0E7F0E090050309900B101B2010C
:10005000EF018127DE308605C3253408193C031CD7
:10006000B528340882072A28F328B3281C29A82891
:10007000F72DCB2D34299C29B929FD2CBB29CF295B
:100080009228F72CA42C692C8E2C7328F728082989
:10009000922F942FD92A0A2C20088207B528E1290B
:1000A000E1293B2AB528B528162A1E2A162A262A0F
:1000B0003B2A20088207B5284D2A4D2A5F2AB528F9
:1000C000B528562AB528562A5F2A5F2A20088207B3
:1000D000B528682A682A132BB528B528482B482B41
:1000E000482B642B822B20088207B528852A9F2A5B
:1000F00020088207B528C72BC72BD42BB528B528D5
:10010000D42BD42BD42BD42BD42B20088207B52866
:10011000D92BD92BDF2BB528B528DF2BB528DF2B22
:10012000DF2BDF2B3E2620088207B528E42BE42BAB
:10013000272CB528B528362C362C612C362C362C9D
:100140003D088207A62CCC2CD12CCD2CD92CF22CFE
:10015000831602308600831222088207D32DD52D04
:10016000D82DDB2DDE2DC3251A2906121211831678
:100170000516831281270613BD288617BF28C325BD
:100180003F3099003F309900C428812783161230F0
:1001900099002430980083129030980036309F00E8
:1001A00083169530920083124B30950000309200F8
:1001B0000C309700212642309900003099008613B8
:1001C000E1280617E3281B260613E6288617E828E9
:1001D0001B268127B101C32550303406031924287A
:1001E000F3285830F428513099001A08E928413092
:1001F000990083161230860083128612292629263A
:10020000292686161526061EFD2859309900E9284C
:1002100041309900831612308600831286122926F7
:100220002926292686161526061A0E2959309900E0
:10023000E928593099002A28C325A300C325A40022
:10024000C325A700C325A800C325A000C325B3006C
:10025000C325A100C325A200C325BD00C325C60038
:10026000C325C70049301A29C325A500C325A60008
:10027000A901AA013210EF01A030F0008C278316EB
:100280008C168312C0308B00593099006F1D46299F
:100290006F14EF1159309900A03084000008AB00B2
:1002A000840A0008AC00840A4C20B118812929086E
:1002B0002506031D5F292A08260603199429EF182D
:1002C0007129C0300406031D4E29EF1D6529EF1466
:1002D000C03084006F10A030F0006F1159309900C9
:1002E0004E29E0300406031D4E296F1D7529EF10BD
:1002F000A03084006F14C030F000EF115930990025
:100300004E2983168C1283128B0129268C274E309E
:100310009900BD25290899002A089900BD252F08B4
:10032000990030089900F72D83168C1283128B01E7
:1003300029268C2750301A29C325A500C325A600DD
:10034000A901AA013210593099008C1EA5291A085A
:10035000AB008C1EA9291A08AC0029082506031D2C
:10036000B5292A08260603199429593099005920DD
:10037000A529A6276628A901AA0132108C1A2A28C5
:100380007820BD252F0899003008990029082306F8
:10039000031DBE292A082406031DBE292A28A901F7
:1003A000AA0132108C1A2A288520BD253008990010
:1003B00029082706031DD2292A082806031DD22949
:1003C0002A28321C54265408033A0319EA29D40A6D
:1003D0006C2608006E2600304E2703016E270301AD
:1003E0006E270830D007031CF829CF0A0319CE0A5C
:1003F0008826D4010800321C9825FE294826311988
:10040000142AC801C9012A250426C80A4708C907B1
:100410003F25B11C102A46084806031D032A142A4A
:100420002A250426C90B102A9225080048263119CE
:100430001C2A2A250A263F2592250800482631191C
:10044000242A2A2504263F2592250800482631190A
:10045000392A2E250A26B11F362A0A260A260A26F6
:100460000A260A260A260A260A260A261730AD2553
:100470003F2592250800321C5A2634255408033A99
:100480000319452AD40A922508001830AD250A26FA
:100490001730AD259225D40108003218512ACE26F6
:1004A00032142B08E8262C08E82608002B084C25D7
:1004B0000A2692252C084C250A26922508002B088E
:1004C00058250A2692252C0858250A269225080028
:1004D000C12680265708AC005808AB006C26590886
:1004E000AC005A08AB006C265B08AC005C08AB00A3
:1004F0006C265D08AC005E08AB006E2600304E270F
:1005000003016E2703016E271929A627A822B82206
:10051000B822B822B822B822023084073030CE0088
:10052000CF010C30D0008826B8220430840230304D
:10053000CE00CF010A30D0008826B8221929A6277C
:100540005D26A8220730D200B822D20BA42A19298E
:1005500000304F27A6306E278E306E2700304F2791
:10056000A6306E278C306E277E265F308400080010
:100570000008AC00840A0008AB00840A6E26003034
:100580004E2703016E2703016E2700304F27F630F8
:100590006E272A306E276E2600304E2703016E2705
:1005A00003016E2700304F27F6306E272A306E2762
:1005B0000800C325C300C325C400C325C5005D26AC
:1005C000C1262030CE00CF012830D0008826450833
:1005D000AC00EF30AB006C264408AC004308AB0025
:1005E0006C26FF30AC00AB006C26FF30AC00AB00DB
:1005F0006E2600304E2703016E2703016E27292641
:10060000142441084506031D112B4208EF3A031D2F
:10061000112B40084406031D112B3F084306031904
:1006200019294E301A29B115822B5F3084006008D9
:10063000AB005F08AC006430C9002A250426C90B52
:100640001D2B3F25FF30B11800301A298425573063
:1006500084000008AC00AB014C20B118462B840A82
:100660005B300406031D292B9225922592255F30CD
:1006700084006008AB005F08AC006430C9002A2524
:100680000426C90B3F2B3F25FF30B11800301A2933
:100690008425573084000008AC00AB014C20B11811
:1006A000622B840A5B300406031D4B2B9225922596
:1006B00092255F3084006008AB005F08AC004C20DE
:1006C000FF30B11800301A29842557308400000803
:1006D000AC00AB014C20B118802B840A5B300406BF
:1006E000031D672B9225922592255F3084006008B8
:1006F000AB005F08AC00B1174C20B113FF30B1184C
:1007000000301A2932108425573084000008AC00CC
:10071000AB014C20840A5B300406031D862B842524
:1007200057308400D42300083006031DAD2B840A03
:100730005B300406031D922B9225922592255F3093
:100740008400AF23311DAD2BB11DAB2B9225840A44
:10075000AF23311DAD2BFF301A2900301A290008B4
:10076000AC00840A0008AB00840334251830AD25A2
:100770000A261730AD25D423311100082C06031D9D
:100780000800840A00082B06031931150800321CE2
:1007900076260930AD26B0000930AD26AF0094258D
:1007A0000800321C9825D42B0430AD2567259225EE
:1007B0000800321CCE263027B000942508000530F2
:1007C000AD256725922508003F30CE00FF30CF00D1
:1007D000FE30D00088260930AD26D5000930AD2680
:1007E000D6008026573084000830D2000930AD266C
:1007F0008000840AD20BF62B7E260730D200093007
:10080000AD268000840A0930AD268000840AD20B10
:10081000FF2B542C1424420899003F089900BD2551
:100820004008990041081A292830D000CF01203013
:10083000CE0088260930AD26C1000930AD26C200A1
:100840000930AD26C0000930AD26BF000800B11543
:10085000362C321478202F08E0003008DF001925EC
:1008600078202F08EE003008ED00542C84255730F6
:1008700084000430BA00782030088000840ABA0B63
:100880003B2C7820782078202F08D6003008D5001F
:1008900078202F08E0003008DF00B11D542C7820AC
:1008A0002F08E2003008E100433099001A30BA0006
:1008B0005530840000089900840ABD25BA0B5A2CD3
:1008C0002A28192578202F08EE003008ED00CA25C7
:1008D000362CC325BC002E26311D862CBB01A90158
:1008E000AA0132103318202578202F083C06031D5A
:1008F000882C3008FF3A031D882CBB0B722C230870
:1009000029060319862C42309900722C59301A2975
:10091000331C8C2C4330321E4E301A293626311DA2
:10092000A02CA901AA0185203008FF3A031DA22CA2
:1009300027082906031D932C28082A06031D932C3B
:1009400059301A294E301A290000A02884258C25F8
:10095000BC24CA250230AD257F30AD00FE30AE008C
:100960009D25BC24CA250330AD257F30AD00FE3067
:10097000AE009D25BC2419290130AD25082607307D
:10098000AD2508260830AD2529260130AD250826DD
:100990000730AD250826080084250930AD25292615
:1009A000192984250930AD2529260B30AD252926A6
:1009B000192929263C30CE00CF010430D0008826EA
:1009C0000C304F2780306E2700306E2700304F27C5
:1009D00000306E2700306E2700304F272926292649
:1009E000CA25192984251F30AD252926192919253D
:1009F00078202F08990030081A29C325AB00C32599
:100A0000AC00C325CA00C325CB0019254C20B11C5E
:100A10000B2D43301A29B31C1929CA2584258C258E
:100A20004A08AB004B08AC004C20B11C19294630D9
:100A30001A29AA01A90192252025321E1B2D080082
:100A4000321223032906031D0800FF302A0603196A
:100A50003216080034250830AD250800342518303A
:100A6000B11B0830AD2508002C08AE002B08AD00E6
:100A70000310AE0DAD0D0230AD259D250800B1145B
:100A80000430AD2567252F082B06031D080030080C
:100A90002C060319B1100800AE003F30AD00033042
:100AA000AD250310AE0DAD0D9D250830AD25080018
:100AB000AE003F30AD000330AD250310AE0DAD0DDF
:100AC0009D251830AD250A261730AD250800831660
:100AD0000614831200001030B9008616000086123A
:100AE0000000031006180314AF0CB00CB90B6D2DE9
:100AF00006108316061083120310AF0CB00C3F30A3
:100B0000311A0F30AF0508000030AD257F30AD0041
:100B1000FE30AE009D2508000730BE009225BE0BBA
:100B20008E2D08000630AD25AA0F0800A90A08007E
:100B30000630AD253214311608001030B900AD0C66
:100B4000AE0C86160318A72D00000610A92D06145A
:100B5000A92D8612B90B9F2D0800B5000630B600EE
:100B6000B50C86160318B72D00000610B92D061413
:100B7000B92D8612B60BB02D080083160000981C04
:100B8000BE2D83120800830100008C1EC42D1A089C
:100B9000B4000800311406121211831605168312D0
:100BA00081272926A828EA25E02DEA25EF25E02D32
:100BB000EA25EF25E02DEF25EA25E02DEF25EA25B2
:100BC0003118E82D8613E42D0617E62D56301A2924
:100BD000311008000616B31D292615260800121527
:100BE00029268316051283120512212608000612F3
:100BF0001211831605168312812721260613002E53
:100C00008617022E76301A290A260E30AD250800E6
:100C100001300B2E2108B7003030B800B80B0E2E73
:100C2000B70B0C2E0800000008001A261A261A26F8
:100C30001A261A2608001930BF002126BF0B1D2EC8
:100C40000800B8011830B700B80B242EB70B242EBB
:100C500008002126212621262126080031152308F7
:100C6000031D080024080319311108003115270855
:100C7000031D0800280803193111080055308400AD
:100C8000FF308000840A6F300406031D402E0800E8
:100C900031113F30311A0F302B06031D08002C088C
:100CA000FF3A0319311508005D26C126D001CF0196
:100CB000CE018826D40132140800331D08003C30D0
:100CC000CE00CF010630D00088260C304F270030F0
:100CD0006E2700306E2708000D306F2E0F304F2723
:100CE0002C086E272B086E2794250800D001CF0111
:100CF000CE01A901AA018826321408003030812EC5
:100D00002030CE00CF01D0018826A901AA01080019
:100D100000304F2750086E270E306E2700304F27C7
:100D2000F6306E276E306E2700304F274F086E2743
:100D30000E306E2700304F27F7306E276E306E274B
:100D400000304F274E086E270E306E2700304F2799
:100D5000F8306E276E306E2708004F2700306E2760
:100D60008316061483120830B900861613268612DD
:100D70001326031006180314D30CB90BB52E530811
:100D8000080000304F27A6306E278E306E270030C7
:100D90004F27A6306E279C306E27080000304F2763
:100DA000A6306E279E306E2700304F27A6306E2764
:100DB0009C306E2700304F2700306E270E306E2794
:100DC00000304F27A9306E276E306E27321408008E
:100DD000CC0000304F274C086E270E306E270030B5
:100DE0004F27A8306E276E306E2700304F27A63071
:100DF0006E2784306E2700304F2755306E270E3017
:100E00006E2700304F27A7306E276E306E270030D8
:100E10004F27AA306E270E306E2700304F27A7309D
:100E20006E276E306E2700304F27A6306E27823037
:100E30006E2700304F2703016E2703016E27003015
:100E40004F2732300B2603016E2703016E27003037
:100E50004F27A6306E2794306E2747279425080029
:100E600000304F27A6306E2780306E2700304F2786
:100E7000A8306E2750306E2700304F27F5306E2790
:100E80006E306E270230AD26472753080800003029
:100E90004F27A9306E272A306E270800B116D100DF
:100EA0001326861613268316061083121326043083
:100EB000B9000610D10C0318061413268616132643
:100EC000B11E662F390B662F0A26B1128612132621
:100ED000B90B592FDE30860513260800D1000830E3
:100EE000B900DE308605D10C0318061413268616C9
:100EF000132686121326B90B712FDE3086051326B2
:100F00000800103085008430860083161730850075
:100F1000233086008312080018121A081A081A08CB
:100F20001816080000301A29831608309B00A027E5
:100F30009900A0279900BD25A0279900A0271A296C
:100F400083161C141A089B0A83120800553084006B
:100F5000C3258000840A6D300406031DA82F553078
:040F60008400080001
:02400E002A3F47
:10420000500072006F0074006F003A002000200020
:084210005000300031003300C2
:00000001FF
