:02000000BA281C
:08000800FF00030E8301F1006B
:100010000408F200700884001A088000840AF00ABC
:100020008C1A0C286F181928C030040603196F1594
:100030001D28E03004060319EF1572088400710EC4
:100040008300FF0E7F0E090050309900B101B2010C
:10005000EF018501A2253408193C031CB32834089C
:1000600082072928D428B128FB28A628CA2DAA2D22
:1000700013297B299829DC2C9A29AE299028D62C83
:10008000832C482C6D2C7128D828E828522F542F07
:10009000B82AE92B20088207B328C029C0291A2AC8
:1000A000DA29DD29F529FD29F529052A1A2A20084A
:1000B0008207B3282C2A2C2A3E2AB328B328352AB3
:1000C000B328352A3E2A3E2A20088207B328472A29
:1000D000472AF22AF42A052B272B272B272B432BE1
:1000E000612B20088207B328642A7E2A2008820711
:1000F000B328A62BA62BB32BB02BB32BB32BB32B30
:10010000B32BB32BB32B20088207B328B82BB82B03
:10011000BE2BB328B328BE2BB328BE2BBE2BBE2BC1
:10012000022620088207B328C32BC32B062C082CD9
:10013000152C152C152C402C152C152C3D08820740
:10014000852CAB2CB02CAC2CB82CD12C83160430C5
:100150008500831222088207AD2DAF2DB22DB52D5B
:10016000B82DA225F9284227A2253F3099003F301B
:100170009900B928422707309F0083161230990052
:1001800024309800831290309800ED254230990079
:10019000013099004227B101A225503034060319DD
:1001A0002428D4285830D528513099001A08CA2854
:1001B000413099008316851083128510ED25ED25B9
:1001C000ED258514DD25051DDD2859309900CA2847
:1001D000413099008316851083128510ED25ED2599
:1001E000ED258514D2250519ED2859309900CA2826
:1001F000593099002928A225A300A225A400A225F0
:10020000A700A225A800A225A000A225B300A22530
:10021000A100A225A200A225BD00A225C600A225FC
:10022000C7004930F928A225A500A225A600A901EA
:10023000AA013210EF01A030F0004C2783168C1673
:100240008312C0308B00593099006F1D25296F141F
:10025000EF1159309900A03084000008AB00840AE7
:100260000008AC00840A4A20B11860292908250634
:10027000031D3E292A08260603197329EF18502961
:10028000C0300406031D2D29EF1D4429EF14C03092
:1002900084006F10A030F0006F11593099002D29A3
:1002A000E0300406031D2D296F1D5429EF10A030E6
:1002B00084006F14C030F000EF11593099002D29DF
:1002C00083168C1283128B01ED254C274E3099003A
:1002D0009C25290899002A0899009C252F08990037
:1002E00030089900CA2D83168C1283128B01ED25DC
:1002F0004C275030F928A225A500A225A600A90167
:10030000AA013210593099008C1E84291A08AB00BA
:100310008C1E88291A08AC0029082506031D94297B
:100320002A08260603197329593099005720842971
:1003300066276428A901AA0132108C1A2928762080
:100340009C252F0899003008990029082306031DD1
:100350009D292A082406031D9D292928A901AA01EF
:1003600032108C1A292883209C25300899002908EE
:100370002706031DB1292A082806031DB1292928AB
:10038000321C18265408033A0319C929D40A302606
:1003900008003226003012270301312703013127DC
:1003A0000830D007031CD729CF0A0319CE0A4C26E0
:1003B000D4010800321C7725DD290C263119F329D8
:1003C000C801C9010925CE25C80A4708C9071E2545
:1003D000B11CEF2946084806031DE229F329092527
:1003E000CE25C90BEF29712508000C263119FB29F0
:1003F0000925D4251E25712508000C263119032A4C
:100400000925CE251E25712508000C263119182A2C
:100410000D25D425B11F152AD425D425D425D425BE
:10042000D425D425D425D425D42517308C251E25B4
:1004300071250800321C1E2613255408033A03199F
:10044000242AD40A7125080018308C25D4251730A9
:100450008C257125D40108003218302A92263214D6
:100460002B08AC262C08AC2608002B082B25D425FD
:1004700071252C082B25D425712508002B0837253C
:10048000D42571252C083725D4257125080085260B
:1004900044265708AC005808AB0030265908AC0079
:1004A0005A08AB0030265B08AC005C08AB00302675
:1004B0005D08AC005E08AB00322600301227030155
:1004C000312703013127F8286627872297229722B0
:1004D000972297229722023084073030CE00CF0136
:1004E0000C30D0004C269722043084023030CE00ED
:1004F000CF010A30D0004C269722F8286627212603
:1005000087220730D2009722D20B832AF8280030A6
:100510001327A63031278E30312700301327A6301D
:1005200031278C30312742265F30840008000008D4
:10053000AC00840A0008AB00840A3226003012277F
:10054000030131270301312700301327F63031270B
:100550002A303127322600301227030131270301C8
:10056000312700301327F63031272A303127080091
:10057000A225C300A225C400A225C50021268526E8
:100580002030CE00CF012830D0004C264508AC00EA
:10059000EF30AB0030264408AC004308AB003026F7
:1005A000FF30AC00AB003026FF30AC00AB00322691
:1005B000003012270301312703013127ED25F323F2
:1005C00041084506031DF02A4208EF3A031DF02AB0
:1005D00040084406031DF02A3F0843060319F82883
:1005E0004E30F928B115612B5F3084006008AB00F4
:1005F0005F08AC006430C9000925CE25C90BFC2A70
:100600001E25FF30B1180030F928632557308400CB
:100610000008AC00AB014A20B118252B840A5B30DE
:100620000406031D082B7125712571255F30840098
:100630006008AB005F08AC006430C9000925CE2516
:10064000C90B1E2B1E25FF30B1180030F928632579
:10065000573084000008AC00AB014A20B118412B90
:10066000840A5B300406031D2A2B71257125712530
:100670005F3084006008AB005F08AC004A20FF30A8
:10068000B1180030F9286325573084000008AC0009
:10069000AB014A20B1185F2B840A5B300406031DAE
:1006A000462B7125712571255F3084006008AB00F1
:1006B0005F08AC00B1174A20B113FF30B118003009
:1006C000F92832106325573084000008AC00AB01D4
:1006D0004A20840A5B300406031D652B63255730CE
:1006E0008400B32300083006031D8C2B840A5B3082
:1006F0000406031D712B7125712571255F3084005F
:100700008E23311D8C2BB11D8A2B7125840A8E23DB
:10071000311D8C2BFF30F9280030F9280008AC007F
:10072000840A0008AB008403132518308C25D425D7
:1007300017308C25B323311100082C06031D080047
:10074000840A00082B06031931150800321C3A26CA
:1007500009307126B00009307126AF0073250800FA
:10076000321C7725B32B04308C25462571250800D3
:10077000321C9226F426B0007325080005308C2523
:100780004625712508003F30CE00FF30CF00FE30F7
:10079000D0004C2609307126D50009307126D600CC
:1007A0004426573084000830D2000930712680007A
:1007B000840AD20BD52B42260730D200093071268D
:1007C0008000840A093071268000840AD20BDE2B57
:1007D000332CF323420899003F0899009C254008D8
:1007E00099004108F9282830D000CF012030CE00F0
:1007F0004C2609307126C10009307126C20009302B
:100800007126C00009307126BF000800B115152CF3
:10081000321476202F08E0003008DF00F82476201C
:100820002F08EE003008ED00332C6325573084008C
:100830000430BA00762030088000840ABA0B1A2CE3
:100840007620762076202F08D6003008D500762036
:100850002F08E0003008DF00B11D332C76202F0870
:10086000E2003008E100433099001A30BA005530F8
:10087000840000089900840A9C25BA0B392C292889
:10088000F82476202F08EE003008ED00A925152C5D
:10089000A225BC00F225311D652CBB01A901AA01CE
:1008A00032103318FF2476202F083C06031D672CD6
:1008B0003008FF3A031D672CBB0B512C2308290677
:1008C0000319652C42309900512C5930F928331CFA
:1008D0006B2C4330B21D4E30F928FA25311D7F2C88
:1008E000A901AA0183203008FF3A031D812C2708A3
:1008F0002906031D722C28082A06031D722C593064
:10090000F9284E30F92800009E2863256B259B248A
:10091000A92502308C257F30AD00FE30AE007C254D
:100920009B24A92503308C257F30AD00FE30AE001E
:100930007C259B24F82801308C25D22507308C2576
:10094000D22508308C25ED2501308C25D2250730A5
:100950008C25D2250800632509308C25ED25F82843
:10096000632509308C25ED250B308C25ED25F828E5
:10097000ED253C30CE00CF010430D0004C260C30A9
:100980001327803031270030312700301327003003
:1009900031270030312700301327ED25ED25A9251B
:1009A000F82863251F308C25ED25F828F8247620BB
:1009B0002F0899003008F928A225AB00A225AC0029
:1009C000A225CA00A225CB00F8244A20B11CEA2C9B
:1009D0004330F928B31CF828A92563256B254A085C
:1009E000AB004B08AC004A20B11CF8284630F9286F
:1009F000AA01A9017125FF24B21DFA2C0800B21129
:100A000023032906031D0800FF302A060319B21527
:100A10000800132508308C25080013251830B11B59
:100A200008308C2508002C08AE002B08AD00031000
:100A3000AE0DAD0D02308C257C250800B1140430BC
:100A40008C2546252F082B06031D080030082C0690
:100A50000319B1100800AE003F30AD0003308C2503
:100A60000310AE0DAD0D7C2508308C250800AE00BE
:100A70003F30AD0003308C250310AE0DAD0D7C254D
:100A800018308C25D42517308C25080083160514C2
:100A9000831200001030B90085140000851000009A
:100AA000031005180314AF0CB00CB90B4C2D051036
:100AB0008316051083120310AF0CB00C3F30311AAF
:100AC0000F30AF05080000308C257F30AD00FE30C0
:100AD000AE007C2508000730BE007125BE0B6D2DD1
:100AE000080006308C25AA0F0800A90A0800063065
:100AF0008C253214311608001030B900AD0CAE0C44
:100B000085140318862D00000510882D0514882DE6
:100B10008510B90B7E2D0800B5000630B600B50C67
:100B200085140318962D00000510982D0514982D96
:100B30008510B60B8F2D080083160000981C9D2D84
:100B400083120800830100008C1EA32D1A08B40034
:100B5000080031144227ED25A628C025BA2DC0254E
:100B6000C525BA2DC025C725BA2DC525C025BA2D46
:100B7000C725C0253118BE2D5630F9283110080080
:100B80008616B31DED25DD2508000617C82D86172E
:100B9000E52508004227E5257630F928D4250E30D2
:100BA0008C2508000130D52D2108B7003030B80061
:100BB000B80BD82DB70BD62D0800E225E225E2258B
:100BC000E225E225080000000800B8011830B7004F
:100BD000B80BE82DB70BE82D0800E525E525E52540
:100BE000E525080031152308031D08002408031912
:100BF0003111080031152708031D080028080319C2
:100C00003111080055308400FF308000840A6F30B5
:100C10000406031D042E080031113F30311A0F3035
:100C20002B06031D08002C08FF3A03193115080094
:100C300021268526D001CF01CE014C26D4013214C5
:100C40000800331D08003C30CE00CF010630D00034
:100C50004C260C3013270030312700303127080094
:100C60000D30332E0F3013272C0831272B08312756
:100C700073250800D001CF01CE01A901AA014C269D
:100C8000321408003030452E2030CE00CF01D00184
:100C90004C26A901AA01080000301327500831276B
:100CA0000E30312700301327F63031276E303127D0
:100CB000003013274F0831270E303127003013271B
:100CC000F73031276E303127003013274E08312797
:100CD0000E30312700301327F83031276E3031279E
:100CE00008001327003031278316051483120830BB
:100CF000B9008514E3258510E325031005180314B6
:100D0000D30CB90B792E5308080000301327A630F6
:100D100031278E30312700301327A63031279C3001
:100D20003127080000301327A63031279E303127A5
:100D300000301327A63031279C303127003013278D
:100D4000003031270E30312700301327A9303127EA
:100D50006E30312732140800CC00003013274C08C5
:100D600031270E30312700301327A83031276E305D
:100D7000312700301327A630312784303127003047
:100D80001327553031270E30312700301327A73075
:100D900031276E30312700301327AA3031270E302B
:100DA000312700301327A73031276E30312700302C
:100DB0001327A63031278230312700301327030153
:100DC000312703013127003013273230D5250301A5
:100DD00031270301312700301327A6303127943003
:100DE00031270B277325080000301327A630312741
:100DF0008030312700301327A83031275030312779
:100E000000301327F53031276E303127023071263C
:100E10000B275308080000301327A93031272A3048
:100E200031270800B116D100E3258514E325831688
:100E300005108312E3250430B9000510D10C031806
:100E40000514E3258514E325B11E2A2F390B2A2F1B
:100E5000D425B1128510E325B90B1D2F8501E3259B
:100E60000800D1000830B9008501D10C0318051421
:100E7000E3258514E3258510E325B90B342F85017F
:100E8000E3250800850104308600831607308500BD
:100E9000023086008312080018121A081A081A086D
:100EA000181608000130F928831608309B006027C7
:100EB0009900602799009C25602799006027F928F0
:100EC00083161C141A089B0A8312080055308400EC
:100ED000A2258000840A6D300406031D682F55305A
:040EE0008400080082
:02400E002A3F47
:10420000500072006F0074006F003A002000200020
:084210005000300031003300C2
:00000001FF
