:020000040000FA
:020000000F28C7
:08000800A0000308A10083120F
:100010000C18772821088300A00E200E0900640028
:100020008316083085009F018C30810083120510F3
:10003000851005110516851607309900FF238316D4
:1000400090008312203084008001840A841F2428B9
:10005000103090007C2083160C1483120B171014A0
:10006000B0018B1714303002031C322885128B1319
:1000700063000000640085193728B0017C208B17CD
:100080008519372814303002031C4028B101B20111
:1000900005108510051132180514B218851432198F
:1000A0000515B00101303002031C52280512B001C1
:1000B00005303002031C58280516B20A08303206F3
:1000C000031D4828B001851D6A2814303002031C26
:1000D00063283728B10A0A303106031D4728B001CA
:1000E000851D6F2814303002031C702837286400E7
:1000F0000C10B00A7C200A28AF308E003C308F00F4
:020100000800F5
:084000000000000007000F00A2
:02400E004C3F25
:00000001FF
