:02000000B62820
:08000800FF00030E8301EF006D
:100010000408F0006E0884001A088000840AEE0AC2
:100020008C1A0C286D181928C030040603196D1598
:100030001D28E03004060319ED15700884006F0ECA
:100040008300FF0E7F0E090050309900B101B2010C
:10005000ED01DE3086052B253408183C031CE22810
:10006000340882072928E428A92815299A285C2D14
:10007000332D2F299229B2295C2CBE29D2298C2814
:10008000562CEF2BB42BD92B7F2858288D2AE82803
:10009000FD287F2F812F20088207AB28AB28E42979
:1000A000AB28AB28AB28192A212A192A292AAB28E0
:1000B000200882073E2AAB28552AAB28AB28AB285C
:1000C0005E2AAB285E2A672AAB2820088207AB2865
:1000D000AB28702AAB28AB28AB28F52AF52AF52ADD
:1000E000112BAB2820088207AB28AB282F2BAB287D
:1000F000AB28AB283C2B3C2B3C2B3C2BAB282008C3
:100100008207412BAB284A2BAB28AB28AB28502BBE
:10011000AB28502B502BAB282D26200882079F2B75
:10012000AB28552BAB28AB28AB28882B882BAC2BC6
:10013000882BAB28220882073A2D3C2D3F2D422DDB
:10014000452D3D088207F12B172C1C2C242C382C14
:10015000512C2B2513293F30990025254630990035
:100160003F30990025254E309900B5286E2783161B
:100170001230990024309800831290309800363065
:100180009F0083169530920083124B30950000300B
:1001900092000C30970010264230990000309900F0
:1001A0008613D2280617D4280A260613D7288617BE
:1001B000D9280A266E27B1012B25503034060319A1
:1001C0002428E4285830E528513099001A08DA2804
:1001D00083160616831241309900861218261826B7
:1001E000182686160426061EED2886120612831689
:1001F0000612831259309900DA28831606168312E4
:100200004130990086121826182618268616F725DA
:10021000061A022986120612831606128312593014
:100220009900DA285930990029282B25A3002B257D
:10023000A4002B25A7002B25A8002B25A0002B25EB
:10024000B3002B25A1002B25A2002B25BD002B25BB
:10025000C4002B25C5002B25F100493013292B257F
:10026000A5002B25A600A901AA013210ED01A0309E
:10027000EE00792783168C168312C0308B0059301C
:1002800099006D1D41296D14ED1159309900A03070
:1002900084000008AB00840A0008AC00840A4B20EC
:1002A000B1187C2929082506031D5A292A08260683
:1002B00003198A29ED186C29C0300406031D492949
:1002C000ED1D6029ED14C03084006D10A030EE00EB
:1002D0006D11593099004929E0300406031D492960
:1002E0006D1D7029ED10A03084006D14C030EE003B
:1002F000ED1159309900492983168C1283128B0114
:10030000182679274E3099002525290899002A08B2
:1003100099005C2D83168C1283128B011826792785
:10032000503013292B25A5002B25A600A901AA01D1
:100330003210593099008C1E9B291A08AB008C1E74
:100340009F291A08AC0029082506031DAE292A0892
:100350002606031DAE293219A0258A295930990095
:1003600058209B29533084002B258000840A6B3051
:100370000406031DB429533084006528A901AA018D
:1003800032108C1A2928722025252F089900300850
:10039000990029082306031DC1292A082406031DE4
:1003A000C1292928A901AA0132108C1A29287F20E5
:1003B00025253008990029082706031DD5292A0874
:1003C0002806031DD5292928321C43265208033A42
:1003D0000319ED29D20A592608005B2600303B2775
:1003E00003015B2703015B270830CE07031CFB29B1
:1003F000CD0A0319CC0A7526D2010800321C00254B
:10040000012A37263119172AC601C7018924F32585
:10041000C60A4508C707A524B11C132A4408460686
:10042000031D062A08008924F325C70B132AF92483
:100430000800372631191F2A8924F925A524F92413
:10044000080037263119272A8924F325A524F92401
:100450000800372631193C2A9624F925B11F392A7C
:10046000F925F925F925F925F925F925F925F9259C
:10047000F92517301525A524F9240800321C6C2510
:100480002B08AF25FB242C08AF25FB24710872062E
:10049000031D0800F201A02526082A022508031CD6
:1004A000250F2902031C732508003218592ABB2680
:1004B00032142B08D5262C08D52608002B08B22488
:1004C000F925F9242C08B224F925F92408002B0871
:1004D000BE24F925F9242C08BE24F925F9240800A6
:1004E000AE266D265508AC005608AB0059265708B5
:1004F000AC005808AB0059265908AC005A08AB00AC
:1005000059265B08AC005C08AB005B2600303B273B
:1005100003015B2703015B2712294C2600303C278F
:10052000A6305B278E305B2700303C27A6305B2748
:100530008C305B276B265D3084000730D0000008CC
:10054000AC00840A0008AB00840A5B2600303B271D
:1005500003015B2703015B2700303C27F6305B2754
:100560002A305B275B2600303B2703015B27030112
:100570005B2700303C27F6305B272A305B27D00B07
:100580009F2A12295D3084005E08AB005D08AC0034
:100590006430C7008924F325C70BCA2AA524FF307D
:1005A000B11800301329EB24553084000008AC004A
:1005B000AB014B20B118F32A840A59300406031DFD
:1005C000D62AF924F924F9245D3084005E08AB00B2
:1005D0005D08AC006430C7008924F325C70BEC2A02
:1005E000A524FF30B11800301329EB2455308400C6
:1005F0000008AC00AB014B20B1180F2B840A593016
:100600000406031DF82AF924F924F9245D30840036
:100610005E08AB005D08AC004B20FF30B118003025
:100620001329EB24553084000008AC00AB014B20AB
:10063000B1182D2B840A59300406031D142BF924FC
:10064000F924F9245D3084005E08AB005D08AC003D
:10065000B1174B20B113FF30B11800301329321CF1
:10066000632609309A26B00009309A26AF00FB2491
:100670000800321C00253C2B04301525CD24F9241C
:1006800008003218462B321468251026D125B000F8
:10069000FB240800321CBB261D27B000FB240800E9
:1006A00005301525CD24F92408003F30CC00FF305B
:1006B000CD00FE30CE00752609309A26D3000930D1
:1006C0009A26D4006D26553084000830D0000930B9
:1006D0009A268000840AD00B672B6B260730D00047
:1006E00009309A268000840A09309A268000840AFC
:1006F000D00B702B9F2B321472202F08DE00300895
:10070000DD00782472202F08EC003008EB009F2BCE
:10071000EB24553084000430BA0072203008800089
:10072000840ABA0B8D2B7220722072202F08D400FD
:100730003008D30072202F08DE003008DD0043307F
:1007400099001A30BA005330840000089900840AD6
:100750002525BA0BA52B2928782472202F08EC0018
:100760003008EB003225882B2B25BC001D26311DBF
:10077000D12BBB01A901AA01321033187F247220AA
:100780002F083C06031DD32B3008FF3A031DD32B43
:10079000BB0BBD2B230829060319D12B423099002E
:1007A000BD2B59301329331CD72B321AD12B4E3085
:1007B00013292526311DEB2BA901AA017F20300822
:1007C000FF3A031DED2B27082906031DDE2B280801
:1007D0002A06031DDE2B593013294E301329000041
:1007E000A128EB24F32407243225023015257F307D
:1007F000AD00FE30AE000525072432250330152557
:100800007F30AD00FE30AE000525072412290130EF
:100810001525F72507301525F72508301525182645
:1008200001301525F72507301525F7250800EB249D
:100830000930152518261229EB240930152518260C
:100840000B30152518261229FF30AC00A901AA018A
:100850003210582029082706031D322C2A082806A2
:10086000031912292A08031D292C43309900292C29
:1008700018263C30CC00CD010430CE0075260C305B
:100880003C2780305B2700305B2700303C2700305E
:100890005B2700305B2700303C27182618263225BE
:1008A0001229EB241F3015251826122978247220CE
:1008B0002F089900300813292B25AB002B25AC00FD
:1008C0002B25C8002B25C90078244B20B11C6A2C8D
:1008D00043301329B31C12293225EB24F324480892
:1008E000AB004908AC004B20B11C1229463013293B
:1008F000AA01A901F9247F24321E7A2C08003212A1
:1009000023032906031D0800FF302A0603193216A7
:1009100008002C08AE002B08AD000310AE0DAD0D85
:100920000230152505250830152508002C08AE00D5
:100930002B08AD000310AE0DAD0D023015250525B9
:100940001830B11B083015250800B11404301525E6
:10095000CD242F082B06031D080030082C06031990
:10096000B1100800AE003F30AD0003301525031074
:10097000AE0DAD0D0525083015250800AE003F3041
:10098000AD00033015250310AE0DAD0D0525183053
:100990001525F9251730152508008316061483122E
:1009A00000001030B9008616000086120000031007
:1009B00006180314AF0CB00CB90BD32C0610831619
:1009C000061083120310AF0CB00C3F30311A0F30F9
:1009D000AF0531120800003015257F30AD00FE3024
:1009E000AE00052508000730BE00F924BE0BF52C2B
:1009F000080006301525F20AAA0F0800A90A080007
:100A0000063015253214311608001030B900AD0C2F
:100A1000AE0C861603180F2D00000610112D0614BB
:100A2000112D8612B90B072D0800B5000630B6004F
:100A3000B50C861603181F2D00000610212D061474
:100A4000212D8612B60B182D080083160000981C65
:100A5000262D83120800830100008C1E2C2D1A08FD
:100A6000B400080031140612121183160516831201
:100A700018269A285125472D51255425472D5125B3
:100A80005425472D54255125472D542551253118DE
:100A90004F2D86134B2D06174D2D5630132931102F
:100AA00008000616182608001215182683160512C7
:100AB000831205121026080006121211831605165D
:100AC000831210260613642D8617662D763013299F
:100AD000A901AA0183250800A901AA01F201321582
:100AE0007325321408009025711A782DA0307B2DC3
:100AF0000310290DA038AF25711A802D2908AF25C4
:100B00002A08AF2508009025A030AF25711A8A2D3C
:100B10000301AF250301AF259025A130AF250800C3
:100B200006268612062683160614831204268616C7
:100B30000426061083160610831204268612080067
:100B40000626861206260610831606108312042631
:100B500086160426831606148312F9250800C3009E
:100B60000830C2000626C30D0318BB2D06108316DD
:100B700006108312BE2D83160614831206268616CF
:100B800004268612C20BB22D831606148312042685
:100B9000861606260618CB2D062686120800B111E9
:100BA000D22DB1158316061483120830C200042614
:100BB00086160626031006180314C30D0626861291
:100BC000C20BD72DB11DE82D061083160610831217
:100BD0000426861604268612831606148312B11D77
:100BE000A02543080800F9250E301525080001301E
:100BF000FA2D2108B7003030B800B80BFD2DB70B27
:100C0000FB2D0800000008000926092609260926F0
:100C1000092608001930BF001026BF0B0C2E080053
:100C2000B8011830B700B80B132EB70B132E0800FD
:100C30001026102610261026080031152308031D43
:100C40000800240803193111080031152708031D75
:100C50000800280803193111080053308400FF30C0
:100C60008000840A6D300406031D2F2E0800311108
:100C70003F30311A0F302B06031D08002C08FF3AB5
:100C80000319311508004C26AE26CE01CD01CC014A
:100C90007526D201321408003C30CC00CD0106305C
:100CA000CE0075260C303C2700305B2700305B27D8
:100CB00008000D305C2E0F303C272C085B272B08DA
:100CC0005B27FB240800CE01CD01CC01A901AA01BC
:100CD00075263214080030306E2E2030CC00CD0145
:100CE000CE017526A901AA01080000303C274E0854
:100CF0005B270E305B2700303C27F6305B276E30D9
:100D00005B2700303C274D085B270E305B27003007
:100D10003C27F7305B276E305B2700303C274C08C0
:100D20005B270E305B2700303C27F8305B276E30A6
:100D30005B2708003C2700305B27831606148312CC
:100D40000830B900861602268612022603100618FD
:100D50000314D10CB90BA22E5108080000303C2717
:100D6000A6305B278E305B2700303C27A6305B2700
:100D70009C305B27080000303C27A6305B279E3064
:100D80005B2700303C27A6305B279C305B27003078
:100D90003C2700305B270E305B2700303C27A93012
:100DA0005B276E305B2732140800CA0000303C27F6
:100DB0004A085B270E305B2700303C27A8305B27B2
:100DC0006E305B2700303C27A6305B2784305B27E2
:100DD00000303C2755305B270E305B2700303C2726
:100DE000A7305B276E305B2700303C27AA305B279B
:100DF0000E305B2700303C27A7305B276E305B2727
:100E000000303C27A6305B2782305B2700303C2730
:100E100003015B2703015B2700303C273230FA25B2
:100E200003015B2703015B2700303C27A6305B27CB
:100E300094305B273427FB24080000303C27A63081
:100E40005B2780305B2700303C27A8305B27503081
:100E50005B2700303C27F5305B276E305B27023084
:100E60009A2634275108080000303C27A9305B2718
:100E70002A305B270800B116CF000226861602260C
:100E800083160610831202260430B9000610CF0C18
:100E900003180614022686160226B11E532F390B9C
:100EA000532FF925B11286120226B90B462FDE30D8
:100EB000860502260800CF000830B900DE3086051E
:100EC000CF0C031806140226861602268612022666
:100ED000B90B5E2FDE308605022608001030850033
:100EE0008430860083161730850002308600831216
:100EF000080018121A081A081A08181608000030F4
:100F00001329831608309B008D2799008D2799009F
:100F100025258D2799008D27132983161C141A085F
:060F20009B0A8312080089
:02400E002A0383
:10420000500072006F0074006F003A002000200020
:084210005000300030004100B5
:00000001FF
