:02000000B52821
:08000800FF00030E8301EF006D
:100010000408F0006E0884001A088000840AEE0AC2
:100020008C1A0C286D181928C030040603196D1598
:100030001D28E03004060319ED15700884006F0ECA
:100040008300FF0E7F0E090050309900B101B2010C
:10005000ED01850109253408193C031CCD2834081D
:1000600082072928CF28A828F2289928302D112D79
:100070000C296F298F293A2C9B29AF298B28342CE6
:10008000CC2B912BB62B7E2857286A2AD328E1281F
:10009000422F442F20088207AA28AA28C129AA286B
:1000A000DB29DE29F629FE29F629062AAA282008B6
:1000B00082071B2AAA28322AAA28AA28AA283B2A69
:1000C000AA283B2A442AAA2820088207AA28AA2864
:1000D0004D2AAA289F2AB02AD22AD22AD22AEE2A28
:1000E000AA2820088207AA28AA280C2BAA28162B9F
:1000F000192B192B192B192B192BAA282008820729
:100100001E2BAA28272BAA28AA28AA282D2BAA28E2
:100110002D2B2D2BAA28F425200882077C2BAA281A
:10012000322BAA28582B652B652B652B892B652B29
:10013000AA2822088207152D172D1A2D1D2D202DD6
:100140003D088207CE2BF42BF92B012C162C2F2CDB
:100150000925F0283F3099000325463099003F30AB
:10016000990003254E309900B428322707309F00AC
:100170008316123099002430980083129030980032
:10018000DF2542309900023099003227B10109255C
:100190005030340603192428CF285830D028513045
:1001A00099001A08C528413099008510DF25DF2500
:1001B000DF258514D125051DD528851059309900D6
:1001C000C528413099008510DF25DF25DF258514FE
:1001D000C4250519E328851059309900C5285930E0
:1001E000990029280925A3000925A4000925A700AD
:1001F0000925A8000925A0000925B3000925A100AB
:100200000925A2000925BD000925C4000925C5004E
:100210000925F1004930F0280925A5000925A60087
:10022000A901AA013210ED01A030EE003C2783168F
:100230008C168312C0308B00593099006D1D1E2919
:100240006D14ED1159309900A03084000008AB0006
:10025000840A0008AC00840A4A20B11859292908E8
:100260002506031D37292A08260603196729ED18D4
:100270004929C0300406031D2629ED1D3D29ED1432
:10028000C03084006D10A030EE006D11593099001F
:100290002629E0300406031D26296D1D4D29ED1089
:1002A000A03084006D14C030EE00ED11593099007B
:1002B000262983168C1283128B01DF253C274E30B2
:1002C00099000325290899002A089900302D8316E2
:1002D0008C1283128B01DF253C275030F028092532
:1002E000A5000925A600A901AA01321059309900DC
:1002F0008C1E78291A08AB008C1E7C291A08AC00C9
:1003000029082506031D8B292A082606031D8B298B
:1003100032196D25672959309900572078295330B3
:10032000840009258000840A6B300406031D91298E
:10033000533084006428A901AA0132108C1A29289C
:10034000712003252F0899003008990029082306F9
:10035000031D9E292A082406031D9E292928A90178
:10036000AA0132108C1A29287E2003253008990012
:1003700029082706031DB2292A082806031DB229C9
:100380002928321C0A265208033A0319CA29D20A1C
:10039000202608002226003002270301212703011E
:1003A00021270830CE07031CD829CD0A0319CC0A0F
:1003B0003C26D2010800321CDE24DE29FE2531193C
:1003C000F429C601C7016724C025C60A4508C70726
:1003D0008324B11CF02944084606031DE3290800C4
:1003E0006724C025C70BF029D7240800FE25311942
:1003F000FC296724C6258324D7240800FE2531194B
:10040000042A6724C0258324D7240800FE25311937
:10041000192A7424C625B11F162AC625C625C62545
:10042000C625C625C625C625C625C6251730F324EC
:100430008324D7240800321C39252B087C25D92495
:100440002C087C25D92471087206031D0800F201CE
:100450006D2526082A022508031C250F2902031CE6
:10046000402508003218362A822632142B089C2692
:100470002C089C2608002B089024C625D7242C087D
:100480009024C625D72408002B089C24C625D724F1
:100490002C089C24C625D724080075263426550828
:1004A000AC005608AB0020265708AC005808AB003B
:1004B00020265908AC005A08AB0020265B08AC0087
:1004C0005C08AB002226003002270301212703012C
:1004D0002127EF28132600300327A63021278E304E
:1004E000212700300327A63021278C3021273226F0
:1004F0005D3084000730D0000008AC00840A00089A
:10050000AB00840A222600300227030121270301C1
:10051000212700300327F63021272A3021272226E1
:100520000030022703012127030121270030032780
:10053000F63021272A302127D00B7C2AEF285D3086
:1005400084005E08AB005D08AC006430C70067241F
:10055000C025C70BA72A8324FF30B1180030F0282C
:10056000C924553084000008AC00AB014A20B11802
:10057000D02A840A59300406031DB32AD724D7246D
:10058000D7245D3084005E08AB005D08AC006430A9
:10059000C7006724C025C70BC92A8324FF30B118C0
:1005A0000030F028C924553084000008AC00AB01AD
:1005B0004A20B118EC2A840A59300406031DD52AB2
:1005C000D724D724D7245D3084005E08AB005D08B3
:1005D000AC004A20FF30B1180030F028C924553053
:1005E00084000008AC00AB014A20B1180A2B840A31
:1005F00059300406031DF12AD724D724D7245D30AF
:1006000084005E08AB005D08AC00B1174A20B1134E
:10061000FF30B1180030F028321C2A26093061263C
:10062000B00009306126AF00D9240800321CDE2456
:10063000192B0430F324AB24D72408003218232BC1
:1006400032143525D7259E25B000D9240800321C48
:100650008226E426B000D92408000530F324AB2418
:10066000D72408003F30CC00FF30CD00FE30CE0054
:100670003C2609306126D30009306126D400342697
:10068000553084000830D000093061268000840A8B
:10069000D00B442B32260730D00009306126800071
:1006A000840A093061268000840AD00B4D2B7C2BF4
:1006B000321471202F08DE003008DD00562471202E
:1006C0002F08EC003008EB007C2BC9245530840047
:1006D0000430BA00712030088000840ABA0B6A2BFB
:1006E0007120712071202F08D4003008D3007120B0
:1006F0002F08DE003008DD00433099001A30BA00C0
:100700005330840000089900840A0325BA0B822B19
:100710002928562471202F08EC003008EB00102502
:10072000652B0925BC00E425311DAE2BBB01A901B9
:10073000AA01321033185D2471202F083C06031DD6
:10074000B02B3008FF3A031DB02BBB0B9A2B2308AC
:1007500029060319AE2B423099009A2B5930F02804
:10076000331CB42BB219AE2B4E30F028EC25311DC2
:10077000C82BA901AA017E203008FF3A031DCA2B0D
:1007800027082906031DBB2B28082A06031DBB2B9F
:100790005930F0284E30F0280000A028C924D12478
:1007A000E42310250230F3247F30AD00FE30AE008C
:1007B000E324E42310250330F3247F30AD00FE3022
:1007C000AE00E324E423EF280130F324C4250730EE
:1007D000F324C4250830F324DF250130F324C42595
:1007E0000730F324C4250800C9240930F324DF2589
:1007F000EF28C9240930F324DF250B30F324DF254B
:10080000EF28FF30AC00AB00A901AA01321057203D
:1008100029082706031D102C2A0828060319EF288B
:100820002A08031D072C43309900072CDF253C3094
:10083000CC00CD010430CE003C260C3003278030A4
:1008400021270030212700300327003021270030E6
:10085000212700300327DF25DF251025EF28C924B5
:100860001F30F324DF25EF28562471202F0899002C
:100870003008F0280925AB000925AC000925C8007F
:100880000925C90056244A20B11C482C4330F028C1
:10089000B31CEF281025C924D1244808AB0049080F
:1008A000AC004A20B11CEF284630F028AA01A9016B
:1008B000D7245D24B21D582C0800B2112303290649
:1008C000031D0800FF302A060319B21508002C0882
:1008D000AE002B08AD000310AE0DAD0D0230F324B9
:1008E000E3240830F32408002C08AE002B08AD00E8
:1008F0000310AE0DAD0D0230F324E3241830B11B0C
:100900000830F3240800B1140430F324AB242F087A
:100910002B06031D080030082C060319B11008002F
:10092000AE003F30AD000330F3240310AE0DAD0D2B
:10093000E3240830F3240800AE003F30AD0003305C
:10094000F3240310AE0DAD0DE3241830F324C625B7
:100950001730F324080083160514831200001030AA
:10096000B900851400008510000003100518031459
:10097000AF0CB00CB90BB12C051083160510831207
:100980000310AF0CB00C3F30311A0F30AF053112ED
:1009900008000030F3247F30AD00FE30AE00E324C9
:1009A00008000730BE00D724BE0BD32C0800063049
:1009B000F324F20AAA0F0800A90A08000630F3245B
:1009C0003214311608001030B900AD0CAE0C85148D
:1009D0000318ED2C00000510EF2C0514EF2C8510EA
:1009E000B90BE52C0800B5000630B600B50C85142F
:1009F0000318FD2C00000510FF2C0514FF2C85109A
:100A0000B60BF62C080083160000981C042D8312E8
:100A10000800830100008C1E0A2D1A08B40008008B
:100A200031141F308605DF2599282825222D2825F9
:100A30002B25222D28252D25222D2B252825222D3D
:100A40002D2528253118262D5630F0283110080084
:100A50008616DF25080006172E2D8617D7250800D5
:100A60001F308605D7257630F028A901AA01502528
:100A70000800A901AA01F20132154025321408002C
:100A80005D25711A452DA030482D0310290DA03881
:100A90007C25711A4D2D29087C252A087C25080003
:100AA0005D25A0307C25711A572D03017C2503019B
:100AB0007C255D25A1307C250800D3258510D32514
:100AC000831605148312D1258514D12505108316AC
:100AD00005108312D12585100800D3258510D32554
:100AE0000510831605108312D1258514D125831690
:100AF00005148312C6250800C3000830C200D325A0
:100B0000C30D0318882D05108316051083128B2D35
:100B1000831605148312D3258514D1258510C20BA5
:100B20007F2D831605148312D1258514D32505182E
:100B3000982DD32585100800B1119F2DB11583166E
:100B4000051483120830C200D1258514D325031063
:100B500005180314C30DD3258510C20BA42DB11D98
:100B6000B52D0510831605108312D1258514D125C6
:100B70008510831605148312B11D6D2543080800E6
:100B8000C6250E30F32408000130C72D2108B70018
:100B90003030B800B80BCA2DB70BC82D08000000C4
:100BA0000800D625D625D625D625D6250800B80195
:100BB0001830B700B80BDA2DB70BDA2D0800D7259F
:100BC000D725D725D725080031152308031D080090
:100BD000240803193111080031152708031D0800E6
:100BE000280803193111080053308400FF308000B9
:100BF000840A6D300406031DF62D080031113F30C4
:100C0000311A0F302B06031D08002C08FF3A031978
:100C10003115080013267526CE01CD01CC013C26E6
:100C2000D201321408003C30CC00CD010630CE0099
:100C30003C260C30032700302127003021270800F4
:100C40000D30232E0F3003272C0821272B082127B6
:100C5000D9240800CE01CD01CC01A901AA013C266E
:100C6000321408003030352E2030CC00CD01CE01BA
:100C70003C26A901AA010800003003274E082127BD
:100C80000E30212700300327F63021276E30212730
:100C9000003003274D0821270E302127003003277D
:100CA000F73021276E302127003003274C082127F9
:100CB0000E30212700300327F83021276E302127FE
:100CC00008000327003021278316051483120830FB
:100CD000B9008514CF258510CF25031005180314FE
:100CE000D10CB90B692E5108080000300327A6303B
:100CF00021278E30212700300327A63021279C3062
:100D00002127080000300327A63021279E30212705
:100D100000300327A63021279C30212700300327ED
:100D2000003021270E30212700300327A93021274A
:100D30006E30212732140800CA00003003274A0809
:100D400021270E30212700300327A83021276E30BD
:100D5000212700300327A6302127843021270030A7
:100D60000327553021270E30212700300327A730D5
:100D700021276E30212700300327AA3021270E308B
:100D8000212700300327A73021276E30212700308C
:100D90000327A630212782302127003003270301B3
:100DA000212703012127003003273230C725030103
:100DB00021270301212700300327A6302127943063
:100DC0002127FB26D924080000300327A63021273D
:100DD0008030212700300327A830212750302127D9
:100DE00000300327F53021276E302127023061269D
:100DF000FB265108080000300327A93021272A309C
:100E000021270800B116CF00CF258514CF258316E2
:100E100005108312CF250430B9000510CF0C03183C
:100E20000514CF258514CF25B11E1A2F390B1A2F83
:100E3000C625B1128510CF25B90B0D2F8501CF2501
:100E40000800CF000830B9008501CF0C0318051445
:100E5000CF258514CF258510CF25B90B242F8501EB
:100E6000CF250800850104308600831604308500F4
:100E7000023086008312080018121A081A081A088D
:100E8000181608000230F028831608309B005027FF
:100E90009900502799000325502799005027F028E2
:0C0EA00083161C141A089B0A8312080019
:02400E002A0383
:10420000500072006F0074006F003A002000200020
:084210005000300030004100B5
:00000001FF
